:020000022000DC
:10600000000004200D2203004D2203004F22030054
:106010005122030053220300552203000000000018
:106020000000000000000000000000004D4E0300D2
:1060300059220300000000006D4E03005D220300A2
:106040009D4F03005F220300796A03005F22030073
:106050005F2203005F2203005D2603005F2203002E
:106060005F2203005F2203005F2203005F22030020
:106070005F2203005F2203005F2203005F22030010
:106080005F220300554C03005F2203005F220300E0
:106090005F2203005F220300F9A602005F220300D3
:1060A0005F2203005F2203005F2203005F220300E0
:1060B0005F2203005F2203000000000000000000D8
:1060C0005F2203005F2203005F220300C15403002C
:1060D0005F2203005F2203005F220300F9800300B8
:1060E0005F2203005F2203005F2203000000000024
:1060F000000000005F22030000000000395503008B
:10610000000000000000000000000000000000008F
:10611000000000000000000000000000000000007F
:10612000000000000000000000000000000000006F
:10613000000000000000000000000000000000005F
:10614000000000000000000000000000000000004F
:10615000000000000000000000000000000000003F
:10616000000000000000000000000000000000002F
:10617000000000000000000000000000000000001F
:10618000000000000000000000000000000000000F
:1061900000000000000000000000000000000000FF
:1061A00000000000000000000000000000000000EF
:1061B00000000000000000000000000000000000DF
:1061C00000000000000000000000000000000000CF
:1061D00000000000000000000000000000000000BF
:1061E00000000000000000000000000000000000AF
:1061F000000000000000000000000000000000009F
:10620000F1EE103A43F08073E1EE103A704700BFB0
:1062100010B5054C237833B9044B13B10448AFF3E0
:1062200000800123237010BDBC3600200000000058
:1062300088E6030008B5034B1BB103490348AFF3DD
:10624000008008BD00000000C036002088E6030082
:10625000154B002B08BF134B9D46A3F5803A002138
:106260008B460F461348144A121A14F092F80F4B3B
:10627000002B00D098470E4B002B00D098470020F1
:10628000002104000D000D48002802D00C48AFF397
:10629000008014F017F82000290010F05BFC13F0C8
:1062A000EBFF00BF00000800000004200000000019
:1062B00000000000BC360020146300200000000035
:1062C0000000000010B504464068064B236082B011
:1062D00028B1002300931A4605210EF02FFC20461A
:1062E00002B010BD68D2030010B5074C0749204624
:1062F0000FF000FF05200FF037FD0A22014620466F
:10630000BDE8104010F000B864510020E4D3030051
:1063100010B504464068084B236082B028B10023C2
:1063200000931A4605210EF009FC204610F064FC8B
:10633000204602B010BD00BF68D2030038B5092066
:106340000FF012FD0A490B4DC4B20B480FF0D2FEFC
:1063500021460A2208480FF09DFF01232B7004B14B
:1063600038BD0E200FF000FD0028F9D1287038BD8F
:10637000DCD40300083900206451002010B50C2043
:1063800082B00FF0F1FC0F49C4B20F480FF0B2FE1B
:1063900021460A220C480FF07DFF0CB902B010BD57
:1063A0000A4C60680EF0F6FB0028F7D064680DF028
:1063B00065FD002302460093204602210EF0BEFB3D
:1063C00002B010BDF0D40300645100200039002059
:1063D0002DE9F0410E2082B00FF0C6FC2849C4B26E
:1063E00028480FF087FE21460A2226480FF052FF68
:1063F000012C2FD0244B254E254DD3F804800024AA
:10640000012734702F700DF039FD009402462346A9
:10641000404639460EF092FB1E48337802782C78BD
:106420001D49002B14BF3023202302F0C302002C8F
:1064300042EA0302098814BF0C2308231A434FF6CB
:10644000FF739942027018D0144802B0BDE8F041C1
:1064500002F058BA0C4F0D4E0D4D34707868002480
:106460002C700EF097FB0028D6D078680094234655
:10647000224603210EF062FBCEE702B0BDE8F081B8
:10648000CCD30300645100200039002009390020DA
:106490000434002005340020743700202437002005
:1064A000F0B5044683B00F463B483C4E3C4D0121BD
:1064B00004F0DCF8384804F02FF93A493A480FF074
:1064C00019FE0A22394638480FF0E4FE37493648AB
:1064D0000FF0C8FE2A883378A24203F1FF333370ED
:1064E00004BF4FF6FF732B80314B1A88A24204BFC2
:1064F0004FF6FF721A802F4B1A88A24202D14FF634
:10650000FF721A802C4928480FF0F4FD0A2200215E
:1065100025480FF001FE294923480FF0EBFD29889B
:1065200021480A220FF0F0FE34780CB103B0F0BD20
:1065300023491D480FF096FE2146224801F038FD00
:10654000214919480FF08EFE204B5D680DF096FC36
:10655000009402462346284601210EF0EFFA3478D3
:10656000002CE3D11A4D68680EF014FB60B9194B8A
:106570005C680DF083FC0023024600932046012155
:106580000EF0DCFA03B0F0BD6868009423462246A2
:1065900003210EF0D3FAEAE724390020DE37002089
:1065A000DC37002090D4030064510020A8D40300FD
:1065B000E03700207037002094D3030098D8030000
:1065C000B8D40300243B0020CCD40300E8380020DA
:1065D000F83800200039002010B52149097882B030
:1065E000032906D8DFE801F038341902F920002326
:1065F000D5221C4C2178B9B900901B4805F088F8C9
:106600001021194805F0AAF8174804F007FE23786E
:1066100083F00103237002B010BD124C2178FF20DB
:106620001F2365220029E7D0002300931A4619464C
:106630000D4805F06DF8FF210B4805F08FF80A486A
:1066400004F0ECFD237883F00103237002B010BD49
:10665000FF2079232922CCE700231A46FF20C8E730
:10666000DE370020D9360020D0380020F8B50220CF
:106670000FF034FA0C200FF02BFA00210B200FF052
:1066800057FB144F0A24002514200FF057FA0A2252
:106690000646014638460FF037FE601E10F0FF0434
:1066A0003544F1D10C4B204683FB0523ED17C5EB98
:1066B000A3050FF013FA0A200FF00AFA01210B20AC
:1066C0000FF036FB29460A2202480FF01DFE034B4D
:1066D0001D60F8BD6451002067666666783700204B
:1066E0002DE9F0418CB020220746002104A813F0C8
:1066F00050FE39469E48DFF8908203F0F5FF9D4931
:10670000044640460FF0AEFD2046002102F0CAFBD1
:10671000994940460FF0A6FD00221146204602F09E
:10672000B9FB964940460FF09DFD1921204602F025
:10673000A9FB4FF47A700CF01FF92022204604A91F
:1067400002F082FB00218A4804F024F800218848E6
:1067500003F08CFF864803F0F3FF02200FF0BEF930
:106760000C200FF0B5F900210B200FF0E1FA0A25FB
:10677000002414200FF0E2F90A22064601464046A2
:106780000FF0C2FD681E10F0FF053444F1D17C4BC0
:106790007C4E83FB04232846E417C4EBA3040FF0CC
:1067A0009DF90A200FF094F901210B200FF0C0FA97
:1067B00021460A2274480FF0A7FD3460D6ED007A16
:1067C000DFED726A9FED727AF8EEE77A67EEA67AED
:1067D000F4EEC77AF1EE10FA00F3B180DFED6D6AE6
:1067E000F4EEE67AF1EE10FA26DA9FED6B7AF4EE2B
:1067F000C77AF1EE10FA00F3AB80DFED686AF4EED1
:10680000E67AF1EE10FA00F39C809FED657AF4EEE3
:10681000C77AF1EE10FA00F3A280DFED626AF4EEBF
:10682000E67AF1EE10FA40F3A18077EEC77AF4EE43
:10683000006A9FED5D7A05E077EEC77ADFED5B6A6F
:106840009FED5B7AA7EEA67AFCEEC77ACDED037AD0
:106850009DF80C405748584D214601F08FFF57498D
:1068600049480FF047FC31684748554E0A220FF05F
:106870004BFD544944480FF03DFC0A222146424852
:106880000FF008FD504940480FF034FC04A93E4881
:106890000FF0E8FC2B784D493B4801332B700FF08B
:1068A00029FC0A22297838480FF0F4FC32884FF688
:1068B000FF739A422B7808BF37803BBB444932486C
:1068C0000FF018FC0A2200212F480FF025FC414947
:1068D0002D480FF00FFC31882B480A220FF014FDD1
:1068E0002C7854B13C4B5868002300931A4603217E
:1068F0000EF024F90CB0BDE8F081384922480FF0C1
:10690000B1FC2146364801F053FBEBE7354B002440
:10691000586800942346224603210EF00FF9FF2009
:1069200023462246214600902F4804F0F1FE102114
:106930002D4804F013FF2C4804F070FCBEE76424DB
:1069400088E777EEC77ADFED196A9FED287A79E755
:1069500077EEE67A9FED267ADFED146A72E777EE3E
:10696000E67A9FED247ADFED116A6BE72C4671E73A
:1069700024390020F4D303000CD403002CD40300EA
:106980006766666678370020645100200080BB3F50
:106990000020804500007A4500C0734500406745EF
:1069A00000C05A450000484500002042CDCCCC3DF7
:1069B0000000C842DC360020DE37002044D403004B
:1069C000DC37002058D403006CD403007CD40300CF
:1069D00094D3030098D8030000390020B8D40300F2
:1069E000243B0020E8380020D03800200000A042DE
:1069F0000000B442000070422DE9F041174684B017
:106A00000C460646B949BA480FF074FB39460A22CB
:106A1000B7480FF0B1FB0434B649B5480FF022FC7B
:106A20002046B54902F0E2FF00285CD0002F39D0A3
:106A3000B249AF48B24C0FF015FCB24A2188137826
:106A4000B148013313704FF6FF730122994202706F
:106A500047D1AE4D2680AE49A5480FF04BFB0A2228
:106A60000021A3480FF058FBAA49A1480FF042FBB0
:106A700029889F480A220FF047FCA7499C480FF03D
:106A800039FB0A2200219A480FF046FBA149984899
:106A90000FF030FB218896480A2204B0BDE8F0418F
:106AA0000FF032BC9D499248954C0FF0DBFB9549A5
:106AB0000B7853B92388B34202D14FF6FF7323807A
:106AC000914B924D00221A70C5E72088013BB042DD
:106AD000DAB208BF4FF6FF730A7008BF2380002A9E
:106AE000EED08A4DB7E705468D49204602F07EFF7D
:106AF000002800F0C380002F00F0A4807C48894962
:106B000080460FF0AFFB884B012202201A700EF076
:106B1000E5FF0C200EF0DCFF29460B200FF008F9F2
:106B20000A2414200FF00AF8013C074601460A2205
:106B300040460FF0E9FB14F0FF043D44F1D17B4ADD
:106B4000EB17204682FB0525C3EBA5050EF0C6FF1B
:106B50000A200EF0BDFF01210B200FF0E9F82946B5
:106B60000A2263480FF0D0FB714BDFED726A1D60A3
:106B7000D3ED007A9FED707AF8EEE77A67EEA67AA9
:106B8000F4EEC77AF1EE10FA00F30C81DFED6B6AD8
:106B9000F4EEE67AF1EE10FA80F2A0809FED687ACA
:106BA000F4EEC77AF1EE10FA00F3FE80DFED656ACD
:106BB000F4EEE67AF1EE10FA00F308819FED627AC6
:106BC000F4EEC77AF1EE10FA00F30781DFED5F6AA9
:106BD000F4EEE67AF1EE10FA0DDD77EEC77A9FED6E
:106BE0005C7AF4EE006AA7EEA67AFCEEC77ACDEDE9
:106BF000037A9DF80C405748214601F027FF2146B3
:106C0000544801F0BBFD5449544A0C8813784FF6A0
:106C1000FF708442524C08BF0E80013360681370CD
:106C20000DF0B8FF0646002855D16768374D344C43
:106C30000DF024F9009602463346384601210DF046
:106C40007DFF08E747492A480FF00CFB43480378CB
:106C5000002B33D1404B1A88B24202D14FF6FF725B
:106C60001A803F4B304A5868254C284D002300932A
:106C7000032113701A460DF061FFECE620463A49F5
:106C800002F0B4FE38B3002F78D1384918481F4DB0
:106C90000FF0E8FA36490B78002B00F08C8028883A
:106CA000013BB042DAB208BF4FF6FF730A7008BF6B
:106CB0002B80002A00F08580114CCCE6264A1488EF
:106CC000013BB442D9B208BF4FF6FF73017008BF51
:106CD00013800029C5D00A4C0C4DBCE677EEC77A6C
:106CE000DFED246A9FED247A7DE700BF70D20300B8
:106CF00064510020F4D70300EC37002080D2030059
:106D0000E0370020DF370020C23800207437002031
:106D100080D3030098D80300A0D30300ACD20300B3
:106D2000E0360020D8D20300C038002067666666CF
:106D3000783700200080BB3F0020804500007A4566
:106D400000C073450040674500C05A4500004845F3
:106D500000002042DC360020703700206C37002015
:106D6000F838002004D303002837002058D303004C
:106D700072370020CDCCCC3D0000C8421A491B48D8
:106D80001B4D0FF06FFA1B4A298813781A480133FC
:106D900013704FF6FF730122994202708CD12E803E
:106DA000164C58E6642426E777EEE67A9FED147ACF
:106DB000DFED146A17E72B88B34202D14FF6FF7359
:106DC0002B800D4B0D4C00221A7044E677EEC77AEB
:106DD000DFED0C6A9FED0C7A05E777EEE67A9FED22
:106DE0000B7ADFED086AFEE630D303006451002021
:106DF0007437002072370020C1380020E0370020AF
:106E00000000B442CDCCCC3D0000A0420000704256
:106E100030B5062183B01D481D4D01F039F81B48DF
:106E200001F01EF81B4B1C4A1C49184800F06CFF6F
:106E30001B4800F0E7FF0121144801F05DF8F4223F
:106E40002021124801F054F81E21104801F04EF89C
:106E500000210E4801F0ACF84FF4FA700BF08CFDF5
:106E6000104911480FF0FEF968680DF093FE50B913
:106E700004466D680DF002F8009402462346284649
:106E800001210DF05BFE03B030BD00BF243B0020AC
:106E9000E83800208C3700207C370020CC370020D9
:106EA000603B00200CD5030064510020000000006E
:106EB000F0B52DED028B85B00BF046FD784BDFED84
:106EC000796AD3ED007A9FED787A784D784F2B6808
:106ED0000290F8EEE77A386067EEA67A0393F4EE54
:106EE000C77AF1EE10FA00F3BD80DFED726AF4EEBE
:106EF000E67AF1EE10FA26DA9FED6F7AF4EEC77AB1
:106F0000F1EE10FA00F3B780DFED6C6AF4EEE67A8A
:106F1000F1EE10FA00F3A8809FED697AF4EEC77ADB
:106F2000F1EE10FA00F3AE80DFED666AF4EEE67A79
:106F3000F1EE10FA40F3AD8077EEC77AF4EE006A16
:106F40009FED617A05E077EEC77ADFED606A9FED2D
:106F5000607AA7EEA67AFCEEC77ACDED017A9DF8AD
:106F600004405C4E3378A34203D021465A4801F0D6
:106F700005FC5A4B1B78002B39D10DF057FE5848B1
:106F8000584F04F079F8584A3968137828605BB292
:106F90005B1A184440B210700DF052FE534B1B7830
:106FA0007BB12A683B689A420BD0514B19884FF647
:106FB000FF73994205D008230DEB03024D4801F001
:106FC000FBFB3278A2420BD04B4B1B7843B14B4BAF
:106FD00019884FF6FF73994202D03F4801F092FCA6
:106FE0002B683B60347005B0BDEC028BF0BD0DF03A
:106FF0001DFE9FED438A97ED000A3A4FF0EE480AD6
:10700000B8EE400A0AF00AFADFED3E7A60EE277A1F
:1070100017EE900A12F022FE00223B4B12F0C0FC49
:107020001DA3D3E9002312F071FE13F081F800EEE6
:10703000100A0AF0ABF9F7EE007A30EE270A2A4878
:107040003968037820EE080A5BB2FDEEC07A5B1A5D
:1070500017EE902A13445BB2C5ED007A03700DF071
:10706000EFFD9BE764247CE777EEC77ADFED176AD4
:107070009FED267A6DE777EEE67A9FED257ADFEDD4
:10708000136A66E777EEE67A9FED227ADFED0F6A04
:107090005FE7002465E700BF182D4454FB21094039
:1070A000783700200080BB3F00208045E437002077
:1070B000E438002000007A4500C073450040674571
:1070C00000C05A450000484500002042CDCCCC3DD0
:1070D0000000C842C6380020DC360020C538002039
:1070E000CC380020C8380020D8360020C238002014
:1070F000E0370020E8370020C0380020703700203B
:1071000000401C4517B7513A0000F03F0000A04274
:107110000000B442000070422DE9F0434E4C4F4D48
:107120004F48504FDFF88481DFF884914E4E83B092
:107130000D2103F069FF522320460822052104F0A7
:107140001DF82A462046494913F056F8484B0024BA
:1071500018462A463946C3E9008413F04DF84548DD
:107160002A463946C0E9008413F046F842482A46C8
:107170003946C0E9008413F03FF8404B2A461846D0
:107180003946C3F800805C606C4613F035F83C4823
:107190003C4FDFF8208103F01FFB20463A4902F004
:1071A000FFFB94E80600394802F0DAFB2046384934
:1071B00002F0F6FB94E80600364802F0D1FB2046C8
:1071C000354902F0EDFB94E80600484601F03EFA2E
:1071D0002A463146484613F00FF820462F4902F060
:1071E000DFFB94E80600384601F030FA2A463146C3
:1071F000384613F001F8204629492A4F02F0D0FB07
:1072000094E80600404601F021FA2A4631464046FD
:1072100012F0F2FF204642F6192102F0BBFB94E87F
:107220000600384601F012FA2A46314638461E4F0B
:1072300012F0E2FF204642F61A2102F0ABFB94E87E
:107240000600384601F002FA2A463146384612F066
:10725000D3FF03B0BDE8F083D03800200034002015
:10726000CC380020C562020005820200DDB10200B8
:10727000E8380020F8380020F038002000390020DD
:107280008C370020303800202CD503007C370020BC
:107290001CD50300CC3700203CD503004CD503009F
:1072A0005CD50300DC3600202437002068D20300C0
:1072B000E83700207838002038B5094C094D0DF02A
:1072C000B5FC217828460FF00DFA28460FF0C4F9D6
:1072D000237800232370BDE838400DF0B1BC00BF17
:1072E000D83600207851002030B5114C114D12498C
:1072F00083B020460EF0B6FF204600240EF056FE66
:107300002346224628462146009404F001FAFF2134
:10731000284604F023FA284603F080FF64200BF08F
:107320002BFB2146062003B0BDE830400EF000BD27
:1073300064510020D0380020FCD40300F0B514467E
:1073400083B0AA49AA48AB4D1E460EF0D3FE217861
:10735000A7480A220EF09EFF68680DF01BFC002E65
:1073600043D02278332A00F0578123D93D2A00F0F8
:10737000218163D9402A00F01881DE2A00F0CF80F5
:107380003E2A32D19C4B9D499D4A1B78127804209D
:107390000870002B40F0678103242146012002255C
:1073A000012A65D0022A00F07C81032A0CBF044622
:1073B0001C465DE0252A00F01381074617D9292ACB
:1073C00000F0E780322A00F0CA80282A0DD148B99F
:1073D0006C680CF053FD009702463B4620460121A5
:1073E0000DF0ACFB874B01221A7003B0F0BD212ACF
:1073F0006AD0232AF9D1804B8049814A1B780878CA
:107400001278002B40F035810125022603241F4607
:107410002946B646A446012806D0022800F0458138
:1074200004280CBF61463946012A21D0022A00F007
:107430004081032A0CBF2C461C4619E0342A2BD06D
:107440003C2AD2D16C4B6D481A786D4901230370E8
:107450000878002A40F0F680194602250324012806
:1074600006D0022800F01D8103280CBF1C461446DC
:10747000654803F029FE2146634803F03DFE62485B
:1074800003F0D6FD604803F0E5FD5F48042103B03A
:10749000BDE8F04003F04CBE574B594A1C78574B9F
:1074A000042111701B78002C40F0D280224603206A
:1074B00002250121012BDBD0022B00F0F080042BF0
:1074C0000CBF01461146D3E74E4B01241C7048B94E
:1074D0006D680CF0D3FC009702463B4628462146D7
:1074E0000DF02CFB4649444B444A474804250024F0
:1074F0000D7003211C70157003F0E6FD2146424813
:1075000003F0FAFD404803F093FD3F4803F0A2FD6D
:1075100029463D4803F00CFE3C4B1C7065E73C4996
:1075200033480EF09FFE002431480EF03FFD234605
:10753000224621460094374804F0EAF8FF213548F6
:1075400004F00CF9334803F069FE64200BF014FAE0
:107550002146062003B0BDE8F0400EF0E9BB264B03
:10756000274C19782548022323700078002940F021
:107570008B801A4614460B460325012101283FF44F
:1075800077AF022800F08F8004280CBF29461946E7
:107590006EE730B10023686800931A4603210DF0AE
:1075A000CDFA184B00221A701FE703B0BDE8F04077
:1075B0000EF086BA104B11481A7811490223037055
:1075C0000878002A65D119460125032401283FF4D3
:1075D0004FAF02286BD003280CBF2C46144647E758
:1075E0000A4A137883F001031370FEE6B8D3030050
:1075F00064510020F0380020C338002007340020F8
:1076000006340020C4380020CC380020C5380020C3
:10761000FCD40300D0380020274B284828491B7889
:10762000032404700878CBB90121224602250C46B8
:1076300001283FF41DAF022831D004280CBF1146A9
:10764000194615E71123122513243121102206E7CC
:10765000332032253121102430222BE732253121ED
:1076600011243023E4E711201225132433211023A1
:1076700096E61125122613244FF0330C4FF0320EEC
:10768000312110233027C6E633253121122430233F
:1076900074E71125122313243221102296E729467C
:1076A000E6E62C46E4E61146E2E67146BCE61C46F8
:1076B000DEE63446DCE600BFC33800200634002096
:1076C00007340020F0B58548854F85B0FF2503F0CD
:1076D00093FD824803F0A2FD2B462A460095002127
:1076E0007E4804F015F829467C4804F037F87B48BA
:1076F000002403F093FD64200BF03EF9234622465C
:1077000021467648009404F003F82946734804F0B3
:1077100025F8724803F082FD2B46224621466F4829
:10772000009403F0F5FF10216C486E4D04F016F83C
:107730006A4803F073FD6C496C486D4A4FF6FF735D
:107740000B800380012106202B8013800EF0C2FAEB
:10775000012106200EF0ECFA01210D200EF0BAFAFC
:1077600001210B200EF0B6FA01210B200EF0E0FAF9
:1077700021460C200EF0AEFA4FF481725D490C20C8
:107780000AF0B8FE214605200EF0A4FA4FF48172EB
:10779000594905200AF0AEFE214609200EF09AFA5A
:1077A0004FF48172554909200AF0A4FE21460E20AB
:1077B0000EF090FA4FF4817251490E200AF09AFEB1
:1077C0004FF4E13138460EF049FC4FF4E1314D48B9
:1077D0000EF0A2FF4C4803F0A7FB03214B4803F037
:1077E00073FC2146494803F087FC484803F020FC1D
:1077F000464803F02FFC0421444803F099FC022082
:107800000EF06CF90C200EF063F921460B200EF0FF
:107810008FFA0A2514200EF091F90A220646014635
:1078200038460EF071FD681E10F0FF053444F1D1AA
:10783000374AE317284682FB0424C3EBA4040EF066
:107840004DF90A200EF044F901210B200EF070FAD8
:1078500021460A2222480EF057FD2E4BDFED2E6AFC
:107860001C60D3ED007A9FED2D7AF8EEE77A67EE93
:10787000A67AF4EEC77AF1EE10FA00F3C581DFEDD7
:10788000286AF4EEE67AF1EE10FA59DA9FED257ADD
:10789000F4EEC77AF1EE10FA00F3BF81DFED226A51
:1078A000F4EEE67AF1EE10FA00F3B0819FED1F7A64
:1078B000F4EEC77AF1EE10FA00F3B681DFED1C6A40
:1078C000F4EEE67AF1EE10FA40F3B58177EEC77A7E
:1078D000F4EE006A9FED177A38E000BFD038002040
:1078E0006451002070370020DC370020E037002092
:1078F000743700207D630200E96202003D630200EC
:10790000D163020078510020903C0020CC38002048
:1079100067666666783700200080BB3F00208045A0
:1079200000007A4500C073450040674500C05A45D5
:107930000000484500002042CDCCCC3D0000C842AC
:1079400077EEC77A5FED046A1FED047AA7EEA67A98
:10795000FCEEC77ACDED037A9DF80C40B748B84EDF
:10796000B84D042102F046FC00220121B34802F088
:1079700077FC0121B14802F079FE6421AF4802F0A2
:1079800079FE0821AD4802F01FFEAF49AB4802F076
:10799000F3FDAE49AE4801F00FFEAE49AC4801F030
:1079A0000DFE0C220621AA4801F0FCFDAA49AB48B5
:1079B0000EF058FCAA4801F0B5FF1221A94800F0CA
:1079C00093FE00221121A74800F0A4FE0121A54842
:1079D00000F08EFE0122A449A24800F0A7FEA148B3
:1079E00000F018FC21469F4800F0C8FE21469D4843
:1079F0009E4C01F02BF812219D4800F075FE0022EC
:107A000011219B4800F086FE0121994800F070FE8C
:107A100001229549964800F089FE954800F0FAFB4E
:107A20008F21934800F0AAFE92498C480EF01AFC70
:107A30000B228549904802F011FF16228F498E488B
:107A400002F000FF05228E498B4802F003FF052259
:107A50008C49894802F0FAFE874802F003FF8A4900
:107A60007E480EF0FFFB894801F05CFF88497B48A7
:107A70000EF0F8FB1221874800F036FE002211219B
:107A8000844800F047FE8449824800F055FE0821F2
:107A9000804800F02DFE012273497E4800F046FE2A
:107AA0007C4800F0B7FB0E217C4800F01DFE11223F
:107AB00011467A4800F02EFE7949784800F03CFEE5
:107AC0000121764800F014FE01227649734800F047
:107AD00027FE724800F09EFB0821734800F004FE68
:107AE00000221121704800F015FE70496E4800F028
:107AF00023FE01216C4800F0FBFD6B4800F08AFB7F
:107B00006B4B00930023184601224FF400710CF0D8
:107B1000BDFF6849706051480EF0ECFA71684F483B
:107B20000A220EF069FC644B0093002318460122E0
:107B30004FF496210CF0AAFF6049686047480EF0A8
:107B4000D9FA696845480A220EF056FC5C4B00934E
:107B500001220023184611460CF098FF5949606035
:107B60003E480EF0C7FA61683C480A220EF044FC19
:107B7000554B1B784BB164680CF080F9002302462A
:107B80000093204601210CF0D9FF504B00930023B5
:107B9000184601224FF496210CF078FF4C4C4D49C9
:107BA00060602E484C4D0EF05DFB64680CF066F989
:107BB000002302460093012120460CF0BFFF09205C
:107BC0000EF0D2F84549C4B224480EF093FA21468B
:107BD0000A2222480EF05EFB01232B706CB1FEF7E7
:107BE000F7FBFFF715F9154802F0DCFD3C491B488F
:107BF00005B0BDE8F0400EF035BB0E200EF0B4F835
:107C00000028ECD12870EAE76424A7E677EEC77A6B
:107C1000DFED346A9FED347A98E677EEE67A9FEDF1
:107C2000337ADFED306A91E677EEE67A9FED307ACF
:107C3000DFED2C6A8AE62C4690E600BF243900204E
:107C4000E8380020F83800206CD50300E166020017
:107C5000D43B0020A164020078D5030064510020C9
:107C60007C370020DC360020F9690200F038002063
:107C70002437002098D503008C370020C4D503009A
:107C8000DCD50300E4D50300ECD50300CC3700209D
:107C90000CD60300E837002024D60300303800203B
:107CA00038D603003D7302007838002044D6030024
:107CB000D96502004CD603006D66020060D6030051
:107CC000B972020078D60300C4380020E9720200BD
:107CD0000039002090D6030008390020DCD40300CE
:107CE000A8D40300CDCCCC3D0000A0420000B4429B
:107CF0000000704272DF704773DF704777DF7047B4
:107D00000022C277027070472DE9F0418EB0CC6836
:107D10008D7A01940989947A16898DF80250ADF80C
:107D20000010D56819899A7A8DF80A40DB68ADF899
:107D30000860002480460395ADF810108DF81220DD
:107D400005932746264606E0802801D1F7B96F68DB
:107D50000834182C12D00DEB0405284601F026FE3D
:107D60001028F1D10EAB03EB46033DF8042023F8B5
:107D7000202C08340136182CF6B2ECD1E6B176008E
:107D800098F81F30F6B2F2181D2A03DD00200EB05D
:107D9000BDE8F08108EB0302701C032108F8030022
:107DA0005170901C06A9324612F0CFFA98F81F3095
:107DB00002331E4488F81F60FFB198F81F300D2B66
:107DC000E4DC08EB0302112108F8031007235370C9
:107DD000B8683D687C68F968C2F80E10C2F80A00FD
:107DE000C2F80250C2F8064098F81F300120123342
:107DF00088F81F300EB0BDE8F08101200EB0BDE85C
:107E0000F08100BFF0B589B00546202269461348CD
:107E100002F0C6FBEB7FC2181D2A0ADDC3F11D0468
:107E2000E4B2E2181D2A4FF0000615DD304609B015
:107E3000F0BD044601260927EA18601CE85469468B
:107E40005770901C224612F080FAEB7F02331C44DC
:107E50003046EC7709B0F0BD0827EDE72439002063
:107E600010B50446094802F0FDFBE37F1C2B0ADC39
:107E7000E2180221E1540A2390705370E37F033328
:107E8000E377012010BD002010BD00BF2439002081
:107E9000C27F1C2A0DDC10B403469C1802209854A3
:107EA0000120A1706070DA7F0332DA775DF8044B4D
:107EB00070470020704700BF30B440F2FF12094CF9
:107EC000094902840125002280F82250C0E90A41B4
:107ED000C277027080F823204262C0E90C228263DC
:107EE00030BC70472000F40020001E00C1857047A0
:107EF000428501858185704780F82210704700BF58
:107F0000F0B502EB8203264E87B003EB83030F46E6
:107F10009B00154631680022CDE90272ADF80C30A5
:107F200090F8213000928DF80030CB070446019282
:107F3000CDE9042209D41B4A1B4BD17FC07F998114
:107F400001211C609A60988031606A46164904F1EC
:107F50002000FFF7CFFE10B1002007B0F0BD13489E
:107F600094F8206002F07EFB314602460120FFF7C4
:107F7000C5FE0028F0D1012194F82000FFF7BCFED7
:107F80000028E9D1094802F0C7FB638EA7859D420E
:107F900094BF5B1BDB1A0120638684F82300DCE7B7
:107FA0000C390020603B00201039002024390020CB
:107FB000F0B52C4D4186044687B001862846FA214B
:107FC00002F058FBE68D2849278D0868029706EBDA
:107FD000860303EB830300229B000392ADF80C3071
:107FE00094F8213000928DF80030C3070192CDE95A
:107FF00004220BD41D4BE27F95F85B029A8005F5B5
:108000000F7501221C609D6098810A606A461749BD
:1080100004F12000FFF76EFE10B1002007B0F0BDA4
:10802000104894F8205002F01DFB2946024601201A
:10803000FFF764FE0028F0D1012194F82000FFF73B
:108040005BFE0028E9D1074802F066FB638EA78536
:108050009E4294BF9B1BDB1A0120638684F8230099
:10806000DCE700BF243900200C3900201039002043
:1080700030B50B888D88112B85B004462CD0262B6B
:108080000FD0102B01D005B030BDCB7B012BFAD126
:10809000426A03FA05F515430023456280F8233050
:1080A000F1E70B7A012BEED1002380F823304FF457
:1080B000FA71274802F0DEFA238E002B30D0658E4D
:1080C000002D36D0A36B0BB19847658E618D2A4683
:1080D0002046FFF715FFD6E7436AEB40DB07D2D512
:1080E0001C4801F043FA0028CDD1636A94F82310AC
:1080F000012202FA05F523EA050363620029C2D1D1
:1081000094F82230002BBED0238E6386FA211048CB
:1081100002F0B0FAE28D218D2046FFF7F1FEB2E7C2
:10812000A36B03B198470022618D2046FFF7E8FE5C
:10813000A9E7074802F004FB626B002AA3D004AB56
:108140000095294643F8045D28460DF08FFB9AE719
:1081500024390020D43B002075DF704710B44FF065
:1081600010144FF448010022C0E90041C0E9022286
:108170005DF8044B704700BF014801F00BB800BF29
:10818000F43B0020F8B500240B4F2546A1B2384639
:1081900002F0AAFA0134064648B100F04BFE30B1B5
:1081A000304600F04BFE022804BF0135EDB2142C1E
:1081B000ECD12846F8BD00BF243900200B881F2BC6
:1081C00012D110B50A4682B052F8080F8C88516857
:1081D0006B4603C32046BDF80030ADF80230694657
:1081E000FFF7BAFF02B010BD704700BFAADF7047AB
:1081F000ABDF7047ACDF7047ADDF7047AEDF704775
:10820000B0DF7047704700BF10B504460EF0F4FCB5
:10821000204610BD70B55E4B04461B680361061D09
:1082200096B0304601F0D0FB94F8223013F03202C1
:1082300008BF84F8232013F00C0208BF84F8242020
:1082400013F0300358D10FAD0F93C5E90133C5E9E1
:10825000033394F8222094F82300AB618DF83C207E
:1082600001224FF0000162F342016269149300237E
:10827000ADF808308DF80A108DF808000AB11378AF
:1082800073BBA37E13B104F11A03129394F8253043
:10829000E289059613F0010F4FF000030CBF104662
:1082A0001846CDF81E302946ADF81C00CDF8223016
:1082B0001846ADF82020ADF8263004F1230504F16E
:1082C000260305AA0695FFF791FF034628B9627EAB
:1082D00072BB657B002D53D00023184616B070BDCD
:1082E0001046109212F04AFF02AB80B2ADF8440083
:1082F000ADF846001393C4E700231A46012060F34B
:10830000420224498DF806200FAD097894F8230025
:1083100094F822200F938DF80410C5E90133C5E9C4
:108320000333AB618DF805008DF83C2001AB97E776
:108330001849ADF80C000246012502234E6894F856
:108340002310049665F3420203AD8DF80E200B95C1
:108350008DF80C100DEB030204AE04F118050AA908
:10836000CDF83200ADF83030ADF83430ADF836002D
:108370000A960E95FFF73CFF03460028A9D0ACE70C
:108380002146054801F0B2F82B46184616B070BDDC
:1083900020390020A8D60300243900202DE9F0411F
:1083A0000B888E88502B8AB00C46054609D0512B7D
:1083B00004D18B79012B3FD0022B16D00AB0BDE837
:1083C000F081CB88C28C9A4224D06A8D9A42F5D132
:1083D0006B6C002BF2D02A7B648A920700F19980A3
:1083E0002246294630469847E8E7A27B042A59D01E
:1083F000062A2FD0012AE1D1EB6B002BDED02A7B9D
:10840000170704F1080400F1C780224629463046C8
:108410009847D3E7076C002FD7D0037BB1F810C083
:1084200001F11208D90700F19380634642462946BC
:108430003046B847E388C8E7836B002BBED0027B89
:10844000520701F1080774D43A4629463046984746
:10845000A379B1E72A6B002AB0D0002202A93046E6
:10846000CDE90222CDE904228DF80830FFF7C8FEDD
:108470002C6C5CB12B7B2F6BB5F836C0D80700F1A4
:108480009E8063463A4630462946A0472C6B0CF046
:1084900073F8012820467CD00AF09AFA0023C5E937
:1084A0000C338BE7286B002865D0218A628AAF8E57
:1084B000002301EB020CCDE90633CDE90833BC45BE
:1084C0004FF002038DF8183008DD40F20913ADF8C3
:1084D0001C3006A93046FFF793FE6FE79DF81E306B
:1084E000ADF8201004F1140743F0010308443946A5
:1084F000ADF822208DF81E30099711F026FF638A0F
:10850000228AE98E1A4493B28B4238BF0B46EB861F
:10851000DFE7032000211A46009006AB0846CDE9AC
:10852000066508940DF0A2F900287FF447AF6B6C44
:1085300056E703211A46009106AB08213846CDE9DB
:10854000066508970DF092F9002881D1AB6B7BE7A7
:10855000042300933A46614606AB4046CDE90665E2
:10856000CDE9088C0DF082F900287FF463AF2F6C01
:10857000B4F810C059E74FF48067AF860BF0FCFFEA
:108580000128384618D00AF011FA00232863EB8638
:108590008BE711F0C3FE81E703211A46009106AB79
:1085A0000E212046CDE9066508940DF05FF90028FC
:1085B0007FF404AFEB6B28E711F0A8FEE5E7042396
:1085C000009322463846614606ABCDE9066508971A
:1085D000CDF824C00DF04AF900287FF457AF2C6C79
:1085E0002F6BB5F836C04CE730B4164B164D1A78E1
:1085F00080F8242001244FF0010164F3420180F847
:108600002320142400220560C48180F82510827183
:108610008280826002734273C0E904220283C0F840
:108620001A20C0F81E2080F82220C284028582858C
:108630004285C0E90C22C0E90E22C0E9102230BCFC
:10864000704700BFA8D60300B8D6030070B483B04B
:108650006D4685E806000446184944F8041B0346A5
:1086600095E80300164E84E80500317883F824105D
:10867000012214204FF0010562F34205D881002247
:10868000184683F8255083F823101A735A73C3E9E8
:1086900004221A83C3F81A20C3F81E2083F822206C
:1086A000DA841A859A855A85C3E90C22C3E90E2219
:1086B000C3E9102203B070BC704700BFB8D60300F6
:1086C000A8D6030010B483B06B4683E80600041DEF
:1086D00093E8030084E8050003B05DF8044B70479D
:1086E00001234373704700BF80F82210704700BF1A
:1086F00039B990F82530012262F3000380F8253063
:10870000704790F82530C181002262F3000380F8A1
:108710002530704780F8231080F82420704700BF70
:10872000037B016462F3000303737047037B4164BE
:1087300062F34103037370474161704751F8262F7C
:1087400002604A684260704710B5C48982B09442A2
:1087500028BF144601910023C18CADF800406A4641
:108760004FF6FF70ADF80230FFF744FD18B9BDF8C1
:10877000000002B010BD184602B010BD30B5C4896B
:1087800085B0012C28BF01248DF807100023C18C6F
:10879000ADF808400DF1070502AA4FF6FF70ADF8DD
:1087A0000A300395FFF726FD18B9BDF8080005B09B
:1087B00030BD184605B030BD2DE9F04F0F4690F89A
:1087C0002210C90689B068D516464FF6FF72974247
:1087D00005467FD0C2899A4228BF1A469346394639
:1087E000474801F069FF044600285BD0698D0029E5
:1087F00058D000200DF1100842464FF0020CADF8A1
:1088000012000DF10E033846ADF810C00593FFF7C6
:10881000F3FC43F2014290426DD008B9BDF80E005E
:1088200000F00100002866D03946354801F05CFFB1
:10883000824690B300F004FB033883B2BBF1000F13
:108840002CD001944FF000095C469B461BE0ADF82C
:108850000E304FF00103EA8CCDF8129038468DF8B7
:1088600012300DF10E03ADF81690CDE90636ADF8D5
:108870001020FFF7C3FC80B9BDF80E30E41AA4B293
:108880001E44002C39D0504600F01EFBA3455B4629
:10889000414628BF23460028D9D10024204609B0EC
:1088A000BDE8F08FEA890DF1100893455B464FF063
:1088B000000428BF1346E98CADF8103042464FF64D
:1088C000FF700596ADF81240FFF794FC204609B002
:1088D000BDE8F08F0A48019301F0FAFE019BEA8996
:1088E00095F82210934228BF13469B46CB060746B5
:1088F0003FF575AFD7E7EA89D7E7019CCEE700BF20
:10890000243900202DE9F04F8B4689B090F82210D1
:108910008DF80720CA0604D40024204609B0BDE81B
:10892000F08F4FF6FF729345054622D0C789012F7D
:1089300028BF01275946444801F0BEFE044608B14D
:10894000698D21BBEA8904AE974228BF17460024EF
:108950000DF107033246E98CADF810704FF6FF7049
:10896000ADF812400593FFF745FC204609B0BDE87D
:10897000F08F354801F0ACFEEA8995F82210012A03
:10898000174628BF0127CB068346D3D4DBE7002058
:1089900004AE32464FF0020CADF812000DF10E039A
:1089A0005846ADF810C00593FFF726FC43F201428C
:1089B000904246D008B9BDF80E0000F00100002832
:1089C0003FD05946204801F08FFE82460028A3D0B0
:1089D00000F036FA033883B2002F9ED04FF0010921
:1089E00000940DF107074C464FF000089946504699
:1089F00000F06AFAA1454B46314628BF23460028BD
:108A00008AD0ADF80E304FF00103EA8CCDF8128019
:108A100058468DF812300DF10E03ADF81680CDE9F1
:108A20000637ADF81020FFF7E9FB00287FF474AF9C
:108A3000BDF80E30E41AA4B21F44002CD7D1009C1C
:108A40006BE7EA8980E700BF243900202DE9F04F69
:108A500090F8223089B0DA068DF80D1004D4002584
:108A6000284609B0BDE8F08F0446484801F030FEC2
:108A7000B4F80E8094F82220B8F1010FC34628BF45
:108A80004FF0010BD306074609D501463F4801F0D8
:108A900013FE054608B1618DC1B9B4F80E8004AE6D
:108AA000D845434628BF5B46ADF8103000250DF190
:108AB0000D033246E18CADF812504FF6FF7005936E
:108AC000FFF798FB284609B0BDE8F08F002004AE00
:108AD00032464FF0020CADF812000DF10E0338468D
:108AE000ADF810C00593FFF787FB43F201429042B7
:108AF00048D008B9BDF80E0000F00100002841D0B0
:108B00003946224801F0F0FD82460028A7D000F047
:108B100097F9033883B2B8F1000FA1D00DF10D0819
:108B200001954FF000095D46A346444698465046DD
:108B300000F0CAF9A8454346314628BF2B46002815
:108B40008DD0ADF80E304FF00103BBF82620CDF8E4
:108B5000129038468DF812300DF10E03ADF81690D4
:108B6000CDE90634ADF81020FFF748FB00287FF46C
:108B700076AFBDF80E30ED1AADB21C44002DD6D143
:108B8000019D6DE7B4F80E808AE700BF243900200C
:108B9000A1DF7047A3DF7047A4DF70470023838203
:108BA000704700BF806900F0DDB800BF808A704761
:108BB0002DE9F0410B88CE88382B86B00C4605464F
:108BC00042D0392B25D0362B02D006B0BDE8F0813B
:108BD000806900F0C7F80146614801F085FD00F0AA
:108BE0002FF905F11C0807466EB9E28904F110015E
:108BF000404601F0FDFE2B8D2BB1033FBFB2E38950
:108C0000013FBB4270DA404601F00AFF06B0BDE802
:108C1000F0810B7B012B57D0022BD6D1036B002B9D
:108C2000D3D090F83420B1F80480CE89920701F1B6
:108C3000100700F1848032463946284698476189FA
:108C40004046FFF7A9FFC0E700F11C07002E35D111
:108C50000A8A3846314601F0CBFE94F80C80B8F110
:108C6000010F2BD0B8F1040FAFD1A86900F07AF84A
:108C700001463B4801F038FD00F0E2F82B8D053845
:108C800080B2834228BF0346002B37D0218AE28975
:108C9000A869AC8AADF80C600A44696A05918DF840
:108CA0000C80ADF81230ADF81020ADF80E4000F099
:108CB00059F803A9FFF76EFF002886D0384601F067
:108CC000AFFE06B0BDE8F081C36A002B3FF47DAF74
:108CD00090F83420CE8901F11007D1071ED4324616
:108CE00039462846984770E7A86900F03BF86A8D36
:108CF000A98AFFF74DFF002885D166E740F20511EC
:108D0000AA8AA869ADF80C10CDE90433ADF80E209D
:108D100000F028F803A9FFF73DFFCFE703201A462C
:108D20000090314603AB3846CDE9035705960CF069
:108D30009DFD00287FF449AFE689EB6ACFE7032069
:108D40001A460090314603AB3846CDE903570596E5
:108D50000CF08CFD00287FF472AF2B6BE6896AE77C
:108D600024390020808870477FDF704786DF704796
:108D70008FDF704790DF7047A5DF7047B1DF704726
:108D8000B5DF704710B5074B03600446C0690AF0B1
:108D9000FDFC206A0AF0FAFC606A08B10AF0F6FCF1
:108DA000204610BDD0D6030010B5094B0360044621
:108DB000C0690AF0EBFC206A0AF0E8FC606A08B1BE
:108DC0000AF0E4FC20460DF017FF204610BD00BF5E
:108DD000D0D60300F8B50446818000250121144F48
:108DE000217417261B2021732760E680608125816E
:108DF0001068C4F81300908896796676A4F8170076
:108E0000D2796273194618469DF8186009F060FE21
:108E10003146E061304609F05BFEC4E90A554FF681
:108E2000FF73206265746562A574E3812046F8BD16
:108E3000D0D60300007C7047407C7047407B704771
:108E4000C0887047008970472DE9F04186B004ACB6
:108E5000868890460F4620464FF4285100F09AFD30
:108E6000CDE900784FF6FF75012094E80C003146FB
:108E7000CDE90205024800F0E5F906B0BDE8F08151
:108E80002439002008B58088FFF776FFB0FA80F01B
:108E9000400908BD08B58088FFF76CFFB0FA80F084
:108EA000400908BD00B583B00B468DF804108088DA
:108EB0008DF8053001A9FFF75BFFB0FA80F040099B
:108EC00003B05DF804FB00BF08B56621C0690AF075
:108ED000B1FA003018BF012008BD00BFC2898188E7
:108EE000407B01F0DBBD00BF70B50B88113B96B035
:108EF0000C460546462B78D8DFE813F0850088003D
:108F000047008B007700770077007700A200B10060
:108F1000770077007700770077007700BD00C50005
:108F2000CB00D100770077007700770077007700DB
:108F30007700770077007700770077007700770079
:108F40007700770077007700770077007700D4000C
:108F50007700D700770077007700770077007700F9
:108F60007700770077007700770077007700770049
:108F70007700770077007700770077007700E700C9
:108F8000EE007700F400790002010BF0F5FA0128F9
:108F90004FF0500000F0DF8009F008FDE86220B3D8
:108FA0005022002111F0F5F94FF6FF737049EB8163
:108FB0006C7BEB6A0868097902936A46012C11718F
:108FC0004FF0000403F11C0103F1380300900691F7
:108FD0000793A888059418BF2246214602ABCDE925
:108FE0000344CDE90844FFF7BFFE16B070BD8B798E
:108FF000002BFAD1406AAB740028F6D01A46194605
:1090000009F098FDF1E700230374EEE74B89038133
:10901000EBE75022002102A811F0BBF902AA218A35
:10902000687B01F055FD034600287AD0002302A991
:1090300010AAA888FFF79AFEBDF81A30EB81D4E792
:109040000B7AC46A002B7BD00BF096FA01282046DD
:1090500000F0848009F0BCFC0023EB62C5E70B7ACA
:10906000112B64D1A86A0028BFD000231A461946E4
:1090700009F060FDB9E716A9002321F8503D80886A
:10908000FFF776FEB1E70B7A002BAED14B7A037374
:10909000ABE7002211468088FFF76CFEA5E70B893D
:1090A0004381A2E74B89C3809FE78B7A002B9CD03A
:1090B000002600231A461946286A09F03BFD0136AE
:1090C000A37AF6B2B342F4D88FE700231A461946C2
:1090D0008088FFF753FE88E7406A0123AB740028BD
:1090E000C3D182E7417B234801F0F6FAE18881424F
:1090F00028BF014689B2E980A888FFF741FE74E7DE
:109100008B79002B3FF471AF002600231A461946D5
:10911000E86909F00FFD0136A379F6B2B342F4D83D
:1091200063E7A8881A461946FFF720FE5DE7C28963
:109130008188407B01F08AFD98B101236B7491E72F
:1091400001234374638AC38122468188407B01F0F6
:1091500093FCEC6A78E711F0D9F81FE711F0DEF81C
:109160007AE7034602460146A888FFF707FEE4E7D0
:10917000233C00202439002010B50446043001F0BF
:10918000DFFB034B236000232375204610BD00BF87
:109190000100FFFF017D01B1704710B504460430A6
:1091A00001F0D8FB0123237510BD00BF007D70477F
:1091B00010B50B88322B18D0332B0CD0302B00D0AD
:1091C00010BDCB88041D0BB94B89FBB92046BDE807
:1091D000104001F025BCCB88041D002BF6D14A8934
:1091E000002AF3D002EB420208E0CB88041D002BDA
:1091F000ECD14A89002AE9D002EB82025200023205
:1092000092B20A31204601F0F3FBDFE70A310A226D
:10921000204601F0EDFBD9E7A0DF704738B50446E2
:10922000F82500F5F87001F08BFB2A462046002156
:1092300011F0AFF82A466019002111F0AAF8204673
:1092400038BD00BF2DE9F04385B00546BDF83800B4
:10925000BDF83C40ADF80C006F461B48ADF80E4021
:1092600087E80C008846BDF8349001F03DFA05F51A
:10927000F875064604E03046FFF7E4FD09F07CFB94
:10928000284601F0B3FB04460028F4D1012128460A
:1092900001F060FB4A460C99284601F075FB3946FF
:1092A000404603AAFFF7B8FF38B94FF4FA712846D1
:1092B00001F070FB20EAE074A4B2284601F054FBF0
:1092C000204605B0BDE8F083243900202DE9F04F99
:1092D0008F880E8885B0884605463946824801F059
:1092E00003FAA6F11003012B814640F28B8095F81A
:1092F00054203AB3002404F11603502E55F823A04D
:1093000059D0512E1AD198F80630B8F808B0022B6F
:1093100043D0BBF1000F11D051466846FFF70EFA5B
:10932000BDF800305B4549D0514602A8FFF706FA68
:10933000BDF80C305B4541D095F854200134E4B2BF
:109340009442D8D395F84C31002B00F0C58005F538
:10935000A679002404E095F84C310134A34246DD9F
:1093600059F8040FFFF71EFCB842F4D1382E03D091
:10937000392E01D0362EEED1B8F80AA0BAF1000F7E
:10938000E9D0D9F800B05846FFF710FC5045E2D1BB
:1093900058464146FFF70CFCDDE798F80E30062BE7
:1093A000B7D1DAF800305046DB6841469847484666
:1093B000FFF742FDC0E7B8F806B0AAE7DAF80030D8
:1093C00050464146DB6898474846FFF735FD002880
:1093D000B2D0502EB0D1514602A8FFF7AFF9BDF878
:1093E0000C305B45A8D14846FFF778FDA4E7112E65
:1093F0002AD0352E03D1B8F80A30002B5DD105B044
:10940000BDE8F08F2B78002B3FF471AF112E4FF099
:1094100000040CD005EB84033946586803685B6888
:10942000984701342B78E4B2A342F3D85FE705EB09
:1094300084033946586803681B68984701342B78C1
:10944000E4B2A342F3D852E795F8F81069B10024CA
:1094500005EB8403621CD3F8FC008388BB4217D061
:10946000D4B28C42F4D395F84C31002BC7D00024F1
:1094700005EB8406D6F85001FFF794FBB84204F1DF
:1094800001030FD095F84C21DCB2A242F0D8B6E728
:1094900003681B689847013495F8F810E4B28C42D1
:1094A000D6D3E0E7D6F85001FFF778FB013495F802
:1094B0004C31E4B2A342DBD8A1E705F5F8752846A4
:1094C000B8F80C2008F1100101F092FA284605B016
:1094D000BDE8F04F01F0A4BA112E8AD195F8F8102A
:1094E0000029B4D18BE700BF2439002090F8543014
:1094F000282B0CD010B4024603F11604013380F877
:109500005430012042F824105DF8044B70470020CD
:10951000704700BF0378132B06D800EB830201339A
:1095200003700120516070470020704775DF70475D
:1095300078DF70477ADF7047054A034692E80300F8
:10954000002283E80300C3E902221846704700BFE7
:10955000D8D6030008B5FFF7EDFF08B1002008BD1D
:10956000FFF7E6FFB0FA80F0400908BDF8B5002427
:109570000B4F2546A1B2384601F0B6F80134064635
:1095800048B1FFF757FC30B13046FFF757FC0128D0
:1095900004BF0135EDB2142CECD12846F8BD00BF54
:1095A0002439002008B501804280FFF7C3FFB0FADC
:1095B00080F0400908BD00BF81607047C1607047FE
:1095C0000A88102A03D1CA7B012A0B4600D07047B3
:1095D00010B40A8A01884488914201D8A24205D970
:1095E00001465DF8044B9888FFF7A0BF5DF8044B77
:1095F000704700BF70B5224C224E234A05462DED20
:10960000028B314620460CF0A7FF2B8807EE903ADC
:10961000F8EEE77AB7EE048A67EE887A17EE900ADA
:1096200010F01CFB02460B46204618490CF094FF34
:109630006B8807EE903AF8EEE77A67EE887A17EED5
:10964000900A10F00BFB0B460246114920460CF025
:1096500083FF20460CF0FEFD314620460D4A0CF0FB
:109660007BFFEA880C4902EB8202204652000CF094
:1096700073FFBDEC028B2046BDE870400CF0EABDE4
:1096800064510020F0D60300E0D60300F8D60300B2
:1096900008D7030018D7030028D703008ADF7047D4
:1096A00030B403461F22012418628025828480F88A
:1096B0002D4000220B4C80F82E50C0E9112282620E
:1096C000C0F8464080F82C2080F82F20028680F8D1
:1096D00038204263C0E90F22C264A0F8502030BC99
:1096E000704700BFA00050002DE9F0478CB06F46D6
:1096F00038460C4687E80C0000F058F9C0B2102834
:109700002ED0019F07220623D4F818A094F81C80BD
:109710008DF80D208DF80C30C6084FF000091F227F
:10972000002104A810F035FEB8F1010F06D8B9F1F8
:10973000000F34D000200CB0BDE8F08703AB5146D9
:1097400013F809C043460A784878D443604502F1CB
:109750000105234407D013F0FF032944F3D1E6E7C2
:1097600003220223D0E7013A0231D5B2DFD02A46E4
:1097700004A810F0EAFD002DD9D004AC02E012F0EC
:10978000FF05D4D032462046394610F0CFFD344490
:10979000AA1B0028F3D101200CB0BDE8F0874FF0E0
:1097A0000109BCE7F0B50B888E88103B85B00C46EC
:1097B00005460D2B2CD8DFE803F070072B2B2B2B45
:1097C0002B2B2B2B2B5B2B2D836AF340DB071FD519
:1097D0005048FEF7D7FCD8B9AB6A95F82C20012485
:1097E00004FA06F623EA0606AE628AB995F82D3029
:1097F00073B11F232D62AB8405F1200105F14400F4
:10980000FFF74CFF20B9444800F086FF85F82C4054
:1098100005B0F0BD90F92E2091F91B309A4220DC62
:1098200090F8383001F108079BB1002602E0D6B26B
:10983000B3420CD96B6B03EBC6030CCB39462846FD
:10984000FFF752FF721C95F838300028EFD09E4287
:1098500007D095F82F30002B38D094F82430012B06
:1098600041D805F120010020FFF718FF05B0F0BD39
:109870000B7A012BCCD1002480F82C40264800F034
:109880005FFF2A6C002AC3D004AB0094214643F842
:10989000044D20460BF0EAFFBAE7CB7B022BB7D191
:1098A0000122836A02FA06F633430022836280F8BB
:1098B0002C20ADE70139CCB2911CD2D0022C20D99A
:1098C0005388ADF80C302A8E9A42CAD1EA6B002A2E
:1098D0009ED004AB012143F8047D38460091242139
:1098E0000BF0C4FF94E7226A11785078CC43FF282C
:1098F00001F101062344DDD013F0FF033244F3D11C
:10990000AFE7224603A810F020FD002CA9D0BDF837
:109910000C30D8E7E43B002024390020A8DF704752
:10992000704700BF30B500F1080483B005462046FB
:1099300000F04AF821460DF106020120FFF7EEFF84
:10994000044628B9044B05481D602946FFF7E2FD8F
:10995000204603B030BD00BF20390020243900204C
:1099600030B482B06C4684E806000346064943F8EA
:10997000081B054694E80300002183E805002846FB
:10998000A98002B030BC704738D7030062DF70474F
:1099900063DF7047012200230180827043607047BB
:1099A0000023416083700380704700BF8378012BE0
:1099B00008D042680AB180207047012B8CBF8020FC
:1099C000002070471020704708B5837863B943685A
:1099D00053B10246911C1846FFF7D8FF102051687A
:1099E000BDE80840FFF7D4BF002008BD00680B6841
:1099F00020F07F4023F07F43C01AB0FA80F0400986
:109A0000704700BF4DDF70474EDF70474FDF704734
:109A10004BDF704710DF70476DDF70477CDF7047AA
:109A20007DDF704760DF704769DF704761DF704737
:109A300066DF704767DF7047704700BF04200CF097
:109A4000B5B900BF30B52C4C2C4D83B04FF0FF3171
:109A5000D4F8080309F0EEFC0028F7D06DB301A894
:109A6000FFF7D6FF05280346F0D00028F7D1019A6A
:109A7000911E10460929F2D80FF2040C5CF821F06F
:109A8000EB9A0200EB9A02005F9A02005F9A0200D2
:109A90005F9A02005F9A02005F9A0200D59A020064
:109AA000D59A0200D59A02000A2B04D0092B21D0A6
:109AB0000B2B02D1012008F0DBFB01A8FFF7A8FF68
:109AC0000528C3D00028F8D1019BA3F10902022A7E
:109AD000F3D8E9E70A2A04D0092A09D00B2ABED113
:109AE0000123184608F0C4FBB9E707F0D9FBB6E735
:109AF0000223F6E70220DEE724390020A11203004A
:109B000070B5A4498EB00446A3480CF0ABFBA34A41
:109B1000A349A1480CF020FD94F8ED129E480A22BA
:109B20000CF0B8FB9F4A9E499B480CF015FDD4F8F9
:109B3000E81299480A220CF0D7FC9B4A98499648AB
:109B40000CF00AFD94F8EC1293480A220CF0A2FBE8
:109B500094F8FC32002B7AD194F8FD32002B40F0BF
:109B6000BB8092498C480CF07DFB06AD904A8C4935
:109B7000894820260CF0F0FC32460021284610F0DF
:109B800008FC0EA9284621F82A6DFFF749FF29464F
:109B900081480CF0E1FC80480CF05CFB854A804970
:109BA0007D480CF0D9FC94F8FC2283497A480CF0EB
:109BB000D3FC94F8FD22814977480CF0CDFC76481F
:109BC0000CF048FB7E4A764973480CF0C5FC7D4B8F
:109BD0000FCB85E80F0004A8FFF71EFF00230093BA
:109BE00006223A230DF111016B480CF0D1FC9DF8CF
:109BF0001030754968480EAA5B0802EB830353F8DE
:109C0000202C0CF0A9FC64480CF024FB6F4A64493A
:109C100061480CF0A1FC94F9FE226D495E480CF0FD
:109C20009BFC5D480CF016FB04F52C70FFF7E2FC82
:109C300094F8FC32002B40F0A08094F8FD32002B09
:109C400040F08B8054480CF005FB0EB070BD6149AC
:109C500051480CF007FB60494F480CF04BFA5F4A43
:109C60004F494D480CF078FC0A22B4F8EE124A48ED
:109C70000CF04AFB584948480CF03CFA584A48490D
:109C800045480CF069FC0A22B4F8F01242480CF086
:109C90003BFB514940480CF02DFA524A40493E489E
:109CA0000CF05AFC0A2294F8F2123B480CF0F2FA3B
:109CB000494939480CF01EFA4B4A394936480CF0EC
:109CC0004BFC0A2294F8F31233480CF0E3FA94F8B0
:109CD000FD32002B3FF445AF44492F480CF0C2FA47
:109CE0003D492D480CF006FA3C4A2D492A480CF013
:109CF00033FC0A22B4F8F41227480CF005FB36496D
:109D000025480CF0F7F9364A254923480CF024FC85
:109D10000A22B4F8F61220480CF0F6FA2E491E4832
:109D20000CF0E8F92F4A1E491B480CF015FC0A22DA
:109D300094F8F81218480CF0ADFA274916480CF0C0
:109D4000D9F9294A164914480CF006FC0A2294F85D
:109D5000F91211480CF09EFA03E7254A10490E4803
:109D60000CF0FAFB0C480CF075FA022000F0E0FE53
:109D700009480CF06FFA0EB070BD1E4A084906483B
:109D80000CF0EAFB04480CF065FA012000F0D0FE6C
:109D900053E700BF80D7030064510020A8D7030019
:109DA000F0D60300B4D70300C4D703004CD8030097
:109DB00070D8030078D8030088D803009CD803002B
:109DC000ACD8030044D70300B4D80300BCD80300C8
:109DD000C8D80300D4D70300F0D70300F8D7030096
:109DE00000D8030010D8030020D8030034D80300A3
:109DF000ECD80300D0D803002DE9F04F89B00AF069
:109E0000BBFB01284FF4FA7000F0848108F0CEFD0E
:109E10000646B34C06F1080304F5587704F5007ABA
:109E200003934FF0FF31D4F8040309F003FB00283B
:109E3000F7D04FF4FA730DF116013046ADF8163035
:109E4000FFF7F4FD10B10528EBD0F2E7B6F8049067
:109E5000B9F1130F00F2208104EB8903D3F81453F6
:109E60001DB131462846FFF73FF83388013B1B2BD5
:109E70005BD8DFE813F0A3005A005A005A005A00DA
:109E80005A005A005A005A005A005A005A005A0002
:109E90005A005A00A8001C005A005A005A005A00E2
:109EA0005A005A005A005A005A005A00FE00DFF8C1
:109EB00044824FF0000B58F8043F184633B1FEF7C8
:109EC000B9FF18B10BF1010B5FFA8BFB4745F2D1DB
:109ED000BBF1000F06D194F810331BB15946042092
:109EE0000BF026FF2846FEF7A9FF012800F0F180BD
:109EF000D4F8CC2262B10223CDF81890002196F854
:109F000008C00093084606ABCDF81CC00BF0AEFCB1
:109F100009F1C40804EB8803586810B103685B6852
:109F2000984704EB880300225A6031465046FEF7FA
:109F30009FF831466B48FFF735FCB4F812334B45B8
:109F4000338800F0AB80102B1ED02DB32846FEF7CF
:109F500075FF012803D131466348FFF731FB2846DE
:109F6000FEF76CFF02281BD06048FFF71FF900BB0B
:109F700031465B48FFF7AAF9D4F86833002B3FF469
:109F800058AF3046984754E7F37B012BDDD1B388B7
:109F9000A4F81233002DD9D131465348FFF710FBF6
:109FA00053483146FEF70AF95048FFF7FFF80028FA
:109FB000DED031464D48FFF7FBF8D9E7002148468F
:109FC000FFF736FDB1E74FF00008D4F80C03CDF8E9
:109FD0000080434642460321464D0AF0AFFD55F846
:109FE000043F184633B1FEF725FF18B108F1010808
:109FF0005FFA88F8BD42F2D194F81033002B58D1A3
:10A0000009F1C40804EB8805686820B103685B683F
:10A01000984700236B60F37B012B0BBF94F8F3325E
:10A0200094F8F93294F8F2B294F8F8B2029330202E
:10A030000CF0D2FD029B0093039A5B46494605460D
:10A04000FEF7C8FE04EB880328465D60FEF7F6FEC7
:10A05000012851D0D4F8C822002A3FF466AF01236A
:10A0600000210093084606ABCDF818900BF0FEFBDC
:10A070005BE7D4F86423002A3FF457AFCDF818907B
:10A080000223002196F908C00093084606ABCDF8DC
:10A090001CC00BF0EBFB48E70546E6E6102B3FF44F
:10A0A00073AF112B7FF451AF4FF6FF73A4F8123347
:10A0B0004BE718F1000118BF012104200BF038FE16
:10A0C00094F81033002B9BD0012104200BF030FEBC
:10A0D00096E7D4F8BC22002A7FF40DAF18E700BF42
:10A0E00024390020803B0020D43B0020F43B00209A
:10A0F000E43B0020343C0020D4F8B822002A3FF48E
:10A1000014AF0021009006AB0846CDF818900BF074
:10A11000ADFB0AE710F0FAF806467AE638B50446D1
:10A12000FFF77CF804F50070FDF7C6FE04F50F702C
:10A13000FDF7E6FD04F51770FFF7B2FA04F52C7091
:10A14000FFF7FAF904F53070FEF708F804F53470FB
:10A15000FFF712F84FF400630025C4F8E8322248F4
:10A160002249234AC4F8EC0240F20113C4F8F01269
:10A17000C4F8F422A4F8F832A4F8FA52A4F8FC5275
:10A18000294604F54570502210F003F9C4F8FF5237
:10A1900094F8FF3294F80223C4F80453032143F0E7
:10A1A000010361F306130A4301204FF6FF71C4F85F
:10A1B0000853C4F80C5384F8FE52C4F86853C4F82A
:10A1C000645384F8100307251020A4F81213032108
:10A1D00084F8010384F8FF3284F8005384F80223E2
:10A1E00084F80313204638BD010A1700030001015B
:10A1F0001700030004290DD8DFE801F02017200D17
:10A200000300134BC0F8EE320322012380F8F22240
:10A2100080F8F33270470F4BC0F8EE320222012370
:10A2200080F8F22280F8F33270470B4BC0F8EE3220
:10A23000012380F8F23280F8F3327047074BC0F800
:10A24000EE32012380F8F23280F8F332704700BF1B
:10A25000F7006400800006001700020017000300EA
:10A26000F0B580F8FC128DB080F8FD22B84E04469F
:10A270000AF086FE0AF08CFE0AF056FE0CA833693E
:10A2800040F8243DB349FFF7C5FB18B10025284627
:10A290000DB0F0BD03460120FFF7B6FB0120FFF72C
:10A2A000B1FB0120FFF7B2FBAB4994F8ED520491EA
:10A2B0000A46012009A90993CDE90A338DF82450F3
:10A2C000FFF7B2FB0028E1D194F8FD320B90CDE905
:10A2D0000900181C18BF012094F8FC528DF82700C3
:10A2E000049A8DF8263009A940208DF82550FFF7F3
:10A2F0009BFB0028CAD194F8EC120990034661F345
:10A300000003CDE90A00049A8DF8243009A9A020A1
:10A31000FFF78AFB0028B9D1D4F8E8320A900B90F5
:10A32000049A099309A9A120FFF77EFB0028ADD16B
:10A3300094F8FC32002B40F0BC8094F8FD32002BE6
:10A3400048D000230225B4F8F472049A099309A9AD
:10A350002320CDE90A338DF82450ADF82670FFF79D
:10A3600063FB002892D1CDE9090094F8FD72B4F89E
:10A37000F6320B90049A8DF8245009A920208DF80C
:10A380002670ADF82830FFF74FFB00287FF47EAF32
:10A39000099094F8F832049A8DF82450CDE90A0017
:10A3A00009A922208DF82630FFF73EFB00287FF414
:10A3B0006DAFCDE909000B9094F8F932049A8DF84D
:10A3C000245009A921208DF82630FFF72DFB002805
:10A3D0007FF45CAF04A8FFF725FB00287FF456AF9D
:10A3E000C3B2CDE9070043F0010307A902208DF8AD
:10A3F0001C30FFF71FFB00287FF448AF04F52C70DA
:10A40000FFF7A8F8054600283FF440AF0CA8337DBD
:10A4100000F8283D0B225149FFF700FB00287FF48C
:10A4200035AF0120FFF7F0FA0120FFF7EBFA01202A
:10A43000FFF7ECFA94F8FD32002B40F08480032201
:10A440000021012008F002FBC4F8040300283FF4B7
:10A450001DAF05AB0326CDE900634FF4A0620023D6
:10A460003F49404809F02AFB32460021012008F00C
:10A47000EDFAC4F8080300283FF408AF06ABCDE9B5
:10A480000063C82200233849384809F017FB3849CF
:10A49000384A00234FF480000860009218460122D9
:10A4A0004FF480710AF0F2FAC4F80C0300F0C4FA19
:10A4B000EDE609900123B4F8EE52049A8DF82430A9
:10A4C000CDE90A0009A92320ADF82650FFF7ACFA20
:10A4D00000287FF4DBAECDE9090094F8FC72B4F8F3
:10A4E000F0520B90049A8DF8243009A920208DF8A1
:10A4F0002670ADF82850FFF797FA00287FF4C6AE13
:10A50000099094F8F252049A8DF82430CDE90A00AB
:10A5100009A922208DF82650FFF786FA00287FF43B
:10A52000B5AECDE9090094F8F3520B90049A8DF87A
:10A53000243009A921208DF82650FFF775FA00284C
:10A540003FF4FBAEA2E604F53070FDF715FE76E7AA
:10A5500044D70300399A0200003400206CD703006E
:10A5600078D70300F99D02007CD70300459A0200CA
:10A5700000E100E03D9A020030B5084B83B002AC28
:10A580001B7D04F8043D08460D4610F0F7FD2946F2
:10A5900082B22046FFF742FA03B030BD44D7030031
:10A5A00000B583B002AB084623F8022D1946FFF729
:10A5B00037FA20B99DF8060003B05DF804FB0020CF
:10A5C00003B05DF804FB00BF70B4254B0C46064693
:10A5D0000FCB85B06D4607C59DF900202B80A242A8
:10A5E00037D09DF90130A34233D09DF90230A34208
:10A5F0002FD09DF90330A3422BD09DF90430A34204
:10A6000027D09DF90530A34223D09DF90630A342FF
:10A610001FD09DF90730A3421BD09DF90830A342FB
:10A6200017D09DF90930A34213D09DF90A30A342F7
:10A630000FD09DF90B30A3420BD09DF90C30A342F3
:10A6400007D09DF90D30A34203D0002005B070BCA7
:10A650007047012086F8FE4205B070BC704700BF0D
:10A660005CD7030090F9FE02704700BF80F810131A
:10A67000704700BF70B5054682B0D0F80C030C4699
:10A680000AF088FA0B4AA402A2FB04320023064611
:10A690009209D5F80C03009304210AF04FFA3EB951
:10A6A000D5F80C0300963346324603210AF046FAE9
:10A6B00002B070BDD34D6210132906D800EB8100A3
:10A6C000D0F8140308B1FEF7B5BB0020704700BFF7
:10A6D000B0F81203704700BF01290CBFB0F8EE02BA
:10A6E000B0F8F402704700BF13299ABF00EB810055
:10A6F000D0F814030020704710B5064C0021D4F8A0
:10A70000080308F0D9FCD4F804030021BDE8104088
:10A7100008F0D2BC2439002090F8103303B97047F8
:10A7200010B582B0D0F80C4309F0A8FB0023024614
:10A730000093204601210AF001FA02B010BD00BFCB
:10A74000F0B583B0002507462B46D0F80C030095E2
:10A750002A4603210AF0F2F907F5447407F5587602
:10A7600054F8041F084621B1FEF764FB08B1013517
:10A77000EDB2B442F4D197F810330BB903B0F0BD89
:10A78000291C18BF0121042003B0BDE8F0400BF0E4
:10A79000CFBA00BF90F8103313B104200BF0C8BA41
:10A7A000704700BF10B5044606480BF059FC38B19D
:10A7B000D4F8043323B12046BDE81040FFF7A0B918
:10A7C00010BD00BF645100200148FFF7A7BC00BFC7
:10A7D000243900200020704770B582B06D460446D1
:10A7E00041F60A012846FFF7D5F895E8060020460D
:10A7F000FFF7B6F820460F4B40F8103B242200210B
:10A800000FF0C7FD0C4E0D480D4960620023A36395
:10A81000636384F83C301A250622132320466661C0
:10A8200084F8355084F83920A16284F83A3002B0B7
:10A8300070BD00BF80D9030040D903005CD903007C
:10A8400064D90300416180F835207047016280F8C7
:10A8500038207047416280F839207047816280F863
:10A860003A2070472DE9F04395B00646FFF75AF8B5
:10A870008146002847D1B369002B51D0F369002BE2
:10A8800045D006F13405C5F5285808F1230806F12E
:10A890000C0406F1300754F8043F02A86BB3FDF72F
:10A8A000A3FE336B2268E9469A4208EB050189B2A0
:10A8B000484608BF42F65021FFF76CF899E80600B9
:10A8C00002A8FDF7FFFE02A8FDF70AFF022102A879
:10A8D000FDF70AFF297802A8FDF70AFF02A8FDF795
:10A8E00099FC814602A8B9F1000F22D12A7821688B
:10A8F000FDF72AFF02A8FDF785FCBC4205F1010522
:10A90000C9D14FF00009484615B0BDE8F0830BF0FF
:10A910003BF8044610F032FCF46186F83700B0E7EB
:10A920000BF072F8044610F029FCB46186F836008A
:10A93000A4E7FDF767FC484615B0BDE8F08300BF0B
:10A940000022012142700170C0E90122C28182818E
:10A95000704700BF017001B1704710B504460A206E
:10A9600008F0B6F8606010BD037810B5044613B95E
:10A97000406808F00BFF002301226370C4E9013333
:10A98000E381A381227010BD002381608281C38195
:10A99000704700BF037870B504460D46B3B94068F0
:10A9A0001149AD02A1FB053101238909637008F04B
:10A9B00041FDB0B94FF0FF352378002666701BB11A
:10A9C000606808F0E3FE6660284670BD032200213F
:10A9D000012008F03BF860600028E1D14FF0FF351E
:10A9E000F2E7E589ADB2E7E7D34D621040787047F2
:10A9F00070B58689964204463546806828BF15465C
:10AA000021B12A460FF0A1FCA068A689E3892B4456
:10AA10002844761B9BB2A060A681E381284670BDC6
:10AA2000406820B100231A46194608F083B87047E1
:10AA3000B1DF7047B2DF704708B50C4806F0BCFACA
:10AA40000B490A4800F000FF58B10A49074800F0D6
:10AA5000FBFE00B108BD07490448BDE8084000F00E
:10AA6000FFBE0349014800F0FBFEEEE7A43C0020D6
:10AA7000DCD90300F0D9030010B586B00323CDE97B
:10AA8000030114460093104603AB034A059450217A
:10AA90000AF0ECFE06B010BD31AD02004FF6FF73B8
:10AAA0009A4211D070B586B00D46032300210646A8
:10AAB00014460093084603AB044A0396CDE90454B8
:10AAC0000AF0D4FE06B070BD002070472DAE020023
:10AAD00030B5144B144CA1B015460A4601280CBFE2
:10AAE00021461946684610F0E9FA694607A80F4B57
:10AAF000002200F0C5FF07A801F0BEF918B9002434
:10AB0000204621B030BD044607A800F019FF5028A8
:10AB1000F5D10246294607A801F042F907A801F03D
:10AB200073F9EDE7C0D90300A4D90300A43C0020C9
:10AB30002DE9F041414A4249424BDFF80C81CCB04B
:10AB400000AF012818BF11460022381D00F098FF01
:10AB500007F168003B4900F081FF03E007F168005E
:10AB600001F052F90022391D07F1CC0001F08EF9F5
:10AB7000D7E93420D7E93943D7F8DC50D7F8D86083
:10AB800097F8E0C0FA663867412207F1EC0107F157
:10AB90008800C7E91D6587F87CC0C7E920430FF02E
:10ABA000D4FB07F1680001F067F9C0B307F1680052
:10ABB00001F06AF90028D1D107F1680000F0C0FE69
:10ABC000041E07F16800C9DD01F00AF9211807F138
:10ABD000680001F0F5F807F1680000F0B1FE021E10
:10ABE00002F107036C4623F0070392B207F16800F5
:10ABF000B4DDADEB030D694601F0D2F807F1680052
:10AC000001F040F9054607F1680001F0F3F86A46E3
:10AC100003462946404610F015FAA5469EE70A204D
:10AC200010F028FA07F1680001F0EEF8381D01F085
:10AC3000EBF807F59877BD46BDE8F081F0D9030041
:10AC4000DCD90300A43C00208CD903002DE9F0419D
:10AC50004FF6FF73A0B09A4200AF5CD0314B0C4668
:10AC60003149012818BF1946384610F027FA3946ED
:10AC700007F11C002D4B002200F002FF07F11C0021
:10AC80006D4601F0F9F850B9002407F11C0001F0FD
:10AC9000BBF82046AD468037BD46BDE8F08107F1E0
:10ACA0001C0000F04DFE061E08DD07F11C0001F03F
:10ACB00097F8311807F11C0001F082F807F11C0029
:10ACC00000F03EFE061E08DD07F11C0001F088F8CA
:10ACD000311807F11C0001F073F807F11C0000F0B7
:10ACE0002FFE0028D0DDC31D23F0070386B2E846FF
:10ACF000ADEB030D6946324607F11C0001F050F838
:10AD00002046694632460323FFF792FEB0FA80F4EC
:10AD10006409C546B9E7002420468037BD46BDE832
:10AD2000F08100BFC0D90300A4D90300A43C0020D7
:10AD3000F0B51446ADB0012804AF0E4607BF528AE5
:10AD400035493649E28D384610F0B8F9394634486D
:10AD50006D4600F079FD78B9394607F13C00304B7B
:10AD6000012200F08DFE07F13C0001F085F840B9AA
:10AD7000A437AD46BD46F0BD3946294800F0BCFDBC
:10AD8000EAE7502107F13C0000F00CFE502221467A
:10AD900007F13C0000F0B8FD2022002107F11C0063
:10ADA0000FF0F7FA31461F48FFF79EFC07F11C0130
:10ADB0002022FEF749F83B7FA3B994F8491094F894
:10ADC0004D3094F84E20039194F84A10029194F873
:10ADD0004B10019194F84C10009107F11C0012499E
:10ADE00010F06CF907F11C0010F0C8F9013084B2C2
:10ADF000E1B207F13C0000F0D5FD07F11C0122464D
:10AE000007F13C0000F080FD07F13C0000F0FCFF82
:10AE1000A437AD46BD46F0BDA4D90300C0D9030098
:10AE2000A43C00202439002004DA03002DE9F0437B
:10AE3000A3B000AF07F18804002324F8823D0D463B
:10AE4000804619469146032322462846FFF7F2FD25
:10AE5000FB886E4623B9B5468C37BD46BDE8F08306
:10AE60000733DB08A6EBC3039D4622462846694606
:10AE70000323FFF7DFFD6D4604460028EBD1274B87
:10AE800027494A46B8F1010F18BF194607F10800D3
:10AE900010F014F907F1080107F12400214B0122F9
:10AEA00000F0EEFD07F1240000F0E6FF0028D2D00C
:10AEB000214607F1240000F083FF07F1240000F091
:10AEC0003FFD041E08DD07F1240000F089FF211872
:10AED00007F1240000F074FF07F1240000F030FDBA
:10AEE000041E08DD07F1240000F07AFF211807F1A5
:10AEF000240000F065FFFC8807F12400E1B200F0B7
:10AF000051FD2246294607F1240000F0FDFC07F11F
:10AF1000240000F079FFB5469EE700BFC0D90300CA
:10AF2000A4D90300A43C0020437C03B1704730B592
:10AF3000012285B042740321FF22019304468DF85B
:10AF400003208DF806208DF80510827B417B8DF85B
:10AF500000204FF080451A4602958DF80110057BC0
:10AF6000C3736946037403938DF802500AF08CF89A
:10AF7000A37B1F2B86BF03F01F030C4A4FF0A04298
:10AF800003F5E07340F2013142F82310637B1F2B7D
:10AF900086BF03F01F0305494FF0A04103F5E0739E
:10AFA00040F2033241F8232005B030BD00030050C9
:10AFB00010B586B006AB012403F8111D002202A9CA
:10AFC0000293CDE9034305940AF0A4F99DF8070024
:10AFD00006B010BD094A0A4B30B4D2E91910146EFC
:10AFE0001C7300220124074D1C7198735973DA7386
:10AFF0001A741D605A749A6030BC704764DD030097
:10B00000903C002000F0024010B504460170084654
:10B0100001210AF05FFE207801210AF089FE042355
:10B0200063700248FFF780FF204610BD903C00206F
:10B0300010B50021044600780AF07AFE2021044869
:10B04000FFF7B6FF20780121BDE810400AF070BE7E
:10B05000903C002010B50021044600780AF068FEFC
:10B0600030210448FFF7A4FF20780121BDE81040FB
:10B070000AF05EBE903C0020F8B5002144780746F7
:10B0800000780AF055FE60210E48FFF791FF8CB161
:10B090000C4E002500213046FFF78AFF631E13F097
:10B0A000FF0440EA0525F5D1387801210AF040FE79
:10B0B0002846F8BD3878254601210AF039FE284691
:10B0C000F8BD00BF903C002070B50A4D04460E4606
:10B0D000007800210AF02CFE28468821FFF768FF3F
:10B0E00031462846FFF764FF20780121BDE8704013
:10B0F0000AF01EBE903C002070B50C4E05460C4672
:10B10000007800210AF014FE90213046FFF750FF2E
:10B110002146304604F00304FFF74AFFC4F104045B
:10B12000287801210AF004FE6C7070BD903C00206C
:10B13000F8B504460D46007800210AF0F9FD982183
:10B140000D48FFF735FF617879B10B4E00270139C3
:10B15000C91BC90025FA01F1C9B23046FFF728FF23
:10B1600001376178FFB2B942F1D820780121BDE8FA
:10B17000F8400AF0DDBD00BF903C002070B50446E9
:10B18000C3F38100C3F38116FF2B0D466073C3F335
:10B19000011103F00300A0738CBF002301238E4232
:10B1A00014BF0420032015FB00F080B2237000239D
:10B1B000E6732173A0806370E37123610121164659
:10B1C0000FF03EF8A06020B9A671C4F80200204636
:10B1D00070BDA6716580204670BD00BF10B50446E5
:10B1E00080680FF09BF894F90600002802DB00212C
:10B1F0000AF070FD204610BD10B5044690F9060017
:10B20000002807DB01210AF065FD002194F9060002
:10B210000AF08EFD0123637010BD00BF8368002B10
:10B2200000F0DE802DE9F04F824693B007F098FBE6
:10B23000DAF81030C31AB3F5967FF7D37E4BBAF81D
:10B2400004400FCB12AD05E90F00DDF838B0DBF894
:10B25000003543B9DBF86035002B04DADBF86435E0
:10B26000002BC0F2BE80DDF83CB0DBF8003543B9FE
:10B27000DBF86035002B04DADBF86435002BC0F214
:10B28000BB81DDF840B0DBF8003543B9DBF8603551
:10B29000002B04DADBF86435002BC0F2B881DDF84E
:10B2A00044B0DBF8003543B9DBF86035002B04DA35
:10B2B000DBF86435002BC0F2B58109F0B7FC5F4BB9
:10B2C0009AF9062053F822301F2B76D8012202FA71
:10B2D00003FB4FF0A0465A495A4CCB689AF800003D
:10B2E000594A43F08073CB602368002843F0010380
:10B2F00023600CBF4FF4C3634FF43073039342F0E9
:10B30000010304930BBF4FF01A084FF012084627B1
:10B3100029270CBF9C254725CDF808A05346B3F834
:10B3200004A0D3F808E063680193BAF1000F4AD093
:10B330000AF1FF391FFA89F909F10109F1440022E4
:10B340001EF801CB0820802163689B1AAB42FBD317
:10B350006268D6F808351CEA010F43EA0B03C6F809
:10B36000083521D063689B1ABB42FBD3D6F80C3555
:10B37000013843EA0B034FEA5101C6F80C35E3D11B
:10B38000CE45DDD1039B03FB0AFA63689B1AAB42EF
:10B39000FBD36368019A9B1A534516D3049B4FF461
:10B3A00096409847029BBAE763689B1A4345DDD2F3
:10B3B00063689B1A4345F7D3D8E7203B012202FA82
:10B3C00003FB224E87E75246DFE7DDF808A009F0CD
:10B3D00037FC07F0C5FACAF8100013B0BDE8F08FCB
:10B3E0007047DBF86835002BBFF63DAFDBF86C35F6
:10B3F000002BBFF638AF2401231D029309F0BCF8DF
:10B40000012800F07181029807F0D0FA0546002D5E
:10B410003FF453AFBAF804309AF800200392002B9F
:10B4200000F07081DAF80830049300230826CDF884
:10B4300034B001935BE000BF24DA030064DD030055
:10B44000F0ED00E0001000E040DA030000030050DF
:10B4500048F2130848F2080912F0800F14BF47465B
:10B460004F4612F0400F14BF44464C46069B25F849
:10B47000107012F0200F14BFC446CC4625F81140BE
:10B4800012F0100F25F813C0079B089C14BFC64686
:10B49000CE4625F813E012F0080F059B14BF47466F
:10B4A0004F4612F0040F25F8137014BF4146494669
:10B4B000099B25F8141012F0020F14BF40464846AD
:10B4C00025F8130012F0010F0A9B0CBF4A464246B2
:10B4D00025F81320019BBAF8041001339BB206F142
:10B4E00008029942019392B240F2A7801646A6F153
:10B4F000060E1FFA8EF3F41EA4B2B01E721E06933F
:10B50000019B089480B292B2B41E371F1FFA84FBCD
:10B51000BFB2A6F1050C09900A92701EDA001FFA5C
:10B520008CFC0597CDF830B0F71E1FFA80FB039C0A
:10B53000CDF81CC090B2049AF046F11FA6F107099D
:10B54000A6F1050EA6F1040CBFB289B21FFA89F963
:10B550001FFA88F81FFA8EFE1FFA8CFC0B97D25C3C
:10B56000002C3FF475AF48F2060712F0800F48F246
:10B570000D030CBF3C461C4612F0400F0CBF394671
:10B58000194612F0200F08BF3B46059312F0100F2A
:10B5900048F20D0318BF1F46069712F0080F48F235
:10B5A000060725F8104014BF1C463C4612F0040F55
:10B5B00025F819109946394618BF1946BDF81430B8
:10B5C00025F81830BDF8183025F81E300B9B25F8EB
:10B5D0001C4012F0020F384625F813100CBF3846F5
:10B5E00048460C9B12F0010F14BF4A463A4625F814
:10B5F000130025F81B206DE7DBF86835002BBFF63C
:10B6000040AEDBF86C35002BBFF63BAEF3E6DBF863
:10B610006835002BBFF643AEDBF86C35002BBFF668
:10B620003EAEE8E6DBF86835002BBFF646AEDBF849
:10B630006C35002BBFF641AEDDE6721C92B2DDF830
:10B6400034B0520005EB46034FF400401880039BD2
:10B65000A8520021CBF80415CBF80C15002B3FD1D4
:10B660002823CBF80835029B5A080023CBF8143561
:10B67000CBF81035CBF82055CBF82425CBF828355E
:10B68000CBF82C359AF90610204A52F82120CBF835
:10B6900060250122CBF80025CBF81031CBF808202B
:10B6A000DBF810312BB90BF0D1FADBF81031002B9D
:10B6B000F9D000234FF0FF32CBF81031CBF8003532
:10B6C000CBF8602508F058FF0128284611D007F074
:10B6D0007FF907F045F9CAF8100013B0BDE8F08F04
:10B6E0001423CBF80835BEE702980EF00FFE05468E
:10B6F0008DE60EF013FE07F033F9CAF8100013B010
:10B70000BDE8F08F2B4602229EE700BF64DD0300F8
:10B71000F0B444889DF810608C4219D9C47944B1C2
:10B7200012FB04F214FB03F314FB06F4120A1B0AC7
:10B73000260AC57B077B8468AF420BD004EB8101EE
:10B7400000244C55057B4A55427B8B54837BCE5459
:10B75000F0BC704701EB41012144F4E770B4C379B8
:10B760004E1CF6B2B3421AD0013B13F0FF038568BA
:10B7700017D0FF2917D03102013991FBF3F189B2BB
:10B7800083885BB12A46137801FB03F31B1202F88E
:10B79000013B531B84889BB29C42F4D8C67170BC99
:10B7A00070471946ECE74FF6FF7191FBF3F1E7E7BD
:10B7B000704700BF10B504460BF01EFA204610BDBE
:10B7C00038B5074B04460D4640F80C3B4422002197
:10B7D0000EF0DFFD0023A5602371204638BD00BFB9
:10B7E00050DA030038B504794CB9054649B1816097
:10B7F00005F10C0003F0CAFC08B901242C712046A5
:10B8000038BD81680029F3D1204638BD38B50379A9
:10B81000044600F10C051BB1284603F0B9FD40B900
:10B82000A168284604F02CFD18B923791BB9012022
:10B8300038BD002038BDA168284603F0A7FCB0FA47
:10B8400080F0400938BD00BF00B595B001AA0C30AA
:10B8500003F056FCB0FA80F0400915B05DF804FB27
:10B860002DE9F84F0B7880462F2B00AF0E460CBF0A
:10B87000481C084608F10C084FF0000918E0ADEB31
:10B88000030D8D42EB468DF800900DF1010001DDB6
:10B890000EF07FFD31462A4658460EF056FD5946B9
:10B8A000404604F0B9FF08B1113020D1601CD546E4
:10B8B0002F210FF032FC851B05F10803044623F00D
:10B8C0000703EA462A4600210028D8D131464046DF
:10B8D00004F0A2FF18B90120BD46BDE8F88F10F1B1
:10B8E000110F14BF00200120BD46BDE8F88F0020D5
:10B8F000D546BD46BDE8F88F08B50C3005F0AAF96D
:10B90000B0FA80F0400908BD037D0BB100207047FC
:10B9100010B5046913460A46816904F10C0002F06F
:10B92000D7FC002800DD10BD002010BD037D03B151
:10B9300070470369816903F10C0005F081B800BF0D
:10B94000037DA3B900B50369816983B003F10C00DD
:10B950000DF10702012303F025FB002804DD9DF80B
:10B96000070003B05DF804FB4FF0FF30F9E74FF03C
:10B97000FF30704738B5037D13B10025284638BD28
:10B9800004460069A1690C3003F0B0FB237D054635
:10B99000002BF3D12069A1690C3003F0A5FB2D1A0F
:10B9A000284638BD10B582B0027D8DF8071012B15F
:10B9B000002002B010BD01680A4A4C689442034658
:10B9C0000AD1006999690C3001230DF1070202F0D8
:10B9D0007FFC0028EDDCEBE701220DF10701A04719
:10B9E000E7E700BF09B9020030B5037D83B0002B43
:10B9F0002FD10368184A1B699342044626D1006977
:10BA0000A1690C3001230DF1070203F0CBFA0028E5
:10BA1000CCBF9DF807504FF0FF35237D13B128466A
:10BA200003B030BD2069A1690C3003F05DFB024614
:10BA300050B9237D002BF2D12069A1690C3003F0AD
:10BA400021FB284603B030BD421EF2E79847054669
:10BA5000E3E74FF0FF35E2E741B9020030B4074CAD
:10BA6000016100224FF47A758560C0E900420275D9
:10BA700080F82020C0E9062230BC70476CDA030051
:10BA80002DE9F0410446594E0361002594B04FF46E
:10BA90007A779046C4E90065257584F82050C4E99A
:10BAA000065503F10C00A76001AA0D4603F028FB20
:10BAB000D0B99DF80430112B4BD008F05DFD012862
:10BAC0004FF02C0068D006F071FFA06140B12369EF
:10BAD00001462A4603F10C0002F0DEF900285ED090
