:020000022000DC
:1060000000000420E12303002124030023240300D3
:106010002524030027240300292403000000000096
:106020000000000000000000000000002D500300F0
:106030002D240300000000004D5003003124030014
:106040007D51030033240300656E030033240300F5
:1060500033240300332403003128030033240300D6
:1060600033240300332403003324030033240300C8
:1060700033240300332403003324030033240300B8
:1060800033240300354E030033240300332403007C
:1060900033240300332403005DA6020033240300ED
:1060A0003324030033240300332403003324030088
:1060B000332403003324030000000000000000002C
:1060C000332403003324030033240300A1560300C8
:1060D000332403003324030033240300FD8703002B
:1060E00033240300332403003324030000000000A2
:1060F00000000000332403000000000019570300D3
:10610000000000000000000000000000000000008F
:10611000000000000000000000000000000000007F
:10612000000000000000000000000000000000006F
:10613000000000000000000000000000000000005F
:10614000000000000000000000000000000000004F
:10615000000000000000000000000000000000003F
:10616000000000000000000000000000000000002F
:10617000000000000000000000000000000000001F
:10618000000000000000000000000000000000000F
:1061900000000000000000000000000000000000FF
:1061A00000000000000000000000000000000000EF
:1061B00000000000000000000000000000000000DF
:1061C00000000000000000000000000000000000CF
:1061D00000000000000000000000000000000000BF
:1061E00000000000000000000000000000000000AF
:1061F000000000000000000000000000000000009F
:10620000F1EE103A43F08073E1EE103A704700BFB0
:1062100010B5054C237833B9044B13B10448AFF3E0
:1062200000800123237010BDB86200200000000030
:1062300070EC030008B5034B1BB103490348AFF3EF
:10624000008008BD00000000BC62002070EC03006C
:10625000154B002B08BF134B9D46A3F5803A002138
:106260008B460F461348144A121A14F098FB0F4B32
:10627000002B00D098470E4B002B00D098470020F1
:10628000002104000D000D48002802D00C48AFF397
:10629000008014F01DFB2000290010F071FE14F0A6
:1062A000F1FA00BF00000800000004200000000018
:1062B00000000000B86200205092002000000000A2
:1062C00000000000F8B504460F463348334E344D05
:1062D000012104F07DF9304804F0D0F93149324809
:1062E0000FF0B6FE0A2239462F480FF081FF2F49E2
:1062F0002D480FF065FF2A883378A24203F1FF335F
:10630000337004BF4FF6FF732B80294B1A88A242CB
:1063100004BF4FF6FF721A80264B1A88A24202D1A0
:106320004FF6FF721A8024491F480FF091FE0A228F
:1063300000211D480FF09EFE20491B480FF088FEEB
:10634000298819480A220FF08DFF347804B1F8BD6E
:106350001B4915480FF034FF21461A4801F0BCFDD7
:10636000194911480FF02CFF184810F0FBFE337844
:10637000002BECD1164C60680EF0FCFC20B91548DF
:10638000BDE8F84010F0EEBE204610F01FFF1148A7
:10639000BDE8F84010F0E6BE50650020EA6300203A
:1063A000E86300209CDA0300E47D0020B4DA0300F7
:1063B000EC6300207C630020A0D90300A4DE03006E
:1063C000C4DA030050670020D8DA03001465002007
:1063D000246500202C65002010B5074C0749204695
:1063E0000FF036FE05200FF0C1FD0A2201462046BF
:1063F000BDE810400FF036BFE47D0020F0D9030067
:10640000F8B50E200FF0B2FD2049C4B220480FF0BD
:106410001FFE21460A221E480FF0EAFE012C25D05D
:106420001C4E1D4D1D480022012332702B7010F0B0
:1064300099FE1B48337802782C781A49002B14BF38
:106440003023202302F0C302002C42EA0302098811
:1064500014BF0C2308231A434FF6FF7399420270AE
:1064600013D01148BDE8F84002F0F2B90B4F094EC5
:10647000094D7868347000232B700EF07BFC0028E7
:10648000D7D0384610F0A2FED3E7F8BDD8D9030024
:10649000E47D002035650020046000202C6500208C
:1064A00005600020806300202863002038B50920A3
:1064B0000FF05CFD0A490B4DC4B20B480FF0C8FD4C
:1064C00021460A2208480FF093FE01232B7004B1E5
:1064D00038BD0E200FF04AFD0028F9D1287038BDD4
:1064E000E8DA030034650020E47D002010B50C20BC
:1064F0000FF03CFD0B49C4B20B480FF0A9FD21463B
:106500000A2209480FF074FE04B910BD074C6068F8
:106510000EF030FC0028F8D02046BDE8104010F006
:1065200081BE00BFFCDA0300E47D00202C65002062
:1065300010B51D4B1978032982B019D81B4A1C4B82
:106540001C481D4C525C5B5C405C2178B9B90090E2
:106550001A4805F08FF81021184805F0B1F81748CF
:1065600004F00EFE237883F00103237002B010BD07
:10657000114C21780020034602460029E7D0002371
:1065800000931A4619460D4805F074F8FF210B4890
:1065900005F096F8094804F0F3FD237883F0010331
:1065A000237002B010BD00BFEA63002070D8030062
:1065B00074D8030078D80300D5620020F864002066
:1065C000F8B502200FF07AFB0C200FF071FB0021D0
:1065D0000B200FF0AFFC144F0A24002514200FF0FD
:1065E0009DFB0A220646014638460FF03BFE601E20
:1065F00010F0FF043544F1D10C4B204683FB0523FA
:10660000ED17C5EBA3050FF059FB0A200FF050FB67
:1066100001210B200FF08EFC29460A2202480FF0C0
:1066200021FE034B1D60F8BDE47D002067666666B1
:10663000846300202DE9F0418CB020220746002120
:1066400004A814F0ACF939469B48DFF8848203F0C3
:10665000FDFF9A49044640460FF0B2FD2046002156
:1066600002F0CAFB964940460FF0AAFD00221146EF
:10667000204602F0B9FB934940460FF0A1FD1921D5
:10668000204602F0A9FB4FF47A700CF05FFA20224A
:10669000204604A902F082FB0021874804F02CF870
:1066A0000021854803F094FF834803F0FBFF02209C
:1066B0000FF004FB0C200FF0FBFA00210B200FF071
:1066C00039FC0A25002414200FF028FB0A22064674
:1066D000014640460FF0C6FD681E10F0FF05344429
:1066E000F1D1794B794E83FB04232846E417C4EBA0
:1066F000A3040FF0E3FA0A200FF0DAFA01210B20CD
:106700000FF018FC21460A2271480FF0ABFD3460EF
:10671000D6ED007ADFED6F6A9FED6F7AF8EEE77ADB
:1067200067EEA67AF4EEC77AF1EE10FA00F3AB80CA
:10673000DFED6A6AF4EEE67AF1EE10FA26DA9FED02
:10674000687AF4EEC77AF1EE10FA00F3A580DFED77
:10675000656AF4EEE67AF1EE10FA00F396809FEDAA
:10676000627AF4EEC77AF1EE10FA00F39C80DFED66
:106770005F6AF4EEE67AF1EE10FA40F39B8077EE72
:10678000C77AF4EE006A9FED5A7A05E077EEC77A91
:10679000DFED586A9FED587AA7EEA67AFCEEC77A2D
:1067A000CDED037A9DF80C405448554D214601F03B
:1067B00087FF544946480FF04BFC31684448524E1D
:1067C0000A220FF04FFD514941480FF041FC0A22C7
:1067D00021463F480FF00CFD4D493D480FF038FC75
:1067E00004A93B480FF0ECFC2B784A4938480133A8
:1067F0002B700FF02DFC0A22297835480FF0F8FC99
:1068000032884FF6FF739A422B7808BF37803BBB24
:1068100041492F480FF01CFC0A2200212C480FF0A0
:1068200029FC3E492A480FF013FC318828480A22E7
:106830000FF018FD2C782CB1394810F0C7FC0CB0C3
:10684000BDE8F081374922480FF0BAFC21463648AE
:1068500001F042FB324810F0B9FC0CB0BDE8F08109
:10686000324810F0B3FC0023FF2219460092304852
:106870001A4604F0FFFE10212D4804F021FF2C4899
:1068800004F07EFCC4E764248EE777EEC77ADFED80
:10689000196A9FED287A7FE777EEE67A9FED267AF0
:1068A000DFED146A78E777EEE67A9FED247ADFED84
:1068B000116A71E72C4677E75065002000DA030083
:1068C00018DA030038DA030067666666846300201E
:1068D000E47D00200080BB3F0020804500007A4519
:1068E00000C073450040674500C05A450000484558
:1068F00000002042CDCCCC3D0000C842D862002030
:10690000EA63002050DA0300E863002064DA030041
:1069100078DA030088DA0300A0D90300A4DE0300BC
:106920002C650020C4DA03005067002014650020A5
:10693000F86400200000A0420000B4420000704251
:106940002DE9F041174682B00C460646B249B348DD
:106950000FF07EFB39460A22B0480FF0BBFB04342F
:10696000AF49AE480FF02CFC2046AE4902F0F0FFD4
:1069700000285CD0002F39D0AB49A848AB4C0FF0B1
:106980001FFCAB4A21881378AA48013313704FF6D5
:10699000FF7301229942027047D1A74D2680A74973
:1069A0009E480FF055FB0A2200219C480FF062FB25
:1069B000A3499A480FF04CFB298898480A220FF007
:1069C00051FCA04995480FF043FB0A22002193484F
:1069D0000FF050FB9A4991480FF03AFB21888F48FD
:1069E0000A2202B0BDE8F0410FF03CBC96498B484A
:1069F0008E4C0FF0E5FB8E490B7853B92388B342D8
:106A000002D14FF6FF7323808A4B8B4D00221A7000
:106A1000C5E72088013BB042DAB208BF4FF6FF73EA
:106A20000A7008BF2380002AEED0834DB7E70546E1
:106A30008649204602F08CFF002800F0B680002F27
:106A400000F09B807548824980460FF0B9FB814B6E
:106A5000012202201A700FF031F90C200FF028F9F2
:106A600029460B200FF066FA0A2414200FF056F97D
:106A7000013C074601460A2240460FF0F3FB14F0A2
:106A8000FF043D44F1D1744AEB17204682FB0525F3
:106A9000C3EBA5050FF012F90A200FF009F9012147
:106AA0000B200FF047FA29460A225C480FF0DAFB68
:106AB0006A4BDFED6B6A1D60D3ED007A9FED697A5A
:106AC000F8EEE77A67EEA67AF4EEC77AF1EE10FAFE
:106AD00000F3FE80DFED646AF4EEE67AF1EE10FA80
:106AE00080F292809FED617AF4EEC77AF1EE10FAAF
:106AF00000F3F080DFED5E6AF4EEE67AF1EE10FA74
:106B000000F3FA809FED5B7AF4EEC77AF1EE10FAAB
:106B100000F3F980DFED586AF4EEE67AF1EE10FA50
:106B20000DDD77EEC77A9FED557AF4EE006AA7EE99
:106B3000A67AFCEEC77ACDED017A9DF80440504864
:106B4000214601F02BFF21464D4801F0B9FD4D498A
:106B50004D4A0C8813784FF6FF7084424B4C08BFA7
:106B60000E800133606813700EF004F910B92046EE
:106B700010F0F8FA2D4C304D11E7454927480FF039
:106B80001FFB41480378002B30D13E4B1A88B2429C
:106B900002D14FF6FF721A802E4B3C48234C264DF3
:106BA00000221A7010F012FBF9E62046394902F073
:106BB000CFFE0028DED0002F76D1374917481E4D72
:106BC0000FF0FEFA35490B78002B00F08A802888F8
:106BD000013BB042DAB208BF4FF6FF730A7008BF3C
:106BE0002B80002A00F08380104CD8E6254A1488B8
:106BF000013BB442D9B208BF4FF6FF73017008BF22
:106C000013800029B6D1C7E777EEC77ADFED246A93
:106C10009FED247A8BE700BF7CD80300E47D002041
:106C200000DE0300F86300208CD80300EC63002032
:106C3000EB630020E6640020806300208CD9030011
:106C4000A4DE0300ACD90300B8D80300DC62002046
:106C5000E4D80300E464002067666666846300206D
:106C60000080BB3F0020804500007A4500C073458E
:106C70000040674500C05A450000484500002042DA
:106C8000D86200207C630020786300202465002007
:106C900010D903002C63002064D903007E63002018
:106CA000CDCCCC3D0000C8421A491B481B4D0FF00B
:106CB00087FA1B4A298813781A48013313704FF654
:106CC000FF730122994202708ED12E80164C66E627
:106CD000642434E777EEE67A9FED147ADFED146AE8
:106CE00025E72B88B34202D14FF6FF732B800D4B63
:106CF0000D4C00221A7052E677EEC77ADFED0C6A6F
:106D00009FED0C7A13E777EEE67A9FED0B7ADFEDD5
:106D1000086A0CE73CD90300E47D00208063002072
:106D20007E630020E5640020EC6300200000B44294
:106D3000CDCCCC3D0000A04200007042000000001D
:106D40002DE9F0432DED028B85B00BF0E7FE844B6F
:106D5000DFED846AD3ED007A9FED837A834D844F13
:106D60002B680290F8EEE77A386067EEA67A039314
:106D7000F4EEC77AF1EE10FA00F3C280DFED7D6A1F
:106D8000F4EEE67AF1EE10FA26DA9FED7B7AF4EE75
:106D9000C77AF1EE10FA00F3CC80DFED786AF4EEFA
:106DA000E67AF1EE10FA00F3BD809FED757AF4EE0D
:106DB000C77AF1EE10FA00F3C380DFED726AF4EEE9
:106DC000E67AF1EE10FA40F3C28077EEC77AF4EE7D
:106DD000006A9FED6D7A05E077EEC77ADFED6B6AAA
:106DE0009FED6B7AA7EEA67AFCEEC77ACDED017A1D
:106DF0009DF80440674E3378A34203D0214666488D
:106E000001F05EFC654B1B78002B3CD10DF0FEFFC2
:106E10006348DFF8C48104F0E1F8624AD8F8001052
:106E2000137828605BB25B1A184440B210700DF002
:106E3000F7FF5D4B1B7873B12A68D8F800309A428F
:106E400009D0DFF898915949D9F800303A680978A3
:106E5000D31A8B4256D83278A2420BD0544B1B78AF
:106E600043B1544B19884FF6FF73994202D04A48F8
:106E700001F0EEFC2B68C8F80030347005B0BDECB2
:106E8000028BBDE8F0830DF0C1FF9FED4B8AD7ED7B
:106E9000007ADFF84481F0EE480AB8EE670A0AF09B
:106EA000A7FBDFED467A60EE277A17EE900A13F023
:106EB000DBF90022424B13F079F827A3D3E9002332
:106EC00013F02AFA13F03AFC00EE100A0AF048FB1D
:106ED000F7EE007A30EE270A3248D8F8001003782F
:106EE00020EE080A5BB2FDEEC07A5B1A17EE902A1C
:106EF00013445BB2C5ED007A03700DF091FF98E783
:106F0000642477E72F4B19884FF6FF73994206D018
:106F100008230DEB03022C4801F0F0FB3A68C9F896
:106F2000002098E777EEC77ADFED186A9FED277AA1
:106F300058E777EEE67A9FED267ADFED146A51E79F
:106F400077EEE67A9FED237ADFED106A4AE70024B8
:106F500050E700BFAFF30080182D4454FB210940D7
:106F6000846300200080BB3F00208045F063002048
:106F70001065002000007A4500C073450040674559
:106F800000C05A450000484500002042CDCCCC3D11
:106F90000000C842EA640020D8620020E9640020B2
:106FA000F4640020D4620020E6640020F66400202F
:106FB000E46400207C63002000401C4517B7513A70
:106FC0000000F03FEC630020F46300200000A042CA
:106FD0000000B44200007042EC640020F064002025
:106FE0002DE9F043504E514D5148524F524CDFF86D
:106FF0008891DFF8888183B00D2103F0B7FF522319
:1070000030460822052104F06BF82A464B493046E9
:1070100013F0F8FB4A4E384610F088F82A4621460D
:10702000384613F0EFFB304610F080F82A46214630
:10703000304613F0E7FB434F434E484610F076F8D6
:107040002A462146484613F0DDFB384610F06EF81C
:107050002A46214638466C4613F0D4FB3B483C4F49
:1070600003F06CFB20463B4902F04AFC94E8060022
:10707000394802F025FC2046384902F041FC94E8EA
:107080000600374802F01CFC2046364902F038FC66
:1070900094E80600404601F075FA2A46314640461B
:1070A00013F0B0FB20463049DFF8D48002F028FC12
:1070B00094E80600384601F065FA2A46314638461B
:1070C00013F0A0FB20462949294F02F019FC94E84F
:1070D0000600404601F056FA2A463146404613F073
:1070E00091FB204642F6192102F004FC94E80600C8
:1070F000384601F047FA2A46314638461D4F13F00C
:1071000081FB204642F61A2102F0F4FB94E80600C7
:10711000384601F037FA2A463146384613F072FBFA
:1071200003B0BDE8F08300BFF864002000600020D9
:10713000F464002014650020DD70030041B10200FA
:10714000246500202C6500202D810200986300201A
:107150004464002038DB03008863002028DB030040
:10716000D863002048DB030058DB030068DB030022
:10717000D8620020286300201C650020F4630020F2
:107180009464002038B5094C094D0DF03FFE21787C
:1071900028460FF037FC28460FF01EFC237800230A
:1071A0002370BDE838400DF03BBE00BFD462002024
:1071B000F87D002030B5114C114D124983B02046A6
:1071C0000EF0FEFF204600240FF0A0FA23462246D0
:1071D00028462146009404F04DFAFF21284604F089
:1071E0006FFA284603F0CCFF64200BF0AFFC214679
:1071F000062003B0BDE830400EF09CBEE47D0020C8
:10720000F864002008DB0300F0B5144683B0AB49F6
:10721000AB48AC4D1E460EF01BFF2178A8480A2251
:107220000EF0E6FF68680DF0A5FD002E62D0237811
:107230003C2B00F0FA802ED94D2B00F0EA8040F272
:107240008F80AD2B00F0E18040F2D880AE2B00F0B3
:107250009280DE2B4ED19C4999480EF0B1FF00245C
:1072600097480FF053FA2346224621460094974848
:1072700004F000FAFF21954804F022FA934803F045
:107280007FFF64200BF062FC2146062003B0BDE8BE
:10729000F0400EF04FBE282B00F0BF802CD8232BDF
:1072A00000F02481252B00F08180212B22D1884BF6
:1072B00001221A7010B928460FF054FF8549864BF9
:1072C000864A8748042500240D7003211C70157020
:1072D00003F0ACFE2146824803F0C0FE804803F074
:1072E00059FE7F4803F068FE29467D4803F0D2FE30
:1072F0007C4B1C7003B0F0BD322B00F0AE8073D914
:10730000332B59D0342BF5D1734B72491A78734B08
:10731000042008701B78002A40F01E8100242246B9
:10732000032002250121012B06D0022B00F02B8126
:10733000042B0CBF01461146694803F077FE214635
:10734000674803F08BFE664803F024FE644803F0B0
:1073500033FE6348042103B0BDE8F04003F09ABE59
:107360003E2B00F094800AD3402BC3D103B0BDE87C
:10737000F0400EF095BC5C4B23221A70BAE7564BD6
:1073800056481A785349022303700878002A40F0BF
:10739000EF801946012503240128CDD0022800F0F2
:1073A000FA8003280CBF2C461446C5E74D4A1378D3
:1073B00083F0010313709DE7474A46484749127816
:1073C000032404700878002A40F0BB800121234682
:1073D00002250C460128AFD0022800F0D4800428F2
:1073E0000CBF19461146A7E7292B83D110B12846B7
:1073F0000FF0ECFE364B00221A707BE7AC2B7FF4CB
:1074000079AF394B19221A7074E7374B1E221A7064
:1074100070E7354B00221A706CE710B928460FF060
:10742000A1FE2B4B01221A7064E72B4B2B481A78D4
:107430002849012303700878002A40F093801946F8
:107440000225032401283FF477AF022800F09D8035
:1074500003280CBF1C4614466EE71F4A1D4C1178CA
:107460001E48022222700078002940F087801346CF
:107470001C460A460325012101283FF45DAF02287E
:1074800000F0858004280CBF2946114654E7124BB2
:107490001249104A1B78127804200870002B55D12D
:1074A0000324214601200225012A3FF445AF022A88
:1074B0006BD0032A0CBF04461C463DE7C4D9030029
:1074C000E47D00201C65002008DB0300F864002038
:1074D000E864002006600020E764002007600020C8
:1074E000F4640020E9640020F66400202C4B2D4950
:1074F0002D4A1B7808781278C3B901250226032487
:107500001F462946B646A446012805D0022840D089
:1075100004280CBF61463946012A3FF40DAF022A08
:107520003BD0032A0CBF2C461C4605E7112512262A
:1075300013244FF0330C4FF0320E3121102330273B
:10754000E2E7322531211124302243E711201225B0
:10755000132433211023A7E73320322531211024AF
:107560003022E0E61123122513243121102269E78D
:10757000112512231324322110220DE73325312146
:107580001224302278E72946D6E62C46D4E619465E
:10759000D2E67146C0E71C46CEE63446CCE600BFD4
:1075A000E76400200760002006600020F0B58548F1
:1075B000854F85B0FF2503F0D1FD824803F0E0FD43
:1075C0002B462A46009500217E4804F053F82946B0
:1075D0007C4804F075F87B48002403F0D1FD64205A
:1075E0000BF0B4FA2346224621467648009404F074
:1075F00041F82946734804F063F8724803F0C0FD6F
:107600002B46224621466F48009404F033F810219F
:107610006C486E4D04F054F86A4803F0B1FD6C49B3
:107620006C486D4A4FF6FF730B80038001210620E2
:107630002B8013800EF03EFC012106200EF07AFC18
:1076400001210D200EF036FC01210B200EF032FC42
:1076500001210B200EF06EFC21460C200EF02AFCBE
:107660004FF481725D490C200BF02EF82146052065
:107670000EF020FC4FF48172594905200BF024F8DC
:10768000214609200EF016FC4FF48172554909205D
:107690000BF01AF821460E200EF00CFC4FF481720C
:1076A00051490E200BF010F84FF4E13138460FF03D
:1076B00085F84FF4E1314D480FF0F6F94C4803F0EE
:1076C000E5FB03214B4803F0B1FC2146494803F098
:1076D000C5FC484803F05EFC464803F06DFC0421FD
:1076E000444803F0D7FC02200EF0E8FA0C200EF01C
:1076F000DFFA21460B200EF01DFC0A2514200EF0A7
:107700000DFB0A220646014638460EF0ABFD681E08
:1077100010F0FF053444F1D1374AE317284682FBC5
:107720000424C3EBA4040EF0C9FA0A200EF0C0FA38
:1077300001210B200EF0FEFB21460A2222480EF00A
:1077400091FD2E4BDFED2E6A1C60D3ED007A9FED8C
:107750002D7AF8EEE77A67EEA67AF4EEC77AF1EEC4
:1077600010FA00F3DC81DFED286AF4EEE67AF1EE40
:1077700010FA59DA9FED257AF4EEC77AF1EE10FA95
:1077800000F33B82DFED226AF4EEE67AF1EE10FAC6
:1077900000F32C829FED1F7AF4EEC77AF1EE10FA17
:1077A00000F33282DFED1C6AF4EEE67AF1EE10FAB5
:1077B00040F3318277EEC77AF4EE006A9FED177AD4
:1077C00038E000BFF8640020E47D00207C630020E6
:1077D000E8630020EC63002080630020ED64020079
:1077E000D9630200AD64020001640200F87D00204C
:1077F000BC680020F464002067666666846300202D
:107800000080BB3F0020804500007A4500C07345E2
:107810000040674500C05A4500004845000020422E
:10782000CDCCCC3D0000C84277EEC77A5FED046A4C
:107830001FED047AA7EEA67AFCEEC77ACDED037AA7
:107840009DF80C40B748B84DB84FB94E042102F02E
:1078500083FC00220121B34802F0B4FC0121B148AD
:1078600002F0B6FE6421AF4802F0B6FE0821AD4832
:1078700002F05CFEAF49AB4802F030FEAE49AF48C3
:1078800001F04AFEAE49AD4801F048FE0C22062147
:10789000AA4801F037FEAB49AB480EF091FCAB486B
:1078A00001F0F0FF1221AA4800F0BCFE00221121D5
:1078B000A74800F0CDFE0121A54800F0B7FE012247
:1078C000A449A34800F0D2FEA14800F037FC2146AD
:1078D0009F4800F0F5FE21469D4801F05FF8122117
:1078E0009D4800F09FFE002211219B4800F0B0FE51
:1078F0000121994800F09AFE01229649964800F02D
:10790000B5FE954800F01AFC8F21934800F0D8FE90
:1079100092498D480EF054FC0B228649904802F0A3
:107920004FFF16228F498E4802F03EFF05228E49F6
:107930008B4802F041FF05228C49894802F038FF4C
:10794000874802F041FF8A497F480EF039FC894898
:1079500001F098FF88497C480EF032FC12218748DC
:1079600000F060FE00221121844800F071FE84497D
:10797000824800F083FE0821804800F057FE012273
:1079800074497E4800F072FE7C4800F0D7FB0E215F
:107990007C4800F047FE112211467A4800F058FE5C
:1079A0007949784800F06AFE0121764800F03EFEF1
:1079B00001227649734800F051FE724800F0BEFB88
:1079C0000821734800F02EFE00221121704800F0BB
:1079D0003FFE70496E4800F051FE01216C4800F0F6
:1079E00025FE01246A4800F0A9FB00236A4A00949E
:1079F00028464FF4FA710FF0A1FB684952480EF087
:107A000027FB696850480A220EF0A4FC0023644A50
:107A10006449009438460FF091FB63494A480EF0E0
:107A200017FB796848480A220EF094FC00235F4A4D
:107A30000094214630460FF081FB5D4942480EF02C
:107A400007FB716840480A220EF084FC594B1B78F2
:107A500013B130460FF086FB01260023564A5149E8
:107A6000564800960FF06AFB55493748554F0EF0BF
:107A7000A7FB52480FF076FB09200EF077FA524927
:107A8000C4B231480EF0E4FA21460A222E480EF024
:107A9000AFFB3E70002C3BD0FEF7B2FC06214B48FA
:107AA00000F08AF9494800F06FF92D4B274A314917
:107AB000464800F0BDF8464800F038F90121434837
:107AC00000F0AEF9F4222021404800F0A5F91E2173
:107AD0003E4800F09FF900213C4800F0FDF94FF4CA
:107AE000FA700BF033F83B4917480EF069FB6868F1
:107AF0000DF040F910B90C480FF034FB094802F0C2
:107B000003FE3549104805B0BDE8F0400EF058BB03
:107B10000E200EF02BFA0028BED13870BCE764248A
:107B200090E600BF50650020146500202465002009
:107B30001C65002078DB0300356602000068002029
:107B4000C562020084DB0300E47D0020886300201E
:107B5000D86200204169020028630020A4DB0300F2
:107B600098630020D0DB0300E8DB0300F0DB0300B8
:107B7000F8DB0300D863002018DC0300F463002066
:107B800030DC03004464002044DC0300097202007E
:107B90009464002050DC03003165020058DC0300CF
:107BA000C1650200E09304006CDC030085710200F3
:107BB00084DC0300E8640020B57102002C6500201D
:107BC0009CDC030034650020E8DA030050670020E5
:107BD0008C67002018DB0300B4DA03000000A04229
:107BE0000000B44200007042CDCCCC3D77EEC77AA5
:107BF0005FED036A1FED077A1CE677EEE67A1FED6C
:107C0000087A5FED076A15E677EEE67A1FED0B7AE4
:107C10005FED0B6A0EE62C4614E600BF72DF70477C
:107C200073DF704777DF70470022C27702707047BA
:107C30002DE9F0418EB0CC688D7A01940989947A4F
:107C400016898DF80250ADF80010D56819899A7A16
:107C50008DF80A40DB68ADF8086000248046039583
:107C6000ADF810108DF8122005932746264606E041
:107C7000802801D1F7B96F680834182C12D00DEBA9
:107C80000405284601F042FE1028F1D10EAB03EBAB
:107C900046033DF8042023F8202C08340136182C24
:107CA000F6B2ECD1E6B1760098F81F30F6B2F218D1
:107CB0001D2A03DD00200EB0BDE8F08108EB0302B1
:107CC000701C032108F803005170901C06A932466D
:107CD00012F041FE98F81F3002331E4488F81F60EE
:107CE000FFB198F81F300D2BE4DC08EB03021121E3
:107CF00008F8031007235370B8683D687C68F9687A
:107D0000C2F80E10C2F80A00C2F80250C2F80640CB
:107D100098F81F300120123388F81F300EB0BDE8EC
:107D2000F08101200EB0BDE8F08100BFF0B589B050
:107D3000054620226946134802F0E4FBEB7FC21897
:107D40001D2A0ADDC3F11D04E4B2E2181D2A4FF01A
:107D5000000615DD304609B0F0BD044601260927AE
:107D6000EA18601CE85469465770901C224612F0CD
:107D7000F2FDEB7F02331C443046EC7709B0F0BDD6
:107D80000827EDE75065002010B50446094802F0C9
:107D90001BFCE37F1C2B0ADCE2180221E1540A23BE
:107DA00090705370E37F0333E377012010BD002010
:107DB00010BD00BF50650020C27F1C2A0DDC10B42E
:107DC00003469C18022098540120A1706070DA7F4D
:107DD0000332DA775DF8044B70470020704700BF2C
:107DE00030B440F2FF12094C0949028401250022F7
:107DF00080F82250C0E90A41C277027080F823203F
:107E00004262C0E90C22826330BC70472000F4005B
:107E100020001E00C185704742850185818570471D
:107E200080F82210704700BFF0B502EB8203264EA7
:107E300087B003EB83030F469B0015463168002291
:107E4000CDE90272ADF80C3090F8213000928DF837
:107E50000030CB0704460192CDE9042209D41B4A25
:107E60001B4BD17FC07F998101211C609A60988053
:107E700031606A46164904F12000FFF7CFFE10B1C9
:107E8000002007B0F0BD134894F8206002F09CFB7E
:107E9000314602460120FFF7C5FE0028F0D101213E
:107EA00094F82000FFF7BCFE0028E9D1094802F051
:107EB000E5FB638EA7859D4294BF5B1BDB1A012007
:107EC000638684F82300DCE7386500208C67002097
:107ED0003C65002050650020F0B52C4D41860446DD
:107EE00087B001862846FA2102F076FBE68D284904
:107EF000278D0868029706EB860303EB83030022B5
:107F00009B000392ADF80C3094F8213000928DF86C
:107F10000030C3070192CDE904220BD41D4BE27F50
:107F200095F85B029A8005F50F7501221C609D6033
:107F300098810A606A46174904F12000FFF76EFE37
:107F400010B1002007B0F0BD104894F8205002F0A6
:107F50003BFB294602460120FFF764FE0028F0D1D2
:107F6000012194F82000FFF75BFE0028E9D10748C3
:107F700002F084FB638EA7859E4294BF9B1BDB1A95
:107F80000120638684F82300DCE700BF50650020F1
:107F9000386500203C65002030B50B888D88112B9A
:107FA00085B004462CD0262B0FD0102B01D005B065
:107FB00030BDCB7B012BFAD1426A03FA05F515439C
:107FC0000023456280F82330F1E70B7A012BEED1D4
:107FD000002380F823304FF4FA71274802F0FCFAAE
:107FE000238E002B30D0658E002D36D0A36B0BB1C5
:107FF0009847658E618D2A462046FFF715FFD6E724
:10800000436AEB40DB07D2D51C4801F05FFA002839
:10801000CDD1636A94F82310012202FA05F523EA10
:10802000050363620029C2D194F82230002BBED030
:10803000238E6386FA21104802F0CEFAE28D218D5C
:108040002046FFF7F1FEB2E7A36B03B19847002289
:10805000618D2046FFF7E8FEA9E7074802F022FB02
:10806000626B002AA3D004AB0095294643F8045D57
:1080700028460DF0EBFC9AE75065002000680020D0
:1080800075DF704710B44FF010144FF44801002210
:10809000C0E90041C0E902225DF8044B704700BF0F
:1080A000014801F02DB800BF20680020F8B5002479
:1080B0000B4F2546A1B2384602F0C8FA01340646F5
:1080C00048B100F061FE30B1304600F061FE022898
:1080D00004BF0135EDB2142CECD12846F8BD00BF29
:1080E000506500200B881F2B12D110B50A4682B0B4
:1080F00052F8080F8C8851686B4603C32046BDF8C0
:108100000030ADF802306946FFF7BAFF02B010BD8B
:10811000704700BFAADF7047ABDF7047ACDF704726
:10812000ADDF7047AEDF7047B0DF7047704700BF0C
:1081300010B504460EF076FF204610BD70B55E4BBC
:1081400004461B680361061D96B0304601F0ECFB47
:1081500094F8263013F0320208BF84F8272013F079
:108160000C0208BF84F8282013F0300358D10FAD5B
:108170000F93C5E90133C5E9033394F8262094F839
:108180002700AB618DF83C2001224FF0000162F323
:108190004201A26914930023ADF808308DF80A104B
:1081A0008DF808000AB1137873BBA37F13B104F1F3
:1081B0001E03129394F82930E289059613F0010FFB
:1081C0004FF000030CBF10461846CDF81E3029466C
:1081D000ADF81C00ADF8223018466569ADF82020D6
:1081E00004F12A0304F1270605AA06960995FFF76C
:1081F00091FF034628B9627F72BB257B002D53D0C7
:108200000023184616B070BD1046109213F0BCFA49
:1082100002AB80B2ADF84400ADF846001393C4E75A
:1082200000231A46012060F3420224498DF80620FB
:108230000FAD097894F8270094F826200F938DF855
:108240000410C5E90133C5E90333AB618DF80500BE
:108250008DF83C2001AB97E71849ADF80C000246B9
:10826000012502234E6894F82710049665F3420214
:1082700003AD8DF80E200B958DF80C100DEB03025D
:1082800004AE04F11C050AA9CDF83200ADF8303077
:10829000ADF83430ADF836000A960E95FFF73CFF86
:1082A00003460028A9D0ACE72146054801F0CEF8E6
:1082B0002B46184616B070BD4C650020B4DC030098
:1082C000506500202DE9F0410B888E88502B8AB034
:1082D0000C46054609D0512B04D18B79012B42D095
:1082E000022B17D00AB0BDE8F081CB88428D9A42AC
:1082F00026D0EA8D9A42F5D1EB6C002BF2D095F89E
:108300003C20648A920700F19D802246294630462F
:108310009847E7E7A27B042A5DD0062A32D0012ADB
:10832000E0D16B6C002BDDD095F83C20170704F1F1
:10833000080400F1CA802246294630469847D1E712
:10834000876C002FD5D090F83C30B1F810C001F107
:108350001208D90700F19580634642462946304607
:10836000B847E388C5E7036C002BBBD090F83C20EE
:10837000520701F1080775D43A4629463046984716
:10838000A379ADE76A6B002AACD0002202A930467F
:10839000CDE90222CDE904228DF80830FFF7C4FEB2
:1083A000AC6C64B195F83C306F6BB5F83AC0D80747
:1083B00000F19E8063463A4630462946A0476C6BE2
:1083C0000CF0CAF9012820467CD00AF0EBFB002310
:1083D000C5E90D3386E7686B002865D0218A628A7B
:1083E0002F8F002301EB020CCDE90633CDE90833D2
:1083F000BC454FF002038DF8183008DD40F2091338
:10840000ADF81C3006A93046FFF78EFE6AE79DF8EE
:108410001E30ADF8201004F1140743F001030844A6
:108420003946ADF822208DF81E30099712F093FAE4
:10843000638A228A698F1A4493B28B4238BF0B46F3
:108440006B87DFE7032000211A46009006AB084641
:10845000CDE9066508940DF0F9FA00287FF442AFE3
:10846000EB6C52E703211A46009106AB082138460F
:10847000CDE9066508970DF0E9FA002880D12B6C4C
:108480007AE7042300933A46614606AB4046CDE9BD
:108490000665CDE9088C0DF0D9FA00287FF461AFAC
:1084A000AF6CB4F810C057E74FF480672F870CF01B
:1084B00053F90128384618D00AF062FB002368639C
:1084C0006B878BE712F030FA81E703211A4600919F
:1084D00006AB0E212046CDE9066508940DF0B6FAEC
:1084E00000287FF4FFAE6B6C25E712F015FAE5E784
:1084F0000423009322463846614606ABCDE9066563
:108500000897CDF824C00DF0A1FA00287FF457AFEA
:10851000AC6C6F6BB5F83AC04CE700BF30B4174B8A
:10852000174D1A7880F8282001244FF0010164F3D8
:10853000420180F82720142400220560C48180F8BD
:10854000291082718280826080F83C20027302616F
:1085500082618283C0F81E20C0F8222080F8262085
:108560004261428582850286C285C0E90D22C0E94A
:108570001022C0E9122230BC704700BFB4DC0300F7
:10858000C4DC030070B483B06D4685E80600044681
:10859000194944F8041B034695E80300174E84E884
:1085A0000500317883F82810012214204FF00105CE
:1085B00062F34205D8810022184683F8295083F8D7
:1085C000271083F83C201A731A619A619A83C3F8C2
:1085D0001E20C3F8222083F826205A615A859A85E6
:1085E0001A86DA85C3E90D22C3E91022C3E91222F3
:1085F00003B070BC704700BFC4DC0300B4DC0300F0
:1086000010B483B06B4683E80600041D93E80300B2
:1086100084E8050003B05DF8044B70470123037341
:10862000704700BF80F82610704700BF39B990F836
:108630002930012262F3000380F82930704790F856
:108640002930C181002262F3000380F8293070478D
:1086500080F8271080F82820704700BF90F83C3041
:10866000816462F3000380F83C30704790F83C303E
:10867000C16462F3410380F83C3070478161704708
:1086800051F82A2F02604A684260704710B5C489C9
:1086900082B0944228BF144601910023418DADF869
:1086A00000406A464FF6FF70ADF80230FFF736FD26
:1086B00018B9BDF8000002B010BD184602B010BDD8
:1086C00030B5C48985B0012C28BF01248DF807106E
:1086D0000023418DADF808400DF1070502AA4FF6C1
:1086E000FF70ADF80A300395FFF718FD18B9BDF813
:1086F000080005B030BD184605B030BD2DE9F04F7B
:108700000F4690F82610C90689B06CD516464FF66C
:10871000FF729742054600F08380C2899A4228BFC3
:108720001A4693463946494801F078FF0446002826
:108730005ED0E98D00295BD000200DF11008424683
:108740004FF0020CADF812000DF10E033846ADF8F3
:1087500010C00593FFF7E4FC43F20142904270D051
:1087600008B9BDF80E0000F00100002869D03946B4
:10877000364801F06BFF8246A8B300F00BFB0338CC
:1087800083B2BBF1000F2FD001944FF000095C467B
:108790009B4606E0BDF80E30E41AA4B21E44002C3D
:1087A00051D0504600F03AFBA3455B46414628BFF6
:1087B0002346C0B1ADF80E304FF001036A8DCDF8FD
:1087C000129038468DF812300DF10E03ADF8169068
:1087D000CDE90636ADF81020FFF7A4FC0028D9D06B
:1087E000504600F025FB0024204609B0BDE8F08F7C
:1087F000EA890DF110085A4513464FF0000428BFCE
:108800005B464246698DADF810304FF6FF70059615
:10881000ADF81240FFF782FC204609B0BDE8F08FAA
:108820000A48019301F006FF019BEA8995F826109A
:10883000934228BF13469B46CB0607463FF572AFCF
:10884000D7E7EA89D7E7019CCEE700BF5065002053
:108850002DE9F04F8B4689B090F826108DF807204F
:10886000CA0604D40024204609B0BDE8F08F4FF6B4
:10887000FF729345054622D0C789012F28BF0127E3
:108880005946454801F0CAFE044608B1E98D21BBAE
:10889000EA8904AE974228BF174600240DF107036A
:1088A0003246698DADF810704FF6FF70ADF812408A
:1088B0000593FFF733FC204609B0BDE8F08F36483A
:1088C00001F0B8FEEA8995F82610012A174628BF5C
:1088D0000127CB068346D3D4DBE7002004AE324623
:1088E0004FF0020CADF812000DF10E035846ADF832
:1088F00010C00593FFF714FC43F20142904249D0A7
:1089000008B9BDF80E0000F00100002842D0594619
:10891000214801F09BFE81460028A3D000F03AFADE
:10892000033883B2002F9ED04FF0010A00940DF15E
:10893000070754464FF000089A4605E0BDF80E3090
:10894000E41AA4B21F441CB3484600F067FAA245DB
:108950005346314628BF2346002883D0ADF80E3059
:108960004FF001036A8DCDF8128058468DF8123011
:108970000DF10E03ADF81680CDE90637ADF81020E5
:10898000FFF7D0FB0028D9D0484600F051FA69E73C
:10899000009C68E7EA897DE7506500202DE9F04FEB
:1089A00090F8263089B0DA068DF80D1004D4002531
:1089B000284609B0BDE8F08F0446494801F03AFE68
:1089C000B4F80E8094F82620B8F1010FC34628BFF2
:1089D0004FF0010BD306074609D50146404801F088
:1089E0001DFE054608B1E18DC1B9B4F80E8004AE94
:1089F000D845434628BF5B46ADF8103000250DF141
:108A00000D033246618DADF812504FF6FF7005939D
:108A1000FFF784FB284609B0BDE8F08F002004AEC4
:108A200032464FF0020CADF812000DF10E0338463D
:108A3000ADF810C00593FFF773FB43F2014290427B
:108A40004BD008B9BDF80E0000F00100002844D05A
:108A50003946234801F0FAFD82460028A7D000F0ED
:108A600099F9033883B2B8F1000FA1D00DF10D08C8
:108A700001954FF000095D46A3464446984605E03F
:108A8000BDF80E30ED1AADB21C4425B3504600F0CF
:108A9000C5F9A8454346314628BF2B46002886D055
:108AA000ADF80E304FF00103BBF82A20CDF812903C
:108AB00038468DF812300DF10E03ADF81690CDE961
:108AC0000634ADF81020FFF72DFB0028D8D0504613
:108AD00000F0AEF96BE7019D6AE7B4F80E8087E716
:108AE00050650020A1DF7047A3DF7047A4DF704707
:108AF00000238382704700BF806900F0DDB800BFAB
:108B0000808A70472DE9F0410B88CE88382B86B0DB
:108B10000C46054642D0392B25D0362B02D006B064
:108B2000BDE8F081806900F0C7F80146614801F0B6
:108B30008DFD00F02FF905F11C0807466EB9E2899A
:108B400004F11001404601F005FF2B8D2BB1033FCE
:108B5000BFB2E389013FBB4270DA404601F012FF29
:108B600006B0BDE8F0810B7B012B57D0022BD6D18C
:108B7000036B002BD3D090F83420B1F80480CE8959
:108B8000920701F1100700F18480324639462846E9
:108B9000984761894046FFF7A9FFC0E700F11C072D
:108BA000002E35D10A8A3846314601F0D3FE94F8BA
:108BB0000C80B8F1010F2BD0B8F1040FAFD1A86928
:108BC00000F07AF801463B4801F040FD00F0E2F881
:108BD0002B8D053880B2834228BF0346002B37D047
:108BE000218AE289A869AC8AADF80C600A44696AF6
:108BF00005918DF80C80ADF81230ADF81020ADF86D
:108C00000E4000F059F803A9FFF76EFF002886D048
:108C1000384601F0B7FE06B0BDE8F081C36A002B0C
:108C20003FF47DAF90F83420CE8901F11007D107D1
:108C30001ED4324639462846984770E7A86900F0A6
:108C40003BF86A8DA98AFFF74DFF002885D166E7BA
:108C500040F20511AA8AA869ADF80C10CDE90433D9
:108C6000ADF80E2000F028F803A9FFF73DFFCFE78D
:108C700003201A460090314603AB3846CDE903572E
:108C800005960CF0E3FE00287FF449AFE689EB6A15
:108C9000CFE703201A460090314603AB3846CDE9B2
:108CA000035705960CF0D2FE00287FF472AF2B6BB1
:108CB000E6896AE750650020808870477FDF70474B
:108CC00086DF70478FDF704790DF7047A5DF704702
:108CD000B1DF7047B5DF704710B5074B036004463E
:108CE000C0690AF03DFE206A0AF03AFE606A08B1E7
:108CF0000AF036FE204610BDDCDC030010B5094B3F
:108D000003600446C0690AF02BFE206A0AF028FEC0
:108D1000606A08B10AF024FE20460EF083F920466E
:108D200010BD00BFDCDC0300F8B5044681800025DF
:108D30000121144F217417261B2021732760E68020
:108D4000608125811068C4F8130090889679667652
:108D5000A4F81700D2796273194618469DF8186076
:108D600009F0A0FF3146E061304609F09BFFC4E9FD
:108D70000A554FF6FF73206265746562A574E3813E
:108D80002046F8BDDCDC0300007C7047407C704767
:108D9000407B7047C0887047008970472DE9F041DB
:108DA00086B004AC868890460F4620464FF4285182
:108DB00000F0A0FDCDE900784FF6FF75012094E8A2
:108DC0000C003146CDE90205024800F0F1F906B089
:108DD000BDE8F0815065002008B58088FFF776FF78
:108DE000B0FA80F0400908BD08B58088FFF76CFF35
:108DF000B0FA80F0400908BD00B583B00B468DF88D
:108E0000041080888DF8053001A9FFF75BFFB0FAE8
:108E100080F0400903B05DF804FB00BF08B566218F
:108E2000C0690AF0F1FB003018BF012008BD00BF87
:108E300008B500231A461946C06909F065FF0030DD
:108E400018BF012008BD00BFC2898188407B01F0A6
:108E5000D7BD00BF70B50B88113B96B00C460546D8
:108E6000462B78D8DFE813F08500880047008B0098
:108E70007700770077007700A200B10077007700D5
:108E80007700770077007700BD00C500CB00D100E8
:108E9000770077007700770077007700770077001A
:108EA000770077007700770077007700770077000A
:108EB00077007700770077007700D4007700D7003D
:108EC00077007700770077007700770077007700EA
:108ED00077007700770077007700770077007700DA
:108EE00077007700770077007700E700EE007700E3
:108EF000F400790002010BF02FFC01284FF0500024
:108F000000F0DF8009F03CFEE86220B3502200212F
:108F100011F045FD4FF6FF737049EB816C7BEB6AF6
:108F20000868097902936A46012C11714FF0000418
:108F300003F11C0103F13803009006910793A88800
:108F4000059418BF2246214602ABCDE90344CDE982
:108F50000844FFF7B3FE16B070BD8B79002BFAD131
:108F6000406AAB740028F6D01A46194609F0CCFEC8
:108F7000F1E700230374EEE74B890381EBE750220E
:108F8000002102A811F00BFD02AA218A687B01F0E2
:108F900051FD034600287AD0002302A910AAA88810
:108FA000FFF78EFEBDF81A30EB81D4E70B7AC46A66
:108FB000002B7BD00BF0D0FB0128204600F08480F2
:108FC00009F0F0FD0023EB62C5E70B7A112B64D1A9
:108FD000A86A0028BFD000231A46194609F094FE5B
:108FE000B9E716A9002321F8503D8088FFF76AFEF3
:108FF000B1E70B7A002BAED14B7A0373ABE70022BB
:1090000011468088FFF760FEA5E70B894381A2E740
:109010004B89C3809FE78B7A002B9CD000260023CE
:109020001A461946286A09F06FFE0136A37AF6B28D
:10903000B342F4D88FE700231A4619468088FFF719
:1090400047FE88E7406A0123AB740028C3D182E75A
:10905000417B234801F0F2FAE188814228BF0146B2
:1090600089B2E980A888FFF735FE74E78B79002B79
:109070003FF471AF002600231A461946E86909F04B
:1090800043FE0136A379F6B2B342F4D863E7A88869
:109090001A461946FFF714FE5DE7C2898188407BB6
:1090A00001F086FD98B101236B7491E701234374AD
:1090B000638AC38122468188407B01F08FFCEC6A81
:1090C00078E711F029FC1FE711F02EFC7AE7034640
:1090D00002460146A888FFF7FBFDE4E74F68002041
:1090E0005065002010B50446043001F0DBFB034B53
:1090F000236000232375204610BD00BF0100FFFF41
:10910000017D01B1704710B50446043001F0D4FB75
:109110000123237510BD00BF007D704710B50B887B
:10912000322B18D0332B0CD0302B00D010BDCB8875
:10913000041D0BB94B89FBB92046BDE8104001F076
:1091400021BCCB88041D002BF6D14A89002AF3D01C
:1091500002EB420208E0CB88041D002BECD14A89C7
:10916000002AE9D002EB82025200023292B20A31A6
:10917000204601F0EFFBDFE70A310A22204601F02A
:10918000E9FBD9E7A0DF704738B50446F82500F5BC
:10919000F87001F087FB2A462046002111F0FFFB02
:1091A0002A466019002111F0FAFB204638BD00BFA5
:1091B0002DE9F04385B00546BDF83800BDF83C40C8
:1091C000ADF80C006F461B48ADF80E4087E80C0068
:1091D0008846BDF8349001F039FA05F5F875064671
:1091E00004E03046FFF7D8FD09F0B0FC284601F056
:1091F000AFFB04460028F4D10121284601F05CFBB6
:109200004A460C99284601F071FB3946404603AAAC
:10921000FFF7B8FF38B94FF4FA71284601F06CFB3C
:1092200020EAE074A4B2284601F050FB204605B0C5
:10923000BDE8F083506500202DE9F04F8F880E883F
:1092400085B08846054639467F4801F0FFF9A6F10A
:109250001003012B814640F28B8095F854203AB3DD
:10926000002404F11603502E55F823A059D0512E96
:109270001AD198F80630B8F808B0022B43D0BBF1E9
:10928000000F11D051466846FFF7FAF9BDF80030DB
:109290005B4549D0514602A8FFF7F2F9BDF80C3002
:1092A0005B4541D095F854200134E4B29442D8D3C0
:1092B00095F84C31002B00F0C38005F5A679002409
:1092C00004E095F84C310134A34246DD59F8040F0F
:1092D000FFF712FCB842F4D1382E03D0392E01D05A
:1092E000362EEED1B8F80AA0BAF1000FE9D0D9F8BD
:1092F00000B05846FFF704FC5045E2D158464146BD
:10930000FFF700FCDDE798F80E30062BB7D1DAF84E
:1093100000305046DB68414698474846FFF736FD27
:10932000C0E7B8F806B0AAE7DAF800305046414680
:10933000DB6898474846FFF729FD0028B2D0502E39
:10934000B0D1514602A8FFF79BF9BDF80C305B4540
:10935000A8D14846FFF778FDA4E7112E2AD0352E74
:1093600003D1B8F80A30002B5BD105B0BDE8F08F0F
:109370002B78002B3FF471AF112E4FF000040CD06E
:1093800005EB84033946586803685B6898470134E5
:109390002B78E4B2A342F3D85FE705EB84033946A8
:1093A000586803681B68984701342B78E4B2A342DD
:1093B000F3D852E7002473B105EB8406D6F85001C8
:1093C000FFF79AFBB84204F101031FD095F84C2136
:1093D000DCB2A242F0D895F8F8100029C5D00024DC
:1093E00005EB8403621CD3F8FC008388BB4203D0E6
:1093F000D4B28C42F4D3B8E703681B6898470134B1
:1094000095F8F810E4B28C42EAD3AEE7D6F85001F2
:10941000FFF76EFB013495F84C31E4B2A342CBD890
:10942000D9E705F5F8752846B8F80C2008F11001C1
:1094300001F090FA284605B0BDE8F04F01F0A2BA5D
:10944000112E8CD1C7E700BF5065002090F8543032
:10945000272B0CD810B4024603F11604013380F810
:109460005430012042F824105DF8044B704700206E
:10947000704700BF0378132B06D800EB830201333B
:1094800003700120516070470020704775DF7047FE
:1094900078DF70477ADF7047054A034692E8030099
:1094A000002283E80300C3E902221846704700BF88
:1094B000E4DC030008B5FFF7EDFF08B1002008BDAC
:1094C000FFF7E6FFB0FA80F0400908BDF8B50024C8
:1094D0000B4F2546A1B2384601F0B8F801340646D4
:1094E00048B1FFF751FC30B13046FFF751FC01287D
:1094F00004BF0135EDB2142CECD12846F8BD00BFF5
:109500005065002008B501804280FFF7C3FFB0FA24
:1095100080F0400908BD00BF81607047C16070479E
:109520000A88102A03D1CA7B012A0B4600D0704753
:1095300010B40A8A01884488914201D8A24205D910
:1095400001465DF8044B9888FFF7A0BF5DF8044B17
:10955000704700BF70B5224C224E234A05462DEDC0
:10956000028B314620460CF0A5FF2B8807EE903A7F
:10957000F8EEE77AB7EE048A67EE887A17EE900A7B
:1095800010F072FE02460B46204618490CF092FF7E
:109590006B8807EE903AF8EEE77A67EE887A17EE76
:1095A000900A10F061FE0B460246114920460CF06D
:1095B00081FF20460CF0FCFD314620460D4A0CF0A0
:1095C00079FFEA880C4902EB8202204652000CF037
:1095D00071FFBDEC028B2046BDE870400CF0E8BD89
:1095E000E47D0020FCDC0300ECDC030004DD030070
:1095F00014DD030024DD030034DD03008ADF70473F
:1096000030B403461F22012418628025828480F82A
:109610002D4000220B4C80F82E50C0E911228262AE
:10962000C0F8464080F82C2080F82F20028680F871
:1096300038204263C0E90F22C264A0F8502030BC39
:10964000704700BFA00050002DE9F0478CB06F4676
:1096500038460C4687E80C0000F058F9C0B21028D4
:109660002ED0019F07220623D4F818A094F81C805E
:109670008DF80D208DF80C30C6084FF000091F2220
:10968000002104A811F08BF9B8F1010F06D8B9F147
:10969000000F34D000200CB0BDE8F08703AB51467A
:1096A00013F809C043460A784878D443604502F16C
:1096B0000105234407D013F0FF032944F3D1E6E763
:1096C00003220223D0E7013A0231D5B2DFD02A4685
:1096D00004A811F040F9002DD9D004AC02E012F03A
:1096E000FF05D4D032462046394611F025F93444DE
:1096F000AA1B0028F3D101200CB0BDE8F0874FF081
:109700000109BCE7F0B50B888E88103B85B00C468C
:1097100005460D2B2CD8DFE803F070072B2B2B2BE5
:109720002B2B2B2B2B5B2B2D836AF340DB071FD5B9
:109730005048FEF7BBFCD8B9AB6A95F82C20012441
:1097400004FA06F623EA0606AE628AB995F82D30C9
:1097500073B11F232D62AB8405F1200105F1440094
:10976000FFF74CFF20B9444800F088FF85F82C40F3
:1097700005B0F0BD90F92E2091F91B309A4220DC03
:1097800090F8383001F108079BB1002602E0D6B20C
:10979000B3420CD96B6B03EBC6030CCB394628469E
:1097A000FFF752FF721C95F838300028EFD09E4228
:1097B00007D095F82F30002B38D094F82430012BA7
:1097C00041D805F120010020FFF718FF05B0F0BDDA
:1097D0000B7A012BCCD1002480F82C40264800F0D5
:1097E00061FF2A6C002AC3D004AB0094214643F8E1
:1097F000044D20460CF02AF9BAE7CB7B022BB7D1F7
:109800000122836A02FA06F633430022836280F85B
:109810002C20ADE70139CCB2911CD2D0022C20D93A
:109820005388ADF80C302A8E9A42CAD1EA6B002ACE
:109830009ED004AB012143F8047D384600912421D9
:109840000CF004F994E7226A11785078CC43FF2891
:1098500001F101062344DDD013F0FF033244F3D1BC
:10986000AFE7224603A811F076F8002CA9D0BDF886
:109870000C30D8E71068002050650020A8DF704742
:10988000704700BF30B500F1080483B0054620469C
:1098900000F04AF821460DF106020120FFF7EEFF25
:1098A000044628B9044B05481D602946FFF7E2FD30
:1098B000204603B030BD00BF4C650020506500203D
:1098C00030B482B06C4684E806000346064943F88B
:1098D000081B054694E80300002183E8050028469C
:1098E000A98002B030BC704744DD030062DF7047DE
:1098F00063DF70470122002301808270436070475C
:109900000023416083700380704700BF8378012B80
:1099100008D042680AB180207047012B8CBF80209C
:10992000002070471020704708B5837873B94368EA
:1099300063B10246911C1846FFF7D8FF102051680A
:10994000FFF7D6FFB0FA80F0400908BD012008BD3E
:1099500000680B6820F07F4023F07F43C01AB0FA04
:1099600080F04009704700BF4DDF70474EDF704701
:109970004FDF70474BDF704710DF70476DDF704778
:109980007CDF70477DDF704760DF704769DF7047BD
:1099900061DF704766DF704767DF7047704700BF61
:1099A00004200CF005BB00BF30B52C4C2C4D83B00F
:1099B0004FF0FF31D4F8080309F026FE0028F7D055
:1099C0006DB301A8FFF7D6FF05280346F0D00028A5
:1099D000F7D1019A911E10460929F2D80FF2040C12
:1099E0005CF821F04F9A02004F9A0200C3990200DE
:1099F000C3990200C3990200C3990200C3990200EF
:109A0000399A0200399A0200399A02000A2B04D0CE
:109A1000092B21D00B2B02D1012008F013FD01A846
:109A2000FFF7A8FF0528C3D00028F8D1019BA3F1B8
:109A30000902022AF3D8E9E70A2A04D0092A09D040
:109A40000B2ABED10123184608F0FCFCB9E707F049
:109A500011FDB6E70223F6E70220DEE7506500209D
:109A60007514030070B5A4498EB00446A3480CF0E9
:109A7000A7FBA34AA349A1480CF01CFD94F8ED12E2
:109A80009E480A220CF0B4FB9F4A9E499B480CF06A
:109A900011FDD4F8E81299480A220CF0D3FC9B4A35
:109AA000984996480CF006FD94F8EC1293480A2267
:109AB0000CF09EFB94F8FC32002B7AD194F8FD3226
:109AC000002B40F0BB8092498C480CF079FB06AD2E
:109AD000904A8C49894820260CF0ECFC3246002143
:109AE000284610F05CFF0EA9284621F82A6DFFF7E2
:109AF00049FF294681480CF0DDFC80480CF058FBFA
:109B0000854A80497D480CF0D5FC94F8FC228349B5
:109B10007A480CF0CFFC94F8FD22814977480CF08C
:109B2000C9FC76480CF044FB7E4A764973480CF039
:109B3000C1FC7D4B0FCB85E80F0004A8FFF71EFF8B
:109B40000023009306223A230DF111016B480CF01B
:109B5000CDFC9DF81030754968480EAA5B0802EBF1
:109B6000830353F8202C0CF0A5FC64480CF020FB78
:109B70006F4A644961480CF09DFC94F9FE226D49DE
:109B80005E480CF097FC5D480CF012FB04F52C705D
:109B9000FFF7E0FC94F8FC32002B40F0A08094F832
:109BA000FD32002B40F08B8054480CF001FB0EB0CE
:109BB00070BD614951480CF003FB60494F480CF0FF
:109BC00047FA5F4A4F494D480CF074FC0A22B4F83A
:109BD000EE124A480CF046FB584948480CF038FA57
:109BE000584A484945480CF065FC0A22B4F8F0127E
:109BF00042480CF037FB514940480CF029FA524AD0
:109C000040493E480CF056FC0A2294F8F2123B48B8
:109C10000CF0EEFA494939480CF01AFA4B4A394926
:109C200036480CF047FC0A2294F8F31233480CF043
:109C3000DFFA94F8FD32002B3FF445AF44492F483A
:109C40000CF0BEFA3D492D480CF002FA3C4A2D4971
:109C50002A480CF02FFC0A22B4F8F41227480CF022
:109C600001FB364925480CF0F3F9364A25492348CB
:109C70000CF020FC0A22B4F8F61220480CF0F2FA9C
:109C80002E491E480CF0E4F92F4A1E491B480CF0DF
:109C900011FC0A2294F8F81218480CF0A9FA274986
:109CA00016480CF0D5F9294A164914480CF002FC64
:109CB0000A2294F8F91211480CF09AFA03E7254A9F
:109CC00010490E480CF0F6FB0C480CF071FA02201B
:109CD00000F0E0FE09480CF06BFA0EB070BD1E4AB1
:109CE000084906480CF0E6FB04480CF061FA012034
:109CF00000F0D0FE53E700BF8CDD0300E47D0020C0
:109D0000B4DD0300FCDC0300C0DD0300D0DD030094
:109D100058DE03007CDE030084DE030094DE0300D3
:109D2000A8DE0300B8DE030050DD0300C0DE030040
:109D3000C8DE0300D4DE0300E0DD0300FCDD030029
:109D400004DE03000CDE03001CDE03002CDE030037
:109D500040DE0300F8DE0300DCDE03002DE9F04FF7
:109D600089B00AF0F9FC01284FF4FA7000F0848100
:109D700008F006FF0646B34C06F1080304F55877D1
:109D800004F5007A03934FF0FF31D4F8040309F08F
:109D90003BFC0028F7D04FF4FA730DF11601304662
:109DA000ADF81630FFF7F4FD10B10528EBD0F2E75F
:109DB000B6F80490B9F1130F00F2208104EB890387
:109DC000D3F814531DB131462846FFF743F83388C2
:109DD000013B1B2B5BD8DFE813F0A3005A005A00AD
:109DE0005A005A005A005A005A005A005A005A00A3
:109DF0005A005A005A005A00A8001C005A005A0083
:109E00005A005A005A005A005A005A005A005A0082
:109E1000FE00DFF844824FF0000B58F8043F18466C
:109E200033B1FEF7B1FF18B10BF1010B5FFA8BFBF9
:109E30004745F2D1BBF1000F06D194F810331BB1A6
:109E4000594604200CF076F82846FEF7A1FF0128B9
:109E500000F0F180D4F8CC2262B10223CDF8189042
:109E6000002196F808C00093084606ABCDF81CC048
:109E70000BF0ECFD09F1C40804EB8803586810B13D
:109E800003685B68984704EB880300225A603146F8
:109E90005046FEF781F831466B48FFF733FCB4F8C3
:109EA00012334B45338800F0AB80102B1ED02DB3FE
:109EB0002846FEF76DFF012803D131466348FFF7BE
:109EC0002FFB2846FEF764FF02281BD06048FFF7EF
:109ED00023F900BB31465B48FFF7AEF9D4F868338D
:109EE000002B3FF458AF3046984754E7F37B012BE3
:109EF000DDD1B388A4F81233002DD9D131465348AF
:109F0000FFF70EFB53483146FEF7ECF85048FFF7D9
:109F100003F90028DED031464D48FFF7FFF8D9E7B6
:109F200000214846FFF736FDB1E74FF00008D4F8AE
:109F30000C03CDF80080434642460321464D0AF00B
:109F4000EDFE55F8043F184633B1FEF71DFF18B17A
:109F500008F101085FFA88F8BD42F2D194F8103395
:109F6000002B58D109F1C40804EB8805686820B1BA
:109F700003685B68984700236B60F37B012B0BBF82
:109F800094F8F33294F8F93294F8F2B294F8F8B203
:109F9000029330200DF036F8029B0093039A5B4643
:109FA00049460546FEF7C0FE04EB880328465D607F
:109FB000FEF7EEFE012851D0D4F8C822002A3FF463
:109FC00066AF012300210093084606ABCDF8189038
:109FD0000BF03CFD5BE7D4F86423002A3FF457AF55
:109FE000CDF818900223002196F908C00093084686
:109FF00006ABCDF81CC00BF029FD48E70546E6E6A8
:10A00000102B3FF473AF112B7FF451AF4FF6FF735A
:10A01000A4F812334BE718F1000118BF0121042006
:10A020000BF088FF94F81033002B9BD00121042003
:10A030000BF080FF96E7D4F8BC22002A7FF40DAF26
:10A0400018E700BF50650020AC67002000680020C2
:10A05000206800201068002060680020D4F8B82232
:10A06000002A3FF414AF0021009006AB0846CDF85B
:10A0700018900BF0EBFC0AE710F04EFC06467AE66F
:10A0800038B50446FFF780F804F50070FDF7A8FE28
:10A0900004F50F70FDF7C8FD04F51770FFF7B0FA6F
:10A0A00004F52C70FFF7F8F904F53070FDF7EAFFBE
:10A0B00004F53470FFF716F84FF480530025C4F808
:10A0C000E83222482249234AC4F8EC0240F2011344
:10A0D000C4F8F012C4F8F422A4F8F832A4F8FA5242
:10A0E000A4F8FC52294604F54570502210F057FCA4
:10A0F000C4F8FF5294F8FF3294F80223C4F80453D2
:10A10000032143F0010361F306130A4301204FF6D4
:10A11000FF71C4F80853C4F80C5384F8FE52C4F815
:10A120006853C4F8645384F8100307251020A4F87A
:10A130001213032184F8010384F8FF3284F80053DA
:10A1400084F8022384F80313204638BD010A17005F
:10A15000030001011700030004290DD8DFE801F016
:10A160002017200D0300134BC0F8EE320322012309
:10A1700080F8F22280F8F33270470F4BC0F8EE32CD
:10A180000222012380F8F22280F8F33270470B4B51
:10A19000C0F8EE32012380F8F23280F8F3327047D3
:10A1A000074BC0F8EE32012380F8F23280F8F33228
:10A1B000704700BFF700640080000600170002002F
:10A1C00017000300F0B580F8FC128DB080F8FD2276
:10A1D000B84E04460AF0C4FF0AF0CAFF0AF094FF22
:10A1E0000CA8336940F8243DB349FFF7C5FB18B10B
:10A1F000002528460DB0F0BD03460120FFF7B6FB51
:10A200000120FFF7B1FB0120FFF7B2FBAB4994F847
:10A21000ED5204910A46012009A90993CDE90A33B8
:10A220008DF82450FFF7B2FB0028E1D194F8FD32FD
:10A230000B90CDE90900181C18BF012094F8FC52BE
:10A240008DF82700049A8DF8263009A940208DF852
:10A250002550FFF79BFB0028CAD194F8EC12099017
:10A26000034661F30003CDE90A00049A8DF8243017
:10A2700009A9A020FFF78AFB0028B9D1D4F8E83259
:10A280000A900B90049A099309A9A120FFF77EFB7D
:10A290000028ADD194F8FC32002B40F0BC8094F83B
:10A2A000FD32002B48D000230225B4F8F472049A42
:10A2B000099309A92320CDE90A338DF82450ADF87C
:10A2C0002670FFF763FB002892D1CDE9090094F8CE
:10A2D000FD72B4F8F6320B90049A8DF8245009A957
:10A2E00020208DF82670ADF82830FFF74FFB0028AE
:10A2F0007FF47EAF099094F8F832049A8DF82450D8
:10A30000CDE90A0009A922208DF82630FFF73EFB8F
:10A3100000287FF46DAFCDE909000B9094F8F93275
:10A32000049A8DF8245009A921208DF82630FFF7D2
:10A330002DFB00287FF45CAF04A8FFF725FB002865
:10A340007FF456AFC3B2CDE9070043F0010307A97C
:10A3500002208DF81C30FFF71FFB00287FF448AF68
:10A3600004F52C70FFF7A6F8054600283FF440AF2F
:10A370000CA8337D00F8283D0B225149FFF700FB64
:10A3800000287FF435AF0120FFF7F0FA0120FFF736
:10A39000EBFA0120FFF7ECFA94F8FD32002B40F0C5
:10A3A000848003220021012008F03AFCC4F8040351
:10A3B00000283FF41DAF05AB0326CDE900634FF441
:10A3C000A06200233F49404809F062FC3246002168
:10A3D000012008F025FCC4F8080300283FF408AF6A
:10A3E00006ABCDE90063C82200233849384809F09C
:10A3F0004FFC3849384A00234FF48000086000922F
:10A40000184601224FF480710AF030FCC4F80C03A6
:10A4100000F0C4FAEDE609900123B4F8EE52049A74
:10A420008DF82430CDE90A0009A92320ADF8265083
:10A43000FFF7ACFA00287FF4DBAECDE9090094F811
:10A44000FC72B4F8F0520B90049A8DF8243009A9EC
:10A4500020208DF82670ADF82850FFF797FA0028D5
:10A460007FF4C6AE099094F8F252049A8DF8243025
:10A47000CDE90A0009A922208DF82650FFF786FAB7
:10A4800000287FF4B5AECDE9090094F8F3520B90A3
:10A49000049A8DF8243009A921208DF82650FFF761
:10A4A00075FA00283FF4FBAEA2E604F53070FDF724
:10A4B000F7FD76E750DD03009D9902000060002063
:10A4C00078DD030084DD03005D9D020088DD03006C
:10A4D000A999020000E100E0A199020030B5084B03
:10A4E00083B002AC1B7D04F8043D08460D4611F014
:10A4F0004BF9294682B22046FFF742FA03B030BD3D
:10A5000050DD030000B583B002AB084623F8022DEE
:10A510001946FFF737FA20B99DF8060003B05DF839
:10A5200004FB002003B05DF804FB00BF70B4254BB2
:10A530000C4606460FCB85B06D4607C59DF9002039
:10A540002B80A24237D09DF90130A34233D09DF930
:10A550000230A3422FD09DF90330A3422BD09DF9A6
:10A560000430A34227D09DF90530A34223D09DF9A2
:10A570000630A3421FD09DF90730A3421BD09DF99E
:10A580000830A34217D09DF90930A34213D09DF99A
:10A590000A30A3420FD09DF90B30A3420BD09DF996
:10A5A0000C30A34207D09DF90D30A34203D0002008
:10A5B00005B070BC7047012086F8FE4205B070BC43
:10A5C000704700BF68DD030090F9FE02704700BFCE
:10A5D00080F81013704700BF70B5054682B0D0F800
:10A5E0000C030C460AF0C6FB0B4AA402A2FB043281
:10A5F000002306469209D5F80C03009304210AF0C3
:10A600008DFB3EB9D5F80C03009633463246032144
:10A610000AF084FB02B070BDD34D6210132906D836
:10A6200000EB8100D0F8140308B1FEF7ADBB0020A9
:10A63000704700BFB0F81203704700BF01290CBF7C
:10A64000B0F8EE02B0F8F402704700BF13299ABFC9
:10A6500000EB8100D0F814030020704710B5064CC1
:10A660000021D4F8080308F011FED4F804030021F7
:10A67000BDE8104008F00ABE5065002090F8103385
:10A6800003B9704710B582B0D0F80C4309F0E0FC74
:10A69000002302460093204601210AF03FFB02B04E
:10A6A00010BD00BFF0B583B0002507462B46D0F89B
:10A6B0000C0300952A4603210AF030FB07F5447489
:10A6C00007F5587654F8041F084621B1FEF75CFBE5
:10A6D00008B10135EDB2B442F4D197F810330BB99B
:10A6E00003B0F0BD291C18BF0121042003B0BDE850
:10A6F000F0400BF01FBC00BF90F8103313B10420E2
:10A700000BF018BC704700BF10B5044606480CF0AB
:10A7100057F838B1D4F8043323B12046BDE81040CF
:10A72000FFF7A0B910BD00BFE47D00200148FFF78E
:10A73000A7BC00BF506500200020704770B582B0F4
:10A740006D46044641F60A012846FFF7D3F895E81E
:10A7500006002046FFF7B4F820460F4B40F8103BA8
:10A760002422002110F01BF90C4E0D480D496062A7
:10A770000023A363636384F83C3018250622132367
:10A780002046666184F8355084F83920A16284F847
:10A790003A3002B070BD00BF8CDF03004CDF030015
:10A7A00068DF030070DF0300416180F835207047E7
:10A7B000016280F838207047416280F83920704784
:10A7C000816280F83A2070472DE9F04397B0064641
:10A7D000FFF758F88146002847D1B369002B51D0C4
:10A7E000F369002B45D006F13405C5F5285808F16A
:10A7F000230806F10C0406F1300754F8043F02A8C0
:10A800006BB3FDF78BFE336B2268E9469A4208EB87
:10A81000050189B2484608BF42F65021FFF76AF8A1
:10A8200099E8060002A8FDF7EBFE02A8FDF7F6FE88
:10A83000022102A8FDF7F6FE297802A8FDF7F6FE30
:10A8400002A8FDF77BFC814602A8B9F1000F22D1D6
:10A850002A782168FDF71AFF02A8FDF767FCBC42C1
:10A8600005F10105C9D14FF00009484617B0BDE810
:10A87000F0830BF079F9044610F086FFF46186F856
:10A880003700B0E70BF0B0F9044610F07DFFB4617B
:10A8900086F83600A4E7FDF749FC484617B0BDE846
:10A8A000F08300BF0022012142700170C0E9012243
:10A8B000C2818281704700BF017001B1704710B53D
:10A8C00004460A2008F0EEF9606010BD037810B568
:10A8D000044613B9406809F043F80023012263706D
:10A8E000C4E90133E381A381227010BD002381609C
:10A8F0008281C381704700BF037870B504460D465E
:10A90000B3B940681149AD02A1FB053101238909A2
:10A91000637008F079FEB0B94FF0FF352378002658
:10A9200066701BB1606809F01BF86660284670BD50
:10A9300003220021012008F073F960600028E1D1B2
:10A940004FF0FF35F2E7E589ADB2E7E7D34D62108E
:10A950004078704770B586899642044635468068CF
:10A9600028BF154621B12A460FF0F5FFA068A68939
:10A97000E3892B442844761B9BB2A060A681E38127
:10A98000284670BD406820B100231A46194608F0D9
:10A99000BBB97047B1DF7047B2DF704708B50C48EC
:10A9A00006F0F4FB0B490A4800F026FF58B10A49AB
:10A9B000074800F021FF00B108BD07490448BDE881
:10A9C000084000F035BF0349014800F031FFEEE7D1
:10A9D000D0680020E8DF0300FCDF030010B586B07C
:10A9E0000323CDE9030114460093104603AB034A49
:10A9F000059450210BF02AF806B010BD95AC02006A
:10AA00004FF6FF739A4211D070B586B00D460323FE
:10AA10000021064614460093084603AB044A0396F9
:10AA2000CDE904540BF012F806B070BD0020704759
:10AA300091AD020030B5144B144CA1B015460A4636
:10AA400001280CBF21461946684610F03DFE6946B4
:10AA500007A80F4B002201F061F807A801F0E6FA01
:10AA600018B90024204621B030BD044607A800F0E4
:10AA7000E3FF5028F5D10246294607A801F01CFA49
:10AA800007A801F08FFAEDE7CCDF0300B0DF030089
:10AA9000D06800202DE9F041414A4249424BDFF89D
:10AAA0000C81CCB000AF012818BF11460022381D20
:10AAB00001F034F807F168003B4901F01DF803E0AC
:10AAC00007F1680001F06EFA0022391D07F1CC0091
:10AAD00001F0B6FAD7E93420D7E93943D7F8DC508A
:10AAE000D7F8D86097F8E0C0FA663867412207F1D6
:10AAF000EC0107F18800C7E91D6587F87CC0C7E94C
:10AB000020430FF028FF07F1680001F08FFAC0B36F
:10AB100007F1680001F092FA0028D1D107F168002E
:10AB200000F08AFF041E07F16800C9DD01F002FA97
:10AB3000211807F1680001F0DFF907F1680000F063
:10AB40007BFF021E02F107036C4623F0070392B25B
:10AB500007F16800B4DDADEB030D694601F0ACF917
:10AB600007F1680001F068FA054607F1680001F096
:10AB7000FDF96A4603462946404610F069FDA546A0
:10AB80009EE70A2010F07CFD07F1680001F00AFA48
:10AB9000381D01F007FA07F59877BD46BDE8F0814A
:10ABA000FCDF0300E8DF0300D068002098DF03002B
:10ABB0002DE9F0414FF6FF73A0B09A4200AF5CD090
:10ABC000314B0C463149012818BF1946384610F060
:10ABD0007BFD394607F11C002D4B002200F09EFF43
:10ABE00007F11C006D4601F021FA50B9002407F16D
:10ABF0001C0001F0D7F92046AD468037BD46BDE8C0
:10AC0000F08107F11C0000F017FF061E08DD07F1B8
:10AC10001C0001F08FF9311807F11C0001F06CF9EC
:10AC200007F11C0000F008FF061E08DD07F11C00FC
:10AC300001F080F9311807F11C0001F05DF907F10E
:10AC40001C0000F0F9FE0028D0DDC31D23F007032F
:10AC500086B2E846ADEB030D6946324607F11C00AB
:10AC600001F02AF92046694632460323FFF792FE97
:10AC7000B0FA80F46409C546B9E70024204680375D
:10AC8000BD46BDE8F08100BFCCDF0300B0DF0300AC
:10AC9000D0680020F0B51446ADB0012804AF0E46D0
:10ACA00007BF528A35493649E28D384610F00CFD0F
:10ACB000394634486D4600F09FFD78B9394607F1B2
:10ACC0003C00304B012200F029FF07F13C0001F06D
:10ACD000ADF940B9A437AD46BD46F0BD3946294867
:10ACE00000F000FEEAE7502107F13C0000F0D2FE40
:10ACF0005022214607F13C0000F00CFE20220021EA
:10AD000007F11C000FF04BFE31461F48FFF79EFC79
:10AD100007F11C012022FEF741F83B7FA3B994F80C
:10AD2000491094F84D3094F84E20039194F84A104D
:10AD3000029194F84B10019194F84C10009107F196
:10AD40001C00124910F0C0FC07F11C0010F01CFDA3
:10AD5000013084B2E1B207F13C0000F09BFE07F144
:10AD60001C01224607F13C0000F0D4FD07F13C0035
:10AD700001F018F9A437AD46BD46F0BDB0DF0300C1
:10AD8000CCDF0300D06800205065002010E00300F5
:10AD90002DE9F043A3B000AF07F18804002324F8A5
:10ADA000823D0D4680461946914603232246284699
:10ADB000FFF7F2FDFB886E4623B9B5468C37BD46DA
:10ADC000BDE8F0830733DB08A6EBC3039D462246AC
:10ADD000284669460323FFF7DFFD6D460446002839
:10ADE000EBD1274B27494A46B8F1010F18BF194646
:10ADF00007F1080010F068FC07F1080107F12400D2
:10AE0000214B012200F08AFE07F1240001F00EF927
:10AE10000028D2D0214607F1240001F06DF807F197
:10AE2000240000F009FE041E08DD07F1240001F0F3
:10AE300081F8211807F1240001F05EF807F12400E1
:10AE400000F0FAFD041E08DD07F1240001F072F89D
:10AE5000211807F1240001F04FF8FC8807F12400C5
:10AE6000E1B200F017FE2246294607F1240000F067
:10AE700051FD07F1240001F095F8B5469EE700BFAB
:10AE8000CCDF0300B0DF0300D0680020437C03B1B7
:10AE9000704730B5012285B042740321FF2201932F
:10AEA00004468DF803208DF806208DF80510827B6E
:10AEB000417B8DF800204FF080451A4602958DF8B1
:10AEC0000110057BC3736946037403938DF8025028
:10AED0000AF0CAF9A37B1F2B86BF03F01F030C4A9D
:10AEE0004FF0A04203F5E07340F2013142F8231025
:10AEF000637B1F2B86BF03F01F0305494FF0A04162
:10AF000003F5E07340F2033241F8232005B030BD71
:10AF10000003005010B586B006AB012403F8111DE4
:10AF2000002202A90293CDE9034305940AF0E2FA54
:10AF30009DF8070006B010BD094A0A4B30B4D2E9AB
:10AF40001910146E1C7300220124074D1C71987394
:10AF50005973DA731A741D605A749A6030BC704762
:10AF600064E30300BC68002000F0024010B5044612
:10AF70000170084601210AF09DFF207801210AF0A6
:10AF8000D9FF042363700248FFF780FF204610BDFD
:10AF9000BC68002010B50021044600780AF0CAFF02
:10AFA00020210448FFF7B6FF20780121BDE81040BA
:10AFB0000AF0C0BFBC68002010B50021044600782C
:10AFC0000AF0B8FF30210448FFF7A4FF20780121E0
:10AFD000BDE810400AF0AEBFBC680020F8B5002103
:10AFE0004478074600780AF0A5FF60210E48FFF775
:10AFF00091FF8CB10C4E002500213046FFF78AFFEF
:10B00000631E13F0FF0440EA0525F5D138780121CD
:10B010000AF090FF2846F8BD3878254601210AF04D
:10B0200089FF2846F8BD00BFBC68002070B50A4DF6
:10B0300004460E46007800210AF07CFF284688214D
:10B04000FFF768FF31462846FFF764FF20780121AB
:10B05000BDE870400AF06EBFBC68002070B50C4EB1
:10B0600005460C46007800210AF064FF9021304626
:10B07000FFF750FF2146304604F00304FFF74AFF74
:10B08000C4F10404287801210AF054FF6C7070BDEB
:10B09000BC680020F8B504460D46007800210AF08F
:10B0A00049FF98210D48FFF735FF617879B10B4EC4
:10B0B00000270139C91BC90025FA01F1C9B2304680
:10B0C000FFF728FF01376178FFB2B942F1D8207845
:10B0D0000121BDE8F8400AF02DBF00BFBC68002088
:10B0E00070B50446C3F38100C3F38116FF2B0D46F0
:10B0F0006074C3F3011103F00300A0748CBF00233C
:10B1000001238E4214BF0420032015FB00F080B2FF
:10B1100023700023E6742174A0806370237263613E
:10B12000012116460FF092FBE06020B9C4F802003E
:10B13000E680204670BD6580E680204670BD00BF79
:10B1400010B50446C0680FF0EFFBB4F90600002804
:10B1500002DB00210AF0AEFE204610BD10B5044609
:10B16000B0F90600002807DB01210AF0A3FE002148
:10B17000B4F906000AF0DEFE0123637010BD00BFC3
:10B18000C368002B00F0DE802DE9F04F824693B0BB
:10B1900007F0D0FCDAF81430C31AB3F5967FF7D372
:10B1A0007E4BBAF804400FCB12AD05E90F00DDF875
:10B1B00038B0DBF8003543B9DBF86035002B04DA32
:10B1C000DBF86435002BC0F2BE80DDF83CB0DBF864
:10B1D000003543B9DBF86035002B04DADBF8643561
:10B1E000002BC0F2BB81DDF840B0DBF8003543B97D
:10B1F000DBF86035002B04DADBF86435002BC0F295
:10B20000B881DDF844B0DBF8003543B9DBF86035D0
:10B21000002B04DADBF86435002BC0F2B58109F0AD
:10B22000F5FD5F4BBAF9062053F822301F2B76D874
:10B23000012202FA03FB4FF0A0465A495A4CCB6850
:10B240009AF80000594A43F08073CB6023680028C5
:10B2500043F0010323600CBF4FF4C3634FF430731A
:10B26000039342F0010304930BBF4FF01A084FF011
:10B270001208462729270CBF9C254725CDF808A092
:10B280005346B3F804A0D3F80CE063680193BAF115
:10B29000000F4AD00AF1FF391FFA89F909F10109B3
:10B2A000F14400221EF801CB0820802163689B1A1C
:10B2B000AB42FBD36268D6F808351CEA010F43EABB
:10B2C0000B03C6F8083521D063689B1ABB42FBD339
:10B2D000D6F80C35013843EA0B034FEA5101C6F8A2
:10B2E0000C35E3D1CE45DDD1039B03FB0AFA63683D
:10B2F0009B1AAB42FBD36368019A9B1A534516D342
:10B30000049B4FF496409847029BBAE763689B1AE8
:10B310004345DDD263689B1A4345F7D3D8E7203B0A
:10B32000012202FA03FB224E87E75246DFE7DDF8EF
:10B3300008A009F075FD07F0FDFBCAF8140013B072
:10B34000BDE8F08F7047DBF86835002BBFF63DAFE6
:10B35000DBF86C35002BBFF638AF2401231D0293B8
:10B3600009F0FAF9012800F07181029807F008FC51
:10B370000546002D3FF453AFBAF804309AF8002088
:10B380000392002B00F07081DAF80C300593002353
:10B390000826CDF834B001935BE000BF30E0030035
:10B3A00064E30300F0ED00E0001000E040E0030083
:10B3B0000003005048F2130848F2080912F0800F09
:10B3C00014BF47464F4612F0400F14BF44464C4648
:10B3D000079B25F8107012F0200F14BFC446CC460E
:10B3E00025F8114012F0100F25F813C0049B089C9B
:10B3F00014BFC646CE4625F813E012F0080F069B90
:10B4000014BF47464F4612F0040F25F8137014BFBF
:10B4100041464946099B25F8141012F0020F14BF4B
:10B420004046484625F8130012F0010F0A9B0CBF56
:10B430004A46424625F81320019BBAF8041001330E
:10B440009BB206F108029942019392B240F2A780A2
:10B450001646A6F1060E1FFA8EF3F41EA4B2B01E15
:10B46000721E0793019B089480B292B2B41E371FDC
:10B470001FFA84FBBFB2A6F1050C09900A92701E58
:10B48000DA001FFA8CFC0697CDF830B0F71E1FFAD1
:10B4900080FB039CCDF810C090B2059AF046F11FD6
:10B4A000A6F10709A6F1050EA6F1040CBFB289B2F8
:10B4B0001FFA89F91FFA88F81FFA8EFE1FFA8CFC12
:10B4C0000B97D25C002C3FF475AF48F2060712F0E0
:10B4D000800F48F20D030CBF3C461C4612F0400F93
:10B4E0000CBF3946194612F0200F08BF3B460493A3
:10B4F00012F0100F48F20D0318BF1F46069712F006
:10B50000080F48F2060725F8104014BF1C463C46B9
:10B5100012F0040F25F819109946394618BF19463C
:10B52000BDF8103025F81830BDF8183025F81E3059
:10B530000B9B25F81C4012F0020F384625F813101B
:10B540000CBF384648460C9B12F0010F14BF4A4608
:10B550003A4625F8130025F81B206DE7DBF868351F
:10B56000002BBFF640AEDBF86C35002BBFF63BAED0
:10B57000F3E6DBF86835002BBFF643AEDBF86C353D
:10B58000002BBFF63EAEE8E6DBF86835002BBFF6D1
:10B5900046AEDBF86C35002BBFF641AEDDE6721C23
:10B5A00092B2DDF834B0520005EB46034FF4004090
:10B5B0001880039BA8520021CBF80415CBF80C157A
:10B5C000002B3FD12823CBF80835029BBAF906108F
:10B5D000274A58080023CBF81435CBF81035CBF8A0
:10B5E0002055CBF82405CBF82835CBF82C3552F86C
:10B5F0002120CBF860250122CBF80025CBF81031B3
:10B60000CBF80820DBF810312BB90BF035FDDBF857
:10B610001031002BF9D000234FF0FF32CBF810315E
:10B62000CBF80035CBF8602509F096F801282846BC
:10B6300011D007F0B7FA07F07DFACAF8140013B07A
:10B64000BDE8F08F1423CBF80835BEE702980FF061
:10B6500063F905468DE60FF067F907F06BFACAF853
:10B66000140013B0BDE8F08F2B4602229EE700BF06
:10B6700064E30300F0B444889DF810608C4219D94B
:10B68000047A44B112FB04F214FB03F314FB06F436
:10B69000120A1B0A260AC57C077CC468AF420BD07D
:10B6A00004EB810100244C55057C4A55427C8B54A7
:10B6B000837CCE54F0BC704701EB41012144F4E798
:10B6C00070B4037A4E1CF6B2B3421AD0013B13F0A9
:10B6D000FF03C56817D0FF2917D03102013991FB4C
:10B6E000F3F189B283885BB12A46137801FB03F337
:10B6F0001B1202F8013B531B84889BB29C42F4D876
:10B70000067270BC70471946ECE74FF6FF7191FB6B
:10B71000F3F1E7E7704700BF10B504460BF082FC79
:10B72000204610BD38B50A4B04460D46442240F869
:10B730000C3B00210FF033F90023A560237104F1C5
:10B740005401012007F0BAFC2065204638BD00BF37
:10B7500050E0030070B504460E46006D4FF0FF3117
:10B7600007F052FF257955B98EB1A660314604F134
:10B770000C0003F0F5FDB0FA80F56D09257100238A
:10B78000206D1A46194607F0BFFA284670BDA66814
:10B79000002EF4D0EAE700BF70B505464FF0FF3148
:10B7A000006D07F031FF2B7905F10C06F3B1002392
:10B7B0002B71304603F0D6FE044668B9A9683046BE
:10B7C00004F048FE044638B93046A96803F0C8FDC5
:10B7D000044608B901232B710023286D1A46194627
:10B7E00007F092FAB4FA84F0400970BD3046A968B7
:10B7F00004F030FE0446EFE730B5044695B00D4640
:10B80000006D4FF0FF3107F0FFFE294601AA04F159
:10B810000C0003F05FFD002305461A46206D194613
:10B8200007F072FAB5FA85F0400915B030BD00BFD7
:10B830002DE9F04F83B00B7800AF2F2B78600CBF51
:10B840004C1C0C4605460E46006D4FF0FF3107F0CC
:10B85000DBFE05F10C084FF0000918E0ADEB000D20
:10B860008A456D468DF800900DF1010001DD0FF065
:10B8700096F83146524628460FF06DF82946404664
:10B8800005F0B4F808B1113028D10134DD46204666
:10B890002F210FF048FFA0EB060A0AF10802044628
:10B8A000EB4622F0070000215246002CD6D131464B
:10B8B000404605F09BF878B1113014BF00240124F4
:10B8C0007A680023106D19461A4607F01DFA2046C3
:10B8D0000C37BD46BDE8F08F0124F1E70024DD46BA
:10B8E000EEE700BF38B504460D46006D4FF0FF315E
:10B8F00007F08AFE294604F10C0005F095FA0023B2
:10B9000005461A46206D194607F0FEF9B5FA85F08E
:10B91000400938BD70B5036904460D46186D4FF0F7
:10B92000FF31164607F070FE237D4BB100252269DA
:10B930000023106D19461A4607F0E6F9284670BD37
:10B940002069A1692A4633460C3002F0ABFD20EA9B
:10B95000E075ECE770B50369044682B04FF0FF3143
:10B96000186D07F051FE257D45BB2069A1690C309B
:10B9700003F0A4FC02AA0646206902F8015D012337
:10B98000A1690C3003F0F8FB00282069A169C8BF49
:10B990009DF80750324600F10C004FF00003D8BF6D
:10B9A0004FF0FF3503F058FC22690023106D194653
:10B9B0001A4607F0A9F9284602B070BD4FF0FF35CE
:10B9C000F2E700BF38B5036904464FF0FF31186D48
:10B9D00007F01AFE237D4BB1002522690023106D6C
:10B9E00019461A4607F090F9284638BD2069A16922
:10B9F0000C3003F065FC05462069A1690C3003F0AA
:10BA00005DFC2D1AE9E700BF10B5036904464FF04D
:10BA1000FF31186D07F0F8FD237D23B92069A16976
:10BA20000C3005F0F7F822690023106D19461A460C
:10BA3000BDE8104007F068B970B50369044682B0EC
:10BA40004FF0FF31186D07F0DFFD257D55B12269FC
:10BA50000023106D19461A4607F056F94FF0FF30D3
:10BA600002B070BD2069A1690DF1070201230C30FD
:10BA700003F082FB226906462B46106D29462A46B2
:10BA800007F042F9002ECCBF9DF807004FF0FF30C1
:10BA900002B070BD30B50368164A5B6883B093424C
:10BAA0008DF807101ED1036904464FF0FF31186D61
:10BAB00007F0AAFD237D53B1002522690023106DF4
:10BAC00019461A4607F020F9284603B030BD206910
:10BAD000A1690C3001230DF1070202F0E3FC20EA1A
