:020000022000DC
:1060000000000420E90B0300290C03002B0C030003
:106010002D0C03002F0C0300310C030000000000C6
:10602000000000000000000000000000690B0300F9
:10603000350C030000000000890B0300390C03003D
:10604000692B03003B0C030089F102003B0C0300A9
:106050003B0C03003B0C03003B0C03003B0C030018
:106060003B0C03003B0C03003B0C03003B0C030008
:106070003B0C03003B0C03003B0C03003B0C0300F8
:106080003B0C03008D0903003B0C03003B0C030099
:106090003B0C03003B0C0300A18802003B0C0300F7
:1060A0003B0C03003B0C03003B0C03003B0C0300C8
:1060B0003B0C03003B0C030000000000000000004C
:1060C0003B0C03003B0C03003B0C03003B0C0300A8
:1060D0003B0C03003B0C03003B0C0300151E0300AC
:1060E0003B0C0300D50D03003B0C03000000000037
:1060F000000000003B0C0300000000003B0C03000C
:10610000000000000000000000000000000000008F
:10611000000000000000000000000000000000007F
:10612000000000000000000000000000000000006F
:10613000000000000000000000000000000000005F
:10614000000000000000000000000000000000004F
:10615000000000000000000000000000000000003F
:10616000000000000000000000000000000000002F
:10617000000000000000000000000000000000001F
:10618000000000000000000000000000000000000F
:1061900000000000000000000000000000000000FF
:1061A00000000000000000000000000000000000EF
:1061B00000000000000000000000000000000000DF
:1061C00000000000000000000000000000000000CF
:1061D00000000000000000000000000000000000BF
:1061E00000000000000000000000000000000000AF
:1061F000000000000000000000000000000000009F
:10620000044B05481B1A062B02D9044B03B118474F
:10621000704700BF0B360020083600200000000049
:1062200005490648091A891001EBD171491002D0BD
:10623000034B03B11847704708360020083600208A
:106240000000000010B5064C237843B9FFF7D8FFD3
:10625000044B13B10448AFF300800123237010BD39
:106260000836002000000000EC78030008B5084B59
:106270001BB108490848AFF300800848036813B908
:10628000BDE80840CCE7064B002BF9D09847F7E76C
:10629000000000000C360020EC78030004360020DB
:1062A00000000000154B002B08BF134B9D46A3F5C3
:1062B000803A00218B460F461348144A121A0DF0FB
:1062C00010FA0F4B002B00D098470E4B002B00D03C
:1062D00098470020002104000D000D48002802D03E
:1062E0000C48AFF300800DF091F9200029000AF06E
:1062F000BBFC0DF065F900BF0000080000000420A1
:10630000000000000000000008360020E06F0020C0
:106310000000000000000000074B13B504460360B6
:10632000406828B1002300931A4605210AF0B2F90B
:10633000204602B010BD00BF7063030010B50446D4
:10634000FFF7EAFF20460AF0E4FC204610BD13B533
:10635000044609F011FE0023024600930121204665
:106360000AF098F902B010BD07B5002300931A4651
:1063700003210AF08FF903B05DF804FB70B50D46F8
:1063800013481449144C164608F0CFFC0A22297809
:106390000F4808F028FD60680AF09CFABEB12B781F
:1063A000292B0ED0402B02D0282B10D103E0BDE8C2
:1063B00070400CF00FB950B96068BDE87040FFF74D
:1063C000C6BF20B16068BDE87040FFF7CDBF70BDAB
:1063D0009C660020A86303008C37002010B510488D
:1063E0000C46012102F00BFA0D4802F035FB0D4975
:1063F0000D4808F09AFC21460A220B480B4C08F085
:10640000F2FC0B49084808F09FFC60680AF062FA49
:1064100020B16068BDE81040FFF7A6BF10BD00BF07
:10642000CC370020BB6303009C660020A43700200B
:10643000D163030070B50D4604462449244808F092
:1064400074FC29460A22224808F003FD251D214933
:106450001F4808F079FC2049284601F011FF90B14F
:10646000204601F03BF81D4C054630B11C49184848
:1064700008F06AFC0123237070BD1A49144808F023
:1064800063FC257070BD1849284601F0F9FED8B1AB
:10649000204601F023F8154D154C064650B115491C
:1064A0000B4808F051FC01232B706068BDE8704078
:1064B000FFF74DBF1049064808F046FC2E70606893
:1064C000BDE87040FFF750BF70BD00BFDE63030042
:1064D0009C66002073750300B03600209C370020B6
:1064E000ED63030017640300043700209437002095
:1064F000A4370020426403006C64030010B511B19E
:106500001024302100E00C46012801D1013106E0C1
:10651000022801D1023102E0042801D10331C9B2BD
:10652000012A01D1033406E0022A01D1023402E03B
:10653000032A01D10134E4B2094803F043FA2146A9
:10654000074803F057FA064803F0FAF9044803F045
:1065500009FA04210248BDE8104003F067BA00BF01
:106560008837002070B5064602200CF041F80C2058
:106570000CF038F8012008F043FE00252C46B54207
:106580000AD014200CF05AF804440A222146074885
:1065900008F061FC0135F2E700200CF029F894FBCB
:1065A000F5F40A200CF01EF8204670BD9C66002011
:1065B00008B51420FFF7D6FF014B186008BD00BFD7
:1065C000A8360020DFED327AB4EEE70AF1EE10FAD9
:1065D00082B057DC9FED2F7AB4EEC70AF1EE10FAC5
:1065E00008DB37EEC00AF2EE047A80EE277ADFEDA0
:1065F0002A7A3EE0DFED297AB4EEE70AF1EE10FAEE
:1066000008DD37EE400AF2EE047A80EE277ADFEDFD
:10661000247A2EE09FED237AB4EEC70AF1EE10FA49
:1066200008DD37EEC00AF3EE047A80EE277ADFED5C
:106630001E7A1EE0DFED1D7AB4EEE70AF1EE10FAE5
:1066400008DD37EE400AF3EE047A80EE277ADFEDBC
:10665000187A0EE09FED177AB4EEC70AF1EE10FA41
:1066600012DD37EEC00AF3EE0E7A80EE277ADFED08
:10667000127A77EEC77AFCEEE77ACDED017A9DF8D3
:10668000040002E0642000E0002002B0704700BF78
:106690000020804500007A450000C84200C07345D4
:1066A0000000B442004067450000A04200C05A45C7
:1066B00000007042000048450000204270B5294C9F
:1066C00088B0202506462A46002168460DF009F8C4
:1066D0002B466A463146204601F040F9204600210B
:1066E00002F0D7F90021204602F089F8204602F096
:1066F000C4F91420FFF736FF1B4EDFED1C7A306023
:1067000096ED000A1A4CB8EEC00A20EE270A30EEC9
:10671000000AFFF757FF05460146204600F04AFFF2
:106720002046144C294600F09BFE1349204608F0F1
:10673000FCFA31680A22204608F08DFB0F492046FA
:1067400008F0F3FA0A222946204608F04CFB0C49CF
:10675000204608F0EAFA6946204608F0F5FA08B043
:1067600070BD00BFCC370020A836002000803B3F22
:10677000003700209C66002097640300AA64030091
:10678000BC64030010B5114C0621204600F056FBF6
:10679000204600F041FB0E49204600F00FFB04F1BB
:1067A000380000F019FB2046012100F077FB20465D
:1067B000F422202100F06BFB20461E2100F065FB37
:1067C00020460021BDE8104000F0C4BBA83A0020DC
:1067D00040370020F7B5334E334F344D08F0F8FC06
:1067E00096ED000ADFED327A324B0090B8EEC00A27
:1067F000186020EE270A3B68019330EE000AFFF78D
:10680000E1FE2B78834204461DD02B492B4808F02B
:106810009BFA2B49294808F088FA0A223168274850
:1068200008F019FB2749254808F07FFA0A2221467B
:10683000224808F0D8FA2146234800F011FE2146EC
:10684000214800F0B7FE0AF08DF8204E204803F0F2
:106850009BF833683860C01A1E4BC0B218700AF03B
:106860008BF81D4800F017FBB0B91C4B1B784BB1DF
:106870000D4B1A6833689A4204D0082269461848BA
:1068800000F03CFE2B78A34206D0164B1B781BB1C0
:1068900021460D4800F08EFE3B6833602C7003B03B
:1068A000F0BD00BFA8360020AC3700202436002001
:1068B00000803B3F98370020E86403009C6600207E
:1068C00097640300AA64030000370020A03700206B
:1068D00088370020B0370020A83A00209C370020DD
:1068E000AC36002094370020F7B53B4C3B483C4D7C
:1068F0003C4F0A2103F010F805225223114620468E
:1069000003F084FA2A4638492046384C0CF026FE1B
:10691000374800262A462146076046600CF01EFED6
:1069200034482A462146076046600CF017FE32487C
:10693000324F334E02F004FC6846324901F07CFCD1
:106940009DE80600304801F059FC68462F4901F0E7
:1069500073FC9DE806002E4801F050FC68462D4966
:1069600001F06AFC9DE80600384600F011FD2A4659
:1069700031463846284F0CF0F1FD6846274901F0B2
:106980005BFC9DE80600384600F002FD2A463146D1
:106990003846234F0CF0E2FD6846224901F04CFCDA
:1069A0009DE80600384600F0F3FC2A46314638469A
:1069B0001D4F0CF0D3FD684642F6192101F036FC5C
:1069C0009DE80600384600F0E3FC2A46314638468A
:1069D0000CF0C4FD03B0F0BDEC3600208837002079
:1069E0000034002070630300759A020019630200EE
:1069F000A43700208C37002050370020AC36002010
:106A0000497102009863030078370020E6650300AF
:106A10004037002088630300283600207863030095
:106A200068360020D66503000037002010B5074CFB
:106A300009F098FF2178064808F08DFA23780023A2
:106A40002370BDE8104009F097BF00BFB0370020A9
:106A5000B83E00202DE9F743874C884EDFF89C8232
:106A6000874D884F01210A200BF096FE204603F047
:106A700010F8204603F062F80023FF221946009226
:106A8000204603F0D9F91021204603F0FAF92046F8
:106A900003F054F830464FF4E1310AF0C3FA4FF4F2
:106AA000E1317948794C08F016FA794802F0F6FE9F
:106AB000042210460021FFF721FD1420FFF752FDAC
:106AC000744BDFED757A186093ED000AB8EEC00ADA
:106AD00020EE270A30EE000AFFF774FD00228146FF
:106AE0000121204601F0A6FC2046012101F087FE8D
:106AF0002046642101F086FE0821204601F04AFE6E
:106B00004146204601F022FE2046644901F0B1FED4
:106B10002046634901F0B0FE6249304608F014F99E
:106B2000614801F04FFB2846122100F048FC00228A
:106B30002846112100F054FC2846012100F044FCB5
:106B40003946284600F053FC284600F005FB49462C
:106B5000284600F085FC49462846544D00F02AFDA1
:106B60005349304608F0F0F84146284602F012FB3F
:106B70002846504902F008FB28464F4902F008FB1E
:106B80004E49284602F002FB284602F005FB4C491C
:106B90004C4D304608F0D8F84B4801F013FB4B49F8
:106BA000304608F0D1F82846122100F008FC0022F7
:106BB0002846112100F014FC2846454900F024FC29
:106BC0002846082100F000FC3946284600F00FFC5A
:106BD0002846404D00F0C0FA28460E2100F0EFFB99
:106BE00011221146284600F0FBFB28463A4900F0E6
:106BF0000BFC2846012100F0E7FB3849284600F04D
:106C0000F4FB2846364D00F0A7FA2846082100F08C
:106C1000D6FB00222846112100F0E2FB284631492C
:106C200000F0F2FB0121284600F0CEFB284600F0E0
:106C300093FAFFF7A7FD204601F032FF2A493046BC
:106C400008F082F8294B0093002301224FF496218B
:106C5000184609F001FD264B5860264B009301228F
:106C600000231146184609F0F7FC234B586003B087
:106C7000BDE8F043FFF76BBBEC3600209C660020BC
:106C80000037002035640200B83E0020CC370020D9
:106C90000C3C0020A836002000803B3FBD6602006F
:106CA000DD6302000F6503007837002050370020B5
:106CB0002F6503005A6503007165030077650300C3
:106CC0007D650300AC360020403700209D65030041
:106CD000B465030028360020C66503007D6302000A
:106CE00068360020CF650300D1630300B165020060
:106CF000A43700202D6A02008C37002003650300B2
:106D000072DF704773DF704777DF70470022C2770A
:106D10000270704770B51D46C37F0E461146EA18D3
:106D20001D2A04460EDC18446A1CE254023000F8A6
:106D3000016C2A460CF0AFFCE27F0232AB18E3771D
:106D4000012070BD002070BD2DE9F041002688B003
:106D500007460D4601EBC2083446454516D0284685
:106D600001F06FFA102802D0802809D00CE008AAA0
:106D7000631C02EB44042A8824F8202CDCB203E0D4
:106D80000EB1002017E06E680835E6E714B966B961
:106D9000012010E0630003F0FE036A460321384639
:106DA000FFF7B8FF0028F2D1EBE7102332460721A6
:106DB0003846FFF7AFFF08B0BDE8F08113B50831E2
:106DC000044603C901228DE8030069462046FFF707
:106DD000BBFF02B010BD000030B589B005462022CF
:106DE00069460C4801F0C6FCEA7F13181D2BC3BF8F
:106DF000C2F11D02D0B20824092403466A46214686
:106E00002846FFF787FF18B1A4F1090358425841FB
:106E100009B030BDCC37002013B50446064801F058
:106E2000EBFC02AA012302F8010D0A212046FFF71C
:106E300071FF02B010BD00BFCC37002007B502AA19
:106E4000012302F8011D1946FFF764FF03B05DF846
:106E500004FB08B50346FFF759FFFF22202183F802
:106E60002020012283F8212083F822209984002207
:106E7000F42019851E21D88483F823205985DA85CA
:106E80009A851A635A63184608BD41857047818404
:106E9000C2840185704790F82300704780F8221063
:106EA00070470000F0B5044687B00E461546002135
:106EB000182268460CF015FC94F821308DF800304B
:106EC00005EB850303EB83031E4A02969B00ADF896
:106ED0000C301368DB0709D41B4BE17F99801B49F9
:106EE0009960C97F1C609981012313606A46164925
:106EF00004F12000FFF704FF08B1002020E014484F
:106F000094F8207001F078FC394602460120FFF722
:106F1000FBFE0028F1D1012194F82000FFF7F2FEDA
:106F20000028EAD10A4801F097FDE28D26859542B6
:106F30004FF0010094BF521B921A84F82300E2859F
:106F400007B0F0BDB4370020B8370020E03A002089
:106F5000CC37002010B50446C1858185FA2105484B
:106F600001F050FC628DA18C2046BDE81040FFF777
:106F700099BF00BFCC37002038B50B88112B0446D1
:106F800012D0262B24D0102B59D1CD7B012D56D1D8
:106F9000002380F823302A4801F06FFD2946284855
:106FA000BDE8384001F075BD8988254800F0AFFC88
:106FB000012844D10021224801F06BFD94F82230D1
:106FC000002B3CD0A18D2046BDE83840FFF7C2BF62
:106FD0000B7A012B33D1002380F823304FF4FA7160
:106FE000174801F00FFCA38D23B9636B03B19847D9
:106FF000002205E0E38D4BB1636B03B19847E28D4E
:10700000E18C2046BDE83840FFF74CBF0C4801F04A
:1070100034FD236B9BB109F0E7F901284FF0100014
:1070200002D10CF019FB01E008F066FA0021236B95
:10703000017243600160BDE838400BF009BA38BD09
:10704000CC37002075DF704710B5044609F0CCF945
:107050000128204603D1BDE810400CF0FDBABDE880
:10706000104008F049BA102242800280C821002254
:107070008280C1808260C26070470000014800F0D9
:10708000C3BB00BF603B00202DE9F3410F888D8812
:10709000112F06460C461CD01F2F39D0102F44D17B
:1070A0002946234800F033FC02283ED1B368002B68
:1070B0003BD03846FFF7C8FFB26842600122027237
:1070C00002AA0021016042F8085D03461068D860FA
:1070D0001AE02946164800F01AFC0228804624D1FE
:1070E000F36813B31420FFF7AFFF0027F2680760BF
:1070F000426080F80880227A019200956A46034631
:1071000003CA1961D860394618460BF0A1F90CE0A2
:1071100054F8080F61686B4603C36946BDF8003038
:10712000ADF802302846FFF78DFF02B0BDE8F081D0
:10713000CC370020AADF7047ABDF7047ACDF704769
:10714000ADDF7047AEDF7047704710B5044609F0F9
:10715000E0FD204610BD000070B55A4B04461B6888
:107160000361061D96B0304601F079F894F822309C
:1071700013F0320101BF94F8232061F3030261F39D
:10718000071284F8232013F00C0101BF94F8242087
:1071900061F3030261F3071284F8242013F0300531
:1071A0000ED04FF00003012262F342038DF8063047
:1071B000454B1B788DF8043094F823308DF805305A
:1071C0001C2200210FA80CF08CFA94F822308DF8C4
:1071D0003C3000230DB91A4600E001AAADF8083092
:1071E00014924FF00003012262F3420360698DF8AC
:1071F0000A3094F823308DF8083058B103784BB139
:1072000010900DF051F902AB80B2ADF84400ADF82A
:1072100046001393A37E13B104F11A0312931422B0
:1072200000210DEB02000CF05CFA04F1230306933D
:1072300094F825300596DB0754BFE3890023ADF8A9
:107240001C30E389ADF8203005AA04F126030FA90C
:107250000020FFF76FFF054680BB637E43B3034604
:10726000012262F342038DF80E3094F82330ADF81A
:107270000C008DF80C30154B186804901422294628
:107280000AA80CF02EFA0223ADF83030ADF83430F5
:1072900004AB0A9303AB0B930DF1020204F1180344
:1072A0000AA928460E93FFF747FF08B1054605E0F7
:1072B000237B1BB92146064800F0F4FD284616B092
:1072C00070BD00BFC8370020F6650300F8650300F5
:1072D000A83800200B88502B73B505460C4614D0F7
:1072E000512B2CD18B79022B03D1436B0BB108317D
:1072F0009847A379012B22D12B6B03B304F108012A
:10730000284602B0BDE870401847CA88C38C9A422C
:1073100005D1866B1EB1CB890A8A1231B047E2884B
:107320006B8D9A420BD1EB6B4BB1628AADF80620A4
:10733000BDF80610284602B0BDE87040184702B0FC
:1073400070BD00001422C281104A127880F82420F7
:1073500080F8232001214FF00102002361F3420253
:107360000373036143610383C0F81A30C0F81E3011
:1073700080F8223080F82520C384038583854385E7
:10738000036343638363C363704700BFF665030011
:1073900013B504468DE806002346064943F8041B4E
:1073A0009DE8030083E805002046FFF7CBFF204659
:1073B00002B010BD0466030001230373704780F818
:1073C00022107047C181704790F8253019B1C181F2
:1073D0006FF3000301E043F0010380F825307047AC
:1073E00080F8231080F82420704781637047C163C0
:1073F00070470A1C90F82530416318BF012262F3E0
:10740000041380F8253070474161704751F8263FDA
:1074100003604B684360704713B5C4890191A24271
:1074200028BF224600230093C18CADF800204FF600
:10743000FF706A46FFF782FE10B9BDF8000000E059
:10744000184602B010BD38B5054608460C460DF08A
:107450002BF8214682B22846BDE83840FFF7DCBF52
:1074600007B502AB012203F8011D1946FFF7D4FF4F
:1074700003B05DF804FB07B502AB022223F8021D3E
:107480001946FFF7C9FF03B05DF804FB30B50546A8
:1074900085B0114801F0D5F9E0B1688DD0B1022373
:1074A000002402940C48ADF808300DF10603039354
:1074B00001F0E5F902AA698DFFF742FE43F20143AC
:1074C000984202D1ADF8064002E008B180B201E076
:1074D000BDF8060005B030BDCC37002008B590F8E7
:1074E000222002F0100202F0FF0322B1FFF7CEFFCC
:1074F00000F0010008BD184608BD00002DE9F0416C
:1075000090F8223003F010030E4686B0054603F0D3
:10751000FF01002B46D0C489944228BF1446FFF7D0
:10752000DDFF0746002837D0214801F0A8F90146C1
:107530001F4800F00EFA03381FFA80F89CB31C486D
:1075400001F09DF901461A4800F0F2F910B3A04588
:1075500043464FF0000128BF2346102202A8ADF891
:1075600006300CF0BEF801238DF80A30EB8CADF834
:1075700008300F4805960DF10603049301F07FF9DA
:1075800002A9FFF7DFFD28B9BDF80630E41AA4B25E
:107590001E44D3E7002706E0224631462846FFF77F
:1075A0003BFF00E00F46384606B0BDE8F08100BF63
:1075B000CC37002007B502AB012203F8011D1946A4
:1075C000FFF79CFF03B05DF804FBA1DF7047A3DF6A
:1075D0007047A4DF704710B5044608F005FF012886
:1075E000204603D1BDE810400CF036B8BDE810408D
:1075F00007F082BF002383827047806900F0F4B8EF
:10760000808A70472DE9FF410B88CF88382B0446CC
:107610000D4672D0392B03D0362B40F0DF80B7E017
:107620000B7B012B02D0022B31D0D7E0C36A002B99
:1076300000F0D48090F8342012F0010FCA8923D0D2
:107640001046FFF7C8FF0646002800F0C780EA8909
:1076500005F110010CF01FF81820FFF7BCFFE26ADB
:10766000426003220272EA89066003920194029644
:1076700001AA034603CA1961D86010685861002145
:1076800018460AF0E5FEA9E010319847A6E0036B22
:10769000002B00F0A38090F834208E8812F0020FA7
:1076A000CA8923D01046FFF796FF0746002800F04E
:1076B0009580EA8905F110010BF0EDFF1820FFF726
:1076C0008AFF226B426003220272EA8907600392FA
:1076D0000194029701AA034603CA1961D860106891
:1076E0005861002118460AF0B3FE01E010319847B6
:1076F00069893046FFF76DFF70E017B104F11C0097
:107700006AE000F11C060A8A3046394601F0DFFDC6
:1077100095F80C80B8F1010FF0D0B8F1040F5DD1ED
:10772000A06900F061F801462E4800F012F9228DA0
:10773000A38A053880B2904228BF1046B0B10197A5
:10774000EA89ADF806302B8AADF80A001344ADF88B
:107750000830A069636A8DF80480039300F044F850
:1077600001A9FFF734FF002838D00FE0052202906E
:1077700003908DF80420A069ADF8063001228DF841
:10778000052000F031F801A9FFF721FF304623E082
:10779000806900F029F80146124800F0DAF8064640
:1077A000002FABD104F11C07EA8905F1100138461E
:1077B00001F08DFD238D73B1033EEB89B6B2013E1E
:1077C000B34208DBA06900F00FF8628DA18A92B283
:1077D000FFF7FBFE10B1384601F091FD04B0BDE8A3
:1077E000F08100BFCC3700208088704710B5044678
:1077F000043001F022FD012323804FF6FF736380E4
:1078000000232375204610BD017D10B5044621B923
:10781000043001F016FD0123237510BD007D704773
:107820000B88322B10B5044611D0332B1BD0302BD4
:1078300027D1CB8833B94B8923B10A221144201DAB
:1078400001F045FD201DBDE8104001F058BDCB887A
:10785000002BF7D14A89002AF4D0013A02EB8202C8
:1078600052000C320AE0CB88002BEBD14A89002A67
:10787000E8D0013A02EB42025200083292B20A31D9
:10788000DDE710BD6DDF70477FDF704786DF704733
:107890008FDF704790DF7047B1DF7047B5DF70470B
:1078A00010B5C822044600210C300BF01AFF172334
:1078B00003222380E3800123E37023716372A372A8
:1078C00062F3061384F8D430072384F8D5301023EC
:1078D000A270227284F8D63084F8D72084F8D82099
:1078E000204610BD07B56846FFF7CCFF02AB9DF8F8
:1078F000000053F8072D0A609B888B80400803B076
:107900005DF804FB282303FB0101487B7047282313
:1079100003FB0101887B704710B5282303FB02128B
:1079200052F8123F0360938883809379837110BD6E
:10793000042908B50BD8282303FB0101086A38B1D4
:10794000662108F067F8003018BF012008BD00204C
:1079500008BD282303FB0101088A7047F0B587B0F2
:1079600004AC16461F460D4620464FF4285100F041
:107970005DFC8DE8C0004FF6FF7303930123029373
:1079800094E80C002946024800F042F907B0F0BD27
:10799000A8380020F0B58D884FF6FF739D4218BFC0
:1079A00028240B881ABF04FB05040C3400241A2B6E
:1079B00095B007460E4600F0BD8019D8132B56D05F
:1079C00010D8102B2BD0112B40F00A8100256069B4
:1079D0006570257008F0DAF86561A06908F0D6F8DE
:1079E000A561FDE0142B00F08A80192B6ED0F7E022
:1079F0003C2B00F0CA800BD8212B00F0D680232B23
:107A000040F0EE80002211462846FFF743FFE7E0F2
:107A1000552B00F0D480572B00F0A680E0E0012326
:107A20002370CB7BA37056F8080FC4F80600172309
:107A3000B188B279A380EDB2282303FB057361817D
:107A400022739B7B012B0CBFF878787A014607F0F4
:107A500068FE282303FB05756061AB7B012B0CBF1F
:107A60003879B87A014607F05CFEA061B8E008F00A
:107A7000BBFC01284FF0500002D10BF0EDFD01E0FE
:107A800007F03AFD06462061002800F0A980502248
:107A900000210BF026FE4FF6FF732022E381002128
:107AA00068460BF01EFE06F11C030493A3780096B3
:107AB000012B06F138060CBF07F1D40200226B46F9
:107AC000002128460596FFF7DFFE89E00B7A43B9CF
:107AD0002269A07801236370538AE381294601F06B
:107AE0003BFC256908F080FC0128284602D10BF0F8
:107AF000BBFD01E007F00FFD0023236170E0502281
:107B0000002168460BF0EDFD6A46318AA07801F04D
:107B100095FC0346B08843B100230EAA6946FFF7DF
:107B2000B5FEBDF81230E3815AE01A461946FFF758
:107B3000ADFE55E00B7A112B0DD0E289A0782946D5
:107B400001F02CFD034620B9024601462846FFF706
:107B5000A3FE01236370606A002841D000231A4607
:107B6000194607F0E7FD3BE06369002B38D000259C
:107B7000B279EBB29A4205F1010531D900231A46D8
:107B80001946606907F0D6FDF2E7A36943B3002503
:107B9000B27AEBB29A4205F1010521D900231A46C7
:107BA0001946A06907F0C6FDF2E70023694628469A
:107BB0008DF800308DF80130FFF76AFE10E0EBB26F
:107BC000282202FB0303C9889B7B012B0CBF03887F
:107BD000C388994228BF1946A1802846FFF75EFE58
:107BE00015B0F0BDA0DF704738B50446F82500F5A4
:107BF000F87001F022FB2A46002120460BF071FDAF
:107C00002A46002160190BF06CFD204638BD0000AB
:107C1000F0B585B08DE80C00BDF83030ADF80C3013
:107C2000BDF83430ADF80E300F466E4600F5F875ED
:107C3000284601F04AFB044628B1124800F02CFE09
:107C400007F0DEFAF4E70121284601F0FAFABDF860
:107C50002C200A99284601F009FB03AA3146384630
:107C6000FFF7C0FF28B94FF4FA71284601F003FB73
:107C70000446284601F0EEFA24EAE47080B205B02A
:107C8000F0BD00BFCC3700202DE9F04F0E888F8863
:107C9000A6F11003012B87B005460C4612D84FF011
:107CA00000082A785FFA88F39A420BD99B002B448C
:107CB000112E586803680CBF1B685B68984708F171
:107CC0000108EEE7764800F0DAFD874217D14FF061
:107CD00028094FF0000A09FB07F90AE0502E13D0DB
:107CE000512E04D1B4F80880B8F1000F0FD10AF179
:107CF000010A95F854205FFA8AF39A42EED805F506
:107D0000A67A4FF000091FE0B4F80680ECE71633BE
:107D1000684655F823B05946FFF778FBBDF80020B8
:107D2000424500F09980594602A8FFF76FFBBDF865
:107D30000C204245DBD18FE05AF8040FFFF75DFCC1
:107D4000874206D009F1010995F84C319945F3DBDA
:107D500016E0382E03D0392E01D0362EF2D1B4F8E9
:107D60000A80B8F1000FEDD0DAF800B05846FFF7FE
:107D700047FC8045E6D121465846FFF743FCE1E742
:107D8000112E26D1002495F8F820E3B29A4201D8AA
:107D9000002618E005EB8303D3F8FC008388BB4280
:107DA00002D103681B6898470134ECE705EB8404B3
:107DB000D4F85001FFF721FC874203D1D4F85001D9
:107DC000FFF718FC013695F84C31F4B2A342EDD818
:107DD00062E0532E1AD0562E2AD0352E5CD16189FE
:107DE000002959D0A2890E34231B901CB3FBF0F359
:107DF0008B4205F5F87503D2A11C284601F067FAFD
:107E0000284607B0BDE8F04F01F079BA244A28238C
:107E100007FB033313441446586820B100231A4665
:107E2000194607F087FC282202FB0747012310E0D0
:107E30001B4A282307FB033313441446586820B118
:107E400000231A46194607F075FC282202FB074753
:107E5000002387F828301FE0DBF800205846D2685E
:107E6000214690470E4800F00DFD00283FF43FAF3B
:107E7000502E7FF43CAF594604A8FFF7C7FABDF86F
:107E8000143043457FF433AF054B4B4439465A8B8E
:107E9000987B01F08BFA2AE707B0BDE8F08F00BFAE
:107EA000CC37002090F85430282B1FBF5A1C1633B3
:107EB00080F8542040F8231014BF012000207047A0
:107EC0000378132B9FBF5A1C027000EB83004160A4
:107ED00094BF0120002070478ADF704710B5044628
:107EE00008F082FA0128204603D1BDE810400BF0CB
:107EF000B3BBBDE8104007F0FFBA10B504461F231E
:107F0000206283840123002180F82930802380F8B7
:107F1000281080F82A3080F82B10818580F83410E2
:107F200001638163C1630E2240300BF0DAFBA023B2
:107F3000A4F842305023A4F84430204610BD00007D
:107F400010B504461F232062A0F84610838400F178
:107F500020014030FFF7C0FF30B9044800F07CFD3D
:107F6000012084F8280010BD002010BDCC3700206F
:107F700000F1200108B50020FFF7AEFFB0FA80F055
:107F8000400908BD38B5012A9DF814501BD948781E
:107F90000C78984204D1013C0231E4B209D114E0DA
:107FA000E0430244013412F0FF022144EFD11046B5
:107FB00038BD15B1AC4228BF2C46224604980BF0C0
:107FC0006AFB204638BD002038BD084638BD37B5AD
:107FD0009DF818500C7F8DE82800134689692246C9
:107FE000FFF7D0FF03B030BD2DE9F04F8FB002ACEA
:107FF00080462046894684E80C0000F022F9C0B291
:10800000102807D102238DF8143003238DF8153082
:10801000274606E006238DF81430039F07238DF8CA
:1080200015300026C508B2461F22002106A80BF015
:1080300058FB05AB4946F25CCDF800A006AB4046C4
:10804000FFF7C5FF0DF1180B04465CB12A4639460F
:1080500058460BF011FB08B9012007E0641BAB4444
:10806000E4B2F2E70136022EDED120460FB0BDE8C1
:10807000F08F0000F0B50B88112B85B006464CD070
:1080800002D8102B3BD095E01B2B5DD01D2B40F070
:10809000918090F92A2091F91B309A4267DC90F880
:1080A000343001F1080523B996F82B30002B62D04B
:1080B00015E0002796F83430FCB2A3420AD9336B9E
:1080C00003EBC4030CCB29463046FFF78DFF013785
:1080D0000028EFD096F83430A342E5D147E00223E0
:1080E0000093FF2203AB29463046FFF770FF0028BC
:1080F0003DD0B28DBDF80C309A4238D13BE0CB7BFD
:10810000022B57D1002380F828302B4800F0B5FC13
:108110000121294800F0BDFC4CE089882648FFF782
:10812000F6FB022846D196F82810002942D12248B1
:1081300000F0AFFC96F82930002B3BD0B6F8461083
:108140003046FFF7FDFE35E00B7A012B32D1C36BD1
:10815000002480F828406BB31020FFF7BFFEF26BBD
:1081600004604260047221460AF072F922E030464F
:10817000FFF7FEFE1EE02420FFF7B0FE0746C8B161
:108180000FCD3C460FC40FCD0FC42B682360B36BDB
:1081900083B11020FFF7A2FEB26B4260012202728F
:1081A00004AA076042F8047D03461068D8600021E5
:1081B0001846D9E705B0F0BDCC370020A8DF7047DE
:1081C0007047000037B500F108050446284600F066
:1081D00046F829460DF106020120FFF7EFFF05469C
:1081E00028B9044B04481C602146FFF769FE284665
:1081F00003B030BDC8370020A838002013B50446AE
:108200008DE806002346064943F8081B9DE8030055
:1082100083E8050000232046A38002B010BD00BF04
:108220001C66030062DF704763DF704701238370C1
:108230000023018043607047002383700380416006
:1082400070478378012B06D0426832B9012B8CBF6E
:10825000802000207047102070478020704708B5AC
:108260008378024653B9406840B1911CFFF7DAFFAA
:1082700010205168BDE80840FFF7D6BF002008BDB8
:1082800000680B6820F07F4023F07F43C31A5842F8
:10829000584170474DDF70474EDF70474FDF7047E2
:1082A0004BDF704710DF704775DF704776DF704730
:1082B00077DF704778DF70477ADF70477CDF704781
:1082C0007DDF7047B1DF704760DF704769DF70475F
:1082D00061DF704767DF7047704704200AF0C2BA59
:1082E00037B5204C204DD4F8C8034FF0FF3107F0CC
:1082F00091FB0028F7D001A8FFF7D2FF0528F2D0A4
:108300000028F8D10198831E092BF4D801A252F855
:1083100023F000BF3D8302003D830200F78202008C
:10832000F7820200F7820200F7820200F782020061
:10833000478302004783020047830200002DDAD002
:1083400006F0F6FFD7E70A2805D0092805D00B2844
:10835000D1D1012002E0002000E0022009F0F2FE6D
:10836000C9E700BFCC37002031F3020010B5044646
:1083700008F03AF80128204603D1BDE810400BF080
:108380006BB9BDE8104007F0B7B810B50446FFF769
:1083900087FA04F1DC00FFF727FC04F53770FEF7DD
:1083A00058FD04F54570FEF7B1FC04F54D70FFF77C
:1083B000A4FD04F56170FEF756FE04F56570FFF745
:1083C00015FA04F5757000F037FE4FF400620023D3
:1083D000C4F8AC230A22C4F8B03384F8B1230122D4
:1083E00084F8B02384F8D0234FF6FF72A4F8242435
:1083F0001022A4F8B6231822A4F8B82384F8B433C2
:10840000C82284F8B53384F8C033C4F8C433C4F840
:10841000C833C4F8CC33A4F8BA33A4F8BC23A4F806
:10842000BE33C4F82834C4F82C34C4F830342046A1
:1084300010BD000070B5B94E80F8B4138CB080F850
:10844000B523054609F09AFF30680390B44903A8A4
:10845000FFF728FF0446002840F0758109F097FFD8
:10846000B04A95F8B133099409A901200A940B94F4
:1084700004928DF82430FFF729FF0446002840F0CD
:10848000628195F8B43309908DF8253095F8B533AD
:108490008DF8263000330A900B9018BF0123049A00
:1084A0008DF8273009A94020FFF710FF0446002867
:1084B00040F0498195F8B033099063F300040A90C5
:1084C0000B90049A8DF8244009A9A020FFF7FEFE26
:1084D0000446002840F037810A900B90D5F8AC3361
:1084E000049A099309A9A120FFF7F0FE0446002889
:1084F00040F0298195F8B43323B995F8B533002BB2
:1085000049D192E02A8809900A900B900123ADF896
:10851000262009A9049A8DF824302320FFF7D6FEDF
:108520000446002840F00F8195F8B42309908DF897
:108530002620AA780A900B90ADF8282009A9049A61
:108540008DF824302020FFF7C1FE0446002840F0BB
:10855000FA80EA7809900A900B908DF8262009A9F4
:10856000049A8DF824302220FFF7B0FE044600283C
:1085700040F0E98009900A900B908DF82430049A1D
:108580002B798DF8263009A92120FFF79FFE04469C
:108590000028B2D0D7E00023EA8809930A930B930E
:1085A000ADF826200223049A8DF8243009A923204F
:1085B000FFF78CFE0446002840F0C58095F8B523EF
:1085C00009908DF826202A7A0A900B90ADF8282081
:1085D00009A9049A8DF824302020FFF777FE04467D
:1085E000002840F0B0806A7A09900A900B908DF8CC
:1085F000262009A9049A8DF824302220FFF766FE70
:108600000446002840F09F8009900A900B908DF856
:108610002430049AAB7A8DF8263009A92120FFF77F
:1086200055FE0446002840F08E8004A8FFF74CFE5B
:10863000002840F0878007900890C0B240F0010009
:108640008DF81C0007A90220FFF744FE044600280D
:1086500079D105F2B630FFF72FFE0446002872D11B
:108660000CA8337900F8283D0B222F49FFF726FE8E
:108670000446002867D1FFF71DFE0446002862D19A
:108680000120FFF709FE0120FFF704FE0120FFF79C
:1086900005FE05F5757000F0F1FC95F8B5331BB1DA
:1086A00005F56170FEF7EAFC03220021012007F0C6
:1086B0001BF8C5F8C40308B9042444E005AB03263D
:1086C00001934FF4C062002318490096184807F040
:1086D000E6FB32460021012007F006F8C5F8C80382
:1086E0000028E9D006AB019300960023C822114967
:1086F000114807F0D4FB114B4FF480021A60104B65
:108700000093002301224FF48071184607F0A4FF64
:10871000C5F8CC0300F072FE15E000BF2866030028
:10872000D9820200003400204C6603005866030022
:10873000118A02005C660300E182020000E100E0B1
:10874000DB820200044620460CB070BD37B5084BF2
:1087500002AC1B7904F8043D08460D460BF0A4FE5C
:10876000294682B22046FFF7A9FD03B030BD00BF05
:108770002866030007B5084602A921F8022DFFF775
:108780009FFD10B99DF8060000E0002003B05DF8E1
:1087900004FB0000F0B5174B85B006460D466A464F
:1087A00003F1080E6F4618685968144603C408336D
:1087B00073452246F7D118689B88A3802060002368
:1087C000FA56AA4204D001330E2BF9D100200EE054
:1087D000B6F824144FF6FF73994205D02A460320B9
:1087E000FFF766FD0028F1D186F8C053012005B0DF
:1087F000F0BD00BF2D66030090F9C003704780F8FC
:10880000D013704773B50446D0F8CC030E4608F079
:1088100061F800230546B6024FF47A720093B6FB66
:10882000F2F20421D4F8CC0307F034FF3DB90095EF
:108830002B462A460321D4F8CC0307F02BFF02B0C5
:1088400070BDB0F824044FF6FF73C01A18BF0120A2
:108850007047B0F8240408B54FF6FF73984206D06D
:108860001321FFF723FDB0FA80F0400908BD012075
:1088700008BDC0F828147047C0F82C147047B0F831
:1088800024047047B0F824144FF6FF73994201D0C6
:10889000FFF738B800207047B0F8BE0370470000FB
:1088A00010B5064C0021D4F8C80307F010F8D4F82E
:1088B000C4030021BDE8104007F009B8CC37002000
:1088C000F7B504460D468E88FFF764F8294604F58F
:1088D0003770FEF751FB04F54D702946FFF7CAFBD0
:1088E000B4F824042B88864205D0102B01D01B2B12
:1088F0005FD1112B01E0112B3CD002D8102B0AD0F4
:1089000057E0122B32D0522B53D100231A4619466E
:10891000FFF7D8FC4DE0EB7B012B4AD12B8AB4F852
:10892000B623A888A4F824049A42A4F8BE3367D8D2
:10893000B4F8B823934263D8D4F82834002B38D045
:108940001020FFF713FDD4F82824426001220272A0
:10895000002102AA03460160B4F8240442F8080D7D
:108960001068D860184609F073FD22E02B89A4F83E
:10897000BE331EE0D4F82C34BBB11420FFF7F6FC54
:10898000D4F82C2442600222027200270760B4F857
:10899000242400922A7A01926A46034603CAD860C8
:1089A00019611846394609F053FD4FF6FF73A4F8D4
:1089B000243494F8B53363B1B4F82434B34203D10A
:1089C0004FF6FF739E4204D1294604F56170FEF70D
:1089D0005BFB04F565763046FEF720FF18B12946AB
:1089E0003046FEF71DFF294604F1DC00FFF74CF985
:1089F000D4F830344BB1284603B0BDE8F0401847F6
:108A00000021FFF751FC002896D003B0F0BD000014
:108A100073B54FF4FA70FFF7A9FC0E4E04464FF001
:108A2000FF31D6F8C40306F0F5FF0028F7D04FF465
:108A3000FA750DF106012046ADF80650FFF748FC27
:108A400020B921460348FFF73BFFF2E70528E6D0AF
:108A5000EFE700BFCC37002090F8D03313B553B107
:108A6000D0F8CC4307F088FA002302460093012196
:108A7000204607F00FFE02B010BD07B5002300939B
:108A80001A460321D0F8CC0307F004FE03B05DF8CA
:108A900004FB90F8D03313B1042009F0A5BE704751
:108AA00030B52DED028B04468DB0B84808F0BBFA06
:108AB000002800F0B681D4F8C433002B00F0B18157
:108AC000B349B24806F040F9B24AB349AF4806F09C
:108AD00045F90A2294F8B113AC4806F084F9AF4A7C
:108AE000AD49AA4806F03AF90A22D4F8AC13A748CF
:108AF00006F083F9AA4AA849A44806F02FF90A22E9
:108B000094F8B013A14806F06EF994F8B433002B32
:108B10003BD0A4499D4806F017F9A3499B4806F0AD
:108B200004F9A24A9C49994806F018F90A222188BA
:108B3000964806F090F99C49944806F0F6F89C4A4D
:108B40009549924806F00AF90A22A1788F4806F062
:108B50004AF995498D4806F0E8F8964A8E498B48BF
:108B600006F0FCF80A22E178884806F03CF98E49C4
:108B7000864806F0DAF8904A8749844806F0EEF80D
:108B80000A222179814806F02EF994F8B533002B9A
:108B90003BD08A497D4806F0D7F883497B4806F0E8
:108BA000C4F8824A7C49794806F0D8F80A22E1885C
:108BB000764806F050F97C49744806F0B6F87C4ACD
:108BC0007549724806F0CAF80A22217A6F4806F001
:108BD0000AF975496D4806F0A8F8764A6E496B485F
:108BE00006F0BCF80A22617A684806F0FCF86E4983
:108BF000664806F09AF8704A6749644806F0AEF88D
:108C00000A22A17A614806F0EEF86D495F4806F045
:108C10009BF804AD6B4A60495C4806F09FF820223F
:108C2000002128460AF05DFD202229462046FFF754
:108C3000A1FD2946554806F091F8544806F07CF805
:108C4000614A5549514806F089F894F8B4235F49C0
:108C50004E48003218BF012206F080F894F8B53370
:108C60005B494A48002B14BF0422002206F076F824
:108C7000464806F061F8574A4749444806F06EF8FE
:108C8000554B0FCB85E80F0002A92046FEF72AFEC0
:108C900000230546009306223A2302A93B4806F02A
:108CA000E5F80CAB03EB85054C4955F8202C37480B
:108CB00006F054F8354806F03FF8494A364933483B
:108CC00006F04CF894F9C0234649304806F046F8BF
:108CD0002E4806F031F8444A2F492C4806F03EF859
:108CE000B4F8B63307EE903AF8EEE77AB7EE048AB6
:108CF00067EE887A17EE900A0AF006F902460B46EC
:108D000022483A4906F02AF8B4F8B83307EE903A08
:108D1000F8EEE77A67EE887A17EE900A0AF0F4F830
:108D20000B4602463249194806F018F8174806F073
:108D300003F8304A1849154806F010F8B4F8BC3367
:108D400007EE903AF8EEE77AB2EE047A67EE877AA9
:108D500017EE900A0AF0D8F80B46024626490B484F
:108D600005F0FCFF094805F0E7FF94F8B433002B49
:108D700046D0224A0849054805F0F0FF034805F0AF
:108D8000DBFF012000F096FB3AE000BF9C6600206C
:108D90006066030086660300926603009A6603001D
:108DA000AA660300BA660300D5660300DA6603000C
:108DB000E2660300EF660300FE6603000F67030030
:108DC00027670300496703004E6703005E670300DF
:108DD000706703007E6703003C660300866703003C
:108DE0008C670300956703009C670300AB67030073
:108DF000BB670300C9670300C1670300D6670300B0
:108E000094F8B53353B1094A09490A4805F0A6FF59
:108E1000084805F091FF022000F04CFB054805F0E2
:108E20008BFF0DB0BDEC028B30BD00BFF0670300BF
:108E3000926603009C66002010B5054C2046FFF7A3
:108E4000A4FA2046034A0449BDE810400AF086BB54
:108E5000CC370020003400205D8E020010B5054B99
:108E6000C0F8D433044600F57970FEF76DF920465A
:108E700010BD00BF686803003CDF70473DDF7047EE
:108E800011DF704713DF7047B0DF7047B2DF704704
:108E9000F0B59DB00C8807460D46014608A8FEF7C0
:108EA000B5FABDF82030A34240F0B480AB79043B62
:108EB000022B40F2AF80584E3046FFF7E0FC102204
:108EC000044600210DEB02000AF00BFC0223384699
:108ED0008DF81030FEF702FB40B940F2FD1304A9F3
:108EE0002046ADF81430FFF7CFFF93E0002304A92C
:108EF0002046ADF81430FFF7C7FF2F7B012F40F05D
:108F00008980464D19463E2228460AF0EAFB1CAAF3
:108F1000082322F8623D42493B462046FFF7B6FF50
:108F2000224631466846FEF7F7FC00982860BDF8F7
:108F300004209DF80630AB71AA8021463046FEF72A
:108F4000E1FC10B3282303FB046408AA618B3846B4
:108F500000F074FAC8B11AAC94E80300314AA98051
:108F6000090C2860A97116AD2B4603CBA3421060F3
:108F700051601D4602F10802F6D108AC0FCC2A4D13
:108F80000FC594E8070085E807002448274C4FF6F2
:108F9000FF7110F8012B82EA112383EA13139AB2AE
:108FA00043EA012383EA023383EA4213A04299B2DF
:108FB000EFD11A4B1E4899870021FDF76FFF164825
:108FC000FFF747FCFF210020FFF758FFB1210020E9
:108FD000FFF752FFF0B9FFF753FFD8B9154B4FF425
:108FE0008002C3F880210124420900F01F012032D1
:108FF000013004FA01F1302843F82210F4D14FF087
:1090000010235869FFF73EFF20B980F31488586990
:1090100000F0F2FB1DB0F0BDCC370020807F0020B7
:10902000B47F0020877F0020987F0020BC7F002035
:10903000A83A002000E100E073B505460C496846F7
:10904000FFF7FAF82E469DE806002846FFF7D6F807
:10905000084B46F8103B68460749FFF7EDF89DE8D6
:1090600006003046FEF794F9284602B070BD00BFF6
:109070003F680300686803004F68030070B5A2B042
:109080000646FFF79FF8054600284FD112AC294944
:109090002046FFF7D1F894E8060002A8FEF778F919
:1090A00002A8FEF789F9042102A8FEF788F9142125
:1090B00002A8FEF787F902A8FEF74EF8054690BB16
:1090C00006F1100528461821FEF779F928461721E0
:1090D000FEF778F928461849FEF78BF92846FEF77F
:1090E0003BF80546F8B915496846FFF7A5F89DE82D
:1090F00006002046FEF74CF92046FEF75DF90221F6
:109100002046FEF75CF902212046FEF75DF9204675
:10911000FEF722F8054618B901212046FEF7ABF903
:109120002046FEF711F802A8FEF70EF8284622B0F6
:1091300070BD00BF74680300918E02008468030054
:1091400037B5044641F60A016846FFF76FF89DE817
:1091500006002046FFF752F8074B2360074B2361B8
:1091600000236361A361E361054B2362054B6362E6
:10917000204603B030BD00BFD468030094680300EC
:10918000AF680300B568030001617047C1617047B3
:1091900001627047416270472DE9F04192B0044688
:1091A000FFF710F8064600283AD109F0BBF96061D4
:1091B00009F082F90C34E06042F624256F4654F839
:1091C000043F3BB329463846FFF730F897E80600DE
:1091D00002A8FEF7DDF802A8FEF7EEF8022102A8C9
:1091E000FEF7EDF820680BF05FF981B202A8FEF7F8
:1091F000EBF802A8FDF7B0FF804620B102A8FDF70A
:10920000A3FF46460CE0216802A8FEF71CF902A85D
:10921000FDF79AFF0135ADB242F62A239D42CED129
:10922000304612B0BDE8F081012303700023437083
:1092300043608360C3818381704708B5FFF7F4FF03
:1092400008BD10B50446217019B90A2006F069FA64
:10925000606010BD037810B5044613B9406806F08D
:1092600095FC2046BDE81040FFF7DEBF002381607B
:109270008281C3817047037870B505460C466BB98F
:109280000123A4024FF47A716B70B4FBF1F16868AA
:1092900006F0C0FB68B94FF0FF340CE00322002158
:1092A000012006F021FA68600028E9D14FF0FF3074
:1092B00070BDEC89A4B22B7800266E701BB1686873
:1092C00006F064FC6E60204670BD4078704738B58B
:1092D00085899542044628BF154619B12A468068FB
:1092E0000AF0D9F9A3682B44A360A3895B1BA3816F
:1092F000E38915FA83F39BB2E381284638BD4068C1
:1093000020B100231A46194606F014BA7047B1DF9F
:109310007047B2DF7047000010B4054B054C0129BF
:109320000CBF214619465DF8044B0BF059B800BF3D
:10933000F9680300E068030010B5044607F054F82C
:109340000128204603D1BDE810400AF085B9BDE8E8
:10935000104006F0D1B80000F0B5064685B05020A8
:109360000D461746FFF7E8FF0446D8B150223946AC
:109370000AF091F91820FFF7DFFF0B4A4260032241
:10938000027201960295039401AA0346046003CA7F
:10939000D8601068196158610021184609F058F822
:1093A0000120FFE705B0F0BD01970200F0B54FF6D0
:1093B000FF739A4285B007460E4615464FF00004EB
:1093C00017D01820FFF7B8FF0B4A42600322027241
:1093D00001970296039501AA0346046003CAD86068
:1093E0001068196158612146184609F031F80120CA
:1093F00000E0204605B0F0BD5996020008B50C48C3
:1094000001F0FEF80B490A4801F0C4F818B90949FF
:10941000074801F01EF90849054801F0BBF828B9D2
:1094200005490348BDE8084001F013B908BD00BF75
:109430002C3C0020126903002669030030B591B06E
:1094400015460A46014601A8FFF766FF0F4B0022AA
:1094500001A908A800F034FE08A800F045FE044663
:1094600008B900240CE008A800F090FD502802463E
:10947000F7D1294608A800F079FD08A800F0DEFD24
:1094800008A800F024FD204611B030BD2C3C00207F
:1094900038B5044600F07AFD051E08DD204600F0D0
:1094A00098FD2918204600F083FD012038BD0020DA
:1094B00038BD0000B0B53549354C364B98B000AFDB
:1094C000012808BF21460022384600F0F9FD314945
:1094D00007F1200000F03AFD0022394607F1400074
:1094E00000F014FE07F1400107F1200000F0BAFD82
:1094F00000F0FAFD044607F1400000F0E8FC84B3F8
:1095000007F1200000F000FE30BB07F12000FFF75C
:10951000BFFF08B307F1200000F038FD021E1BDD7D
:10952000D31D23F007036C46ADEB030D694692B2E1
:1095300007F1200000F01AFD07F1200000F0D9FD2E
:10954000054607F1200000F065FD6A4603462946FE
:1095500011480AF009FFA54607F1200000F06EFD52
:10956000BAE70A200AF018FF07F1200000F066FDB4
:10957000384600F063FD07F1200000F0A8FC3846F3
:1095800000F0A5FC6037BD46B0BD00BF26690300F2
:10959000126903002C3C00203A690300F0B54FF635
:1095A000FF7391B09A420E4600AF3FD00146381D7E
:1095B000FFF7B2FE204B0022391D07F1200000F01A
:1095C0007FFD07F1200000F08FFD08B9002424E0A2
:1095D00007F12000FFF75CFF07F12000FFF758FFBD
:1095E00007F1200000F0D2FC0028EFDDC31D23F0BE
:1095F000070384B26D46ADEB030D2246694607F1C1
:10960000200000F0B3FC2246694603233046FFF7F2
:109610007EFEB0FA80F46409AD4607F1200000F048
:109620000DFD07F1200000F052FC00E00024204670
:109630004437BD46F0BD00BF2C3C002070B5054648
:109640000E461446D1B200F043FC2246314628466D
:10965000BDE8704000F06ABC2DE9F04391B000AF66
:1096600007F140040E46002124F83E1D03238046E6
:10967000914630462246FFF74CFE7B886D46C3B3C9
:10968000073323F00703ADEB030D2246032369469E
:109690003046FFF73EFE044658BB4A464146381D59
:1096A000FFF73AFE154B0122391D07F1200000F0AB
:1096B00007FD07F1200000F017FDB0B1214607F1CA
:1096C000200000F075FC07F12000FFF7E1FE07F134
:1096D0002000FFF7DDFE07F120007A886946FFF7DA
:1096E000ADFF07F1200000F0A9FC07F1200000F019
:1096F000EEFB4437AD46BD46BDE8F0832C3C002070
:1097000030B5144601289DB00CBF528AE28D0D463B
:10971000014605A8FFF700FE05A9254800F03AFF1D
:1097200018B105A9224800F041FF214B012205A9EB
:109730000CA800F0C5FC0CA800F0D6FC002832D024
:10974000502221460CA8FFF779FF2022002114A8FF
:1097500009F0C7FF202314AA29461648FEF7FEF891
:109760009DF850309BB994F84910039194F84A1031
:10977000029194F84B10019194F84C10009194F8D8
:109780004D3094F84E200C4914A80AF029FE14A874
:109790000AF08AFE421C92B20CA814A9FFF74EFFF1
:1097A0000CA800F04BFC0CA800F091FB1DB030BDE4
:1097B0002C3C0020CC37002050690300F0B5034654
:1097C000186880F308885868FF2464B2EFF30585B1
:1097D000002D01D1A64600472546064621273FBA5F
:1097E000F0B40024002500260027F0B4F92040B290
:1097F000004700BFF0BD00BFFFF7E0BF38B5002550
:10980000057329B90B4B0C4A0C48232109F0ACFE17
:1098100001600B4951F82220027151F82330837105
:109820009DF8103051F8233043710223C3718560D5
:1098300038BD00BFAB6903006E690300B96903005E
:1098400028740300037B23B94373837303610123EB
:10985000037370471FB50DF1100E0EE90E009DF851
:109860000810026800230129C2F80035039B08D0C4
:1098700004D3032907D143F0040304E043F00203B7
:1098800001E043F00603C2F85435019BC2F82435C9
:109890000123C2F8003505B05DF804FB10B5FFF7F1
:1098A000D1FF03688279C3F808254279C3F80C25F3
:1098B0000279C3F81025034BBDE810400ECBFFF72B
:1098C000C9BF00BF003C00200368C3F81C15D3F8D3
:1098D0000821002AFBD0D3F818050022C3F808217C
:1098E000C0B2704707B5094B09490A484FF080429A
:1098F0001A6000229A6002221A711923009318221A
:109900001A23FFF77BFF03B05DF804FB003C002047
:10991000003000400C3C002010B504460846217081
:10992000012108F039FF0121207808F05DFF0423B0
:1099300063700248FFF7B2FF204610BD0C3C0020C8
:1099400010B500210446007808F04EFF202104489D
:10995000FFF7BAFF20780121BDE8104008F044BFAE
:109960000C3C002010B500210446007808F03CFFB4
:1099700030210448FFF7A8FF20780121BDE81040FE
:1099800008F032BF0C3C002070B500214478064638
:10999000007808F029FF60210948FFF795FF0025AE
:1099A00044B100210648FFF78FFF013CE4B240EAD2
:1099B0000525F5E73078012108F016FF284670BD2F
:1099C0000C3C002070B50A4D04460E46007800217C
:1099D00008F00AFF88212846FFF776FF314628461F
:1099E000FFF772FF20780121BDE8704008F0FCBE4F
:1099F0000C3C002070B50C4E05460C46007800214A
:109A000008F0F2FE90213046FFF75EFF2146304617
:109A100004F00304FFF758FFC4F10404012128787F
:109A200008F0E2FE6C7070BD0C3C002070B505467D
:109A30000C460078002108F0D7FE98210C48FFF76B
:109A400043FF00216B784E1CC9B299420AD2013BF8
:109A5000591AC90024FA01F1C9B20548FFF734FFC9
:109A60003146EFE728780121BDE8704008F0BCBE20
:109A70000C3C002010B50446806808B109F0F4FDE4
:109A800094F90600002802DB002108F085FE20463C
:109A900010BD10B5044690F90600002807DB01212F
:109AA00008F07AFE002194F9060008F09DFE0123DB
:109AB000637010BD70B5054680680E4608B109F0A8
:109AC000D3FDEB7B2C7BA3420CBF0324042414FBAB
:109AD00006F4A4B2AC80204609F0BEFDA86028B10F
:109AE0002246002109F0FDFD6E8070BDA8806880CF
:109AF00070BD70B4C27B047B151B6C42C1F3810640
:109B00006C41FF29C1F38112C1F30115467301F0C5
:109B100003068CBF0021012101708168C2730573A7
:109B2000867341B1511B4A424A41A24203D0418847
:109B300070BCFFF7BFBF70BC704700002DE9F04F4D
:109B400083688BB00546002B00F0378105F04CFB95
:109B50002B69C01AB0F5967FF8D3994BAF880FCB1D
:109B600006AE86E80F00002356F82340D4F80025FF
:109B700002BBD4F86025002A1CDAD4F86425002A38
:109B800018DAD4F86825002A14DAD4F86C25002AEB
:109B900010DA06F029FC3F0104370128384602D1CB
:109BA00009F05AFD01E005F0A7FC0646002840F048
:109BB0008C8002E00133042BD6D106F0D3FE95F958
:109BC0000620804B53F822301F2B4FF0010678D827
:109BD0009E404FF0A0472B787B4A7C4C002B14BF53
:109BE00012231A23039314BF292346230293D36815
:109BF00043F08073D360236843F00103236015BFF3
:109C00005823C3234FF047084FF09C080593A14603
:109C10006368D5F808A00493AB8851460022CAEBCC
:109C2000010080B2834232D9082011F801BB0190B3
:109C30004FF0800ED4F804C0C2EB0C0CE045F9D80C
:109C4000D9F80420D7F808C51EEA0B0F46EA0C0C19
:109C5000C7F808C507D0D4F804C00298C2EB0C0CB2
:109C60006045F8D806E0D4F804C00398C2EB0C0CA9
:109C70006045F8D8D7F80CC5019846EA0C0C0138B5
:109C8000C7F80CC54FEA5E0E0190D3D1C7E76168F3
:109C9000891A8845FBD80499D9F80420521A0599E5
:109CA000DB004B439A4206D3494B4FF4964043F0B6
:109CB00001039847ACE706F05FFE05F095FA2861CE
:109CC0007BE0203B9E40434F85E7002048F20D0A91
:109CD00048F21308A98895F800C082B2D3009142D7
:109CE0009BB221D9A96811F802B00132D20092B218
:109CF0004FF0800E0BEA0E01BCF1000F05D148F2C7
:109D00000809002918BFC14604E048F206090029E5
:109D100018BFD14626F8139001339BB29A424FEAFE
:109D20005E0EE7D10130D5E74FF4004226F813204C
:109D300001339BB226F813200023C4F80435C4F87D
:109D40000C35BCF1000F01D1282200E014227F085D
:109D5000C4F80825C4F81435C4F81035C4F82065D3
:109D6000C4F82475C4F82835C4F82C3595F90610C4
:109D7000144A52F82120C4F860250122C4F80025B5
:109D8000C4F81031A260D4F8103113B907F0E0F82C
:109D9000F9E70023C4F81031C4F800354FF0FF3361
:109DA000C4F8603506F020FB0128304602D109F0E6
:109DB0005BFC82E705F0AFFB7FE70BB0BDE8F08FFF
:109DC000186A030028740300F0ED00E0001000E0C2
:109DD000306A03000003005038B5437804460D464E
:109DE00033B190F90600002802DB002108F0D4FC12
:109DF0006378A5714BB12846012108F0CDFC2846B7
:109E00000021BDE8384008F0EFBC38BD70B50E4603
:109E1000002104464170C1718160016119461546F7
:109E2000FFF767FE31462046FFF744FE20462946ED
:109E3000FFF7D2FF204670BDF0B544889DF814703E
:109E40008C421DD9C47944B112FB04F214FB03F314
:109E500014FB07F4120A1B0A270AC57B047BAC42D9
:109E600084681DBF04EB810100264E5501EB4101C2
:109E700008BF0919057B4A55427B8B54837BCF541D
:109E8000F0BD4A1CC379D2B29A4270B51ED0013BD4
:109E900013F0FF0384680CD0FF291FBF110201F1EA
:109EA000FF3191FBF3F39BB204BF4FF6FF7191FBBF
:109EB000F3F32546291B868889B28E4205D9297875
:109EC0005943091205F8011BF4E7C27170BD7047D0
:109ED00007B5027F8DF8071032B9036801225B686D
:109EE0000DF10701984700E0002003B05DF804FB86
:109EF00010B5044606F00DFF204610BD10B504460F
:109F000006F072FA0128204603D1BDE8104009F09E
:109F1000ABBBBDE8104005F0FEBA027F034622B994
:109F2000006959690268926A104770471346027FB8
:109F300030B442B904692268156A0A46AC464169E0
:109F4000204630BC6047002030BC704710B54FF44D
:109F50007A7400228460044C4260046001614261B2
:109F60008261027710BD00BF406A03001346027F82
:109F700030B442B904692268556A0A46AC46416960
:109F8000204630BC6047002030BC7047037F07B5D7
:109F900013B14FF0FF3008E001220DF10701FFF788
:109FA000E5FF0028F5DD9DF8070003B05DF804FB30
:109FB0000A46017F10B4034639B9006901680C6B89
:109FC000596923465DF8044B184700205DF8044B9F
:109FD0007047027F034622B9006959690268526BD3
:109FE00010470020704738B5037F05467BB90368EA
:109FF000DB68984704462846FFF7EBFF08B1411E8F
:10A0000000E001462846FFF7D3FF204638BD4FF059
:10A01000FF3038BD027F034622B9006959690268E2
:10A02000926B10470020704738B50546FFF7F2FFE6
:10A0300004462846FFF7CDFF201A38BD416910B508
:10A04000044639B10069227F0368DB6A984760697A
:10A05000FFF754FFA06908B1FFF750FF00236361C9
:10A06000A36110BD38B5436905460C460BB1FFF737
:10A07000E5FF21462B4604F1200251F8040B43F87A
:10A08000040B9142F9D1284638BDF0B5436989B037
:10A0900004460E4617460BB1FFF7D0FF21690B6847
:10A0A00032465D6868463B46A84769462046FFF74A
:10A0B000D9FF6069003018BF012009B0F0BD000071
:10A0C00070B54FF47A7600258660064E45600446EA
:10A0D00006600361456185610577FFF7D6FF20467D
:10A0E00070BD00BF406A03004069003018BF012006
:10A0F000704710B584692F2120460AF0DDF908B1B8
:10A10000013010BD204610BD007F70470B7F73B536
:10A1100005461BB90969FFF719FF07E00C692368B9
:10A120000092DE6B4A698B692146B047284602B02F
:10A1300070BD70470020704748697047C868704715
:10A1400010B5044606F0E5FD204610BD10B50446E6
:10A1500006F04AF90128204603D1BDE8104009F075
:10A160007BBABDE8104005F0C7B910B5044606F04B
:10A170003BF90128204603D1BDE8104009F074BA2C
:10A18000BDE8104005F0C7B900B50B782F2BC7B05C
:10A19000084601D14B7833B1694602F06EF9B0FA46
:10A1A00080F0400900E0012047B05DF804FB08B5ED
:10A1B000084602F0D5F9B0FA80F0400908BD08B5AC
:10A1C000084602F079F9B0FA80F0400908BD13B5ED
:10A1D000084611461A4602AB002443F8044D01F02C
:10A1E00036FF019802B010BD13B5084611461A4655
:10A1F00002AB002443F8044D01F07DFE019802B04B
:10A2000010BD084601F0E1BF08460AB102F008B9E6
:10A2100002F022B808B50846114602F02AF8B0FA52
:10A2200080F0400908BD0846002102F002B9000094
:10A2300038B5047A0546D4B901230372436823B9BB
:10A240004FF40D70FFF782FF6860686878B10122F3
:10A25000084901F043FD0D2806D12B680021DB6978
:10A2600028469847012402E0B0FA80F464092046A9
:10A2700038BD00BF73750300F8B51E460446154689
:10A28000FFF764FE1EB1012E1CD1332700E0012729
:10A290004FF40A70FFF75AFF3A462946064601F086
:10A2A00043FD18B13046FFF760FF0BE02077666191
:10A2B00028460AF0F9F80130FFF748FF2946A06167
:10A2C0000AF0D9F82046F8BD70B515460446FFF7E8
:10A2D0003DFE3020FFF73AFF2946064602F069F8B6
:10A2E00018B13046FFF741FF0CE001232377666188
:10A2F00028460AF0D9F80130FFF728FF2946A06167
:10A300000AF0B9F8204670BD0448054B0360054AC1
:10A31000054900234360037209F020B9203C002066
:10A32000206C03000034002033A10200F0B5144675
:10A33000CFB01F4605460E46FFF708FE23782F2BA9
:10A3400007D163782BB9224631466846FFF7BCFF38
:10A350000EE008A9204602F090F888B1042814D134
:10A36000012F12D13B46224631466846FFF784FF53
:10A3700069462846FFF776FE6846FFF7A8FD04E029
:10A380009DF82830DB06DED4ECE728464FB0F0BD60
:10A390002DE9F043CFB0144600AF884606461D466F
:10A3A000FFF7D4FD07F12001204602F042F8002813
:10A3B0003DD197F83630D3B328460AF075F80446F5
:10A3C00007F136000AF070F82044093020F0070049
:10A3D000E946ADEB000D294668460AF04CF82B78AB
:10A3E0002F2B6C4601D16B781BB1144920460AF023
:10A3F0001BF807F1360120460AF016F897F82830C6
:10A40000DB0605D5224641463846FFF75DFF06E0EC
:10A4100097F85831224641463846FFF72DFF394616
:10A420003046FFF71FFE3846FFF751FDCD46304658
:10A4300007F59E77BD46BDE8F08300BF016C0300C1
:10A4400010B50446ADF50A7D59B94FF40073009379
:10A450004FF480520AAB0921164802F091F920B955
:10A4600005E005F027F80028EFD100201EE0124893
:10A4700002F006F90028F8D101220E49606801F0C7
:10A480002DFC0028F1D1234601220C4902A8FFF738
:10A4900017FE4FF4D0720A4902A8FFF747FD02A841
:10A4A000FFF7CCFD02A8FFF712FD01200DF50A7D94
:10A4B00010BD00BF73750300036C03000D6C030037
:10A4C000606A0300704708B504F03EFF002008BD35
:10A4D00008B501F5ED5102EBC110029A194604F0DE
:10A4E00039FF002008BD08B501F5ED5102EBC1119F
:10A4F0001846029A04F036FF002008BD10B5044645
:10A5000006F007FC204610BD38B5044679B904F1C1
:10A510003C0504342146284604F094F990B92146BC
:10A52000284603F067FAB0FA80F0400938BD4FF4CE
:10A530006D25284605F5805504F020FFB5F5742FEC
:10A54000F7D1E4E7002038BD08B53C30002303F024
:10A5500013FEC043C00F08BD10B5044605F044FF0C
:10A560000128204603D1BDE8104009F07DB8BDE8C0
:10A57000104004F0D0BF10B5044605F035FF0128A7
:10A58000204603D1BDE8104009F066B8BDE8104090
:10A5900004F0B2BF00B5C3B06A463C3003F0ECF93A
:10A5A000B0FA80F0400943B05DF804FB08B53C30D8
:10A5B00004F0E0FAB0FA80F0400908BD08B53C307C
:10A5C00004F0D8FA012008BD08B53C3003F0B8FB10
:10A5D00020EAE07008BD3C3003F0D8BF3C3003F007
:10A5E00066BD3C3003F0BCB93C3003F0BBB93C3035
:10A5F0000AB103F030B904F017B83C3003F0A0B949
:10A6000038B590F8805004466DB9012380F8803049
:10A61000011D3C3003F0EEF9343004D123682946A3
:10A62000DB6920469847012038BD73B501F5ED512F
:10A63000CD010024FF26601901220DF1070101342C
:10A640008DF8076004F086FE802CF4D1002002B063
:10A6500070BD2DE9F0470B782F2B064600AF0D4655
:10A660000CBF481C08464FF000082F2109F0EBFEF4
:10A67000044620B3421B02F1080323F00703E94616
:10A68000ADEB030DEA468DF800806B460DEB020141
:10A690008B4202D003F8018FFAE72946504608F0B2
:10A6A000FAFF514606F13C0004F062F920B1113086
:10A6B00002D00020CD460FE0601CCD46D5E72946EC
:10A6C00006F13C0004F054F928B110F1110F14BF49
:10A6D0000020012000E00120BD46BDE8F087000019
:10A6E0000E4B10B538220446002140F8043B08F018
:10A6F000F8FF0B4BA3600B4BE3600B4B23610B4B41
:10A7000063618023A361E3612362E022A3620023EB
:10A71000626284F88030204610BD00BF786C030070
:10A72000E7A40200D1A402002BA60200C7A40200E5
:10A730002DE9F843984605460E461746FFF706FCF6
:10A74000B8F1000F05D0B8F1010F2BD140F2031979
:10A7500001E04FF001093820FFF70DFF044608B370
:10A760003C363A464B462146304604F0FCF9024658
:10A7700018B12046FFF7F0FE14E0B8F1010F04D144
:10A7800002232146304603F0F7FC00232B776C614F
:10A79000384609F089FE0130FFF7EDFE3946A86121
:10A7A00009F069FE2846BDE8F883F8B50F4615465E
:10A7B0000446FFF7CBFB2C20FFF7DDFE2A460646BA
:10A7C000014607F13C0003F01DF818B13046FFF7D1
:10A7D000C3FE0CE0012323776661284609F064FE7E
:10A7E0000130FFF7C8FE2946A06109F044FE20466B
:10A7F000F8BD000010B5054C2046FFF771FF20465C
:10A80000034A0449BDE8104008F0A8BE2C3C0020D3
:10A8100000340020C5A40200F0B50C46CBB01546AC
:10A8200006461F46FFF792FB08AA294604F13C00A2
:10A8300003F0A2F848B99DF82030112B09D02A4620
:10A8400021466846FFF7B1FF09E002300ED1012F23
:10A850000CD13B462A4621466846FFF769FF694608
:10A860003046FFF7FFFB6846FFF731FB30464BB041
:10A87000F0BD00002DE9F043CBB000AF80460E469E
:10A8800014461D46FFF762FB07F12002214606F140
:10A890003C0002F0EFFF012848D107F128012648CB
:10A8A00009F0DFFD0028EFD007F12801234809F067
:10A8B000D8FD0028E8D0284609F0F6FD044607F147
:10A8C000280009F0F1FD2044093020F00700E94696
:10A8D000ADEB000D2946684609F0CDFD2B782F2BF6
:10A8E0006C4601D16B781BB11549204609F09CFDDF
:10A8F00007F12801204609F097FD97F82030112B29
:10A9000007D197F84831224631463846FFF710FF05
:10A9100004E0224631463846FFF747FF39464046B5
:10A92000FFF7A0FB3846FFF7D2FACD46404607F5C1
:10A930009677BD46BDE8F0836D6C03006C6C030038
:10A94000016C0300002070470020704710B55C02C6
:10A9500008465102224604F07DFD201A18BF01204E
:10A9600010BD10B55C025002224604F051FD201AC1
:10A9700018BF012010BD10B51446042914D8DFE813
:10A9800001F01003080C0E0004F03AFD400A2060AC
:10A9900005E04FF40073138001E0082313600020EA
:10A9A00010BD04F06BFDFAE7012010BD428843782A
:10A9B000007843EA022340EA032070470B0A017043
:10A9C00043700B0C090E8370C1707047024400F88D
:10A9D000011B9042FBD1704730B5044614F8013B8F
:10A9E00011F8015B5B1B151BE84201D0002BF5D071
:10A9F000184630BD83690239023B99423DBF438905
:10AA0000C06A01FB03000020704700F10B01002326
:10AA1000DA0142EA530310F8012B52FA83F3884219
:10AA2000DBB2F5D118467047036810B59BB11A46E2
:10AA300012F8011B1F290CD93A29F9D11978A1F173
:10AA40003004092C07D802339A4204D1302902D1AC
:10AA50000260002010BD4FF0FF3010BD38B50D462C
:10AA6000044678B103686BB11A785AB18188DA88E4
:10AA7000914207D15878FFF765FF10F0010001D12E
:10AA8000236801E0092000232B6038BD38B5036836
:10AA9000044618785D1C20B140F2B51102F054F95B
:10AAA00008B1256038BD4FF0FF3038BD01380A4489
:10AAB00011F8013B00F8013F9142F9D17047CA7E7D
:10AAC0008B7E032843EA022301BF487D0A7D42EAC8
:10AAD000002243EA024318467047C2F307238A76EE
:10AAE000CB760378032B01BF120C0A75120A4A7544
:10AAF000704770B500F13406026B054601233146FC
:10AB00004078FFF72EFF044680B9296B6B6AEA692B
:10AB1000E870CB1A93420BD2AB78022B08D10A44CF
:10AB2000012331466878FFF71CFF01E0012070BD6A
:10AB3000204670BD70B5C37804461BB92378032B3B
:10AB40003ED104E0FFF7D5FF002841D1F6E7267992
:10AB5000012E35D104F134054FF40072002128464E
:10AB6000FFF734FF552384F83232AA2384F83332B6
:10AB700052234122722184F8343084F83530612325
:10AB800084F8363084F8372084F81A2284F81B328F
:10AB900084F8181284F8191204F507706169FFF738
:10ABA0000DFF216904F50870FFF708FF226A60783D
:10ABB0000132334622632946FFF7D3FE0023237177
:10ABC000002211466078FFF7D6FE003018BF012042
:10ABD00070BD2DE9F0470026D0F800A08E7583697E
:10ABE00007460C46002B00F09080C36A013337D033
:10ABF000B0463546DAF80C30985B50B3B8F1000F28
:10AC000005D100F520539BB2B3F5006F1BD340F282
:10AC1000B51140EA084002F077F8FF28C5F1FF09B6
:10AC200008D9B9F1010F11D96319020A9A75D875BB
:10AC3000022306E050B1B9F1000F09D063199875ED
:10AC400001231D44002002368046D3E7002500E0A2
:10AC50004D46B8F1000F18BF002525440023AB7501
:10AC6000002213462E20FD69591CEB5C202B0CD0D2
:10AC7000052B08BFE523092904D10B2A9EBFA5187F
:10AC800001326872A51801326B720B290B46EAD1AA
:10AC9000A31800215972A37D13BB12B104F108015E
:10ACA00013E03F23A375012313E092B2A2F1410008
:10ACB000192808D8F869082B057B8CBF10200820BC
:10ACC000054218BF20324A73013311F8012F002AC0
:10ACD000EBD1234400229A75FB691B7B03B9637295
:10ACE000FB69DB7A2372F96901F11C00FFF75EFE54
:10ACF0002060CA7D8B7D43EA0223E3804A7E0B7E7F
:10AD000043EA0223A380BDE8F087BDE8F087F8B5E9
:10AD1000C37804460D467BB929462046FFF76AFEF4
:10AD200004F13406206307464FF4007200213046D8
:10AD3000FFF74CFE00250DE0FFF7DBFE0028EBD00F
:10AD40000120F8BD01237A1931466078FFF709FE2A
:10AD500018B9013563899D42F4D36089401B18BF3F
:10AD60000120F8BD38B5036B8B4204460D4614D064
:10AD7000C37873B92A46012304F134016078FFF7E0
:10AD8000E5FD002816BF4FF0FF35002001202563A8
:10AD900038BDFFF7AEFE08B9ECE7002038BD000073
:10ADA000002310B5C3704FF0FF3303630446FFF771
:10ADB000D9FF18BB94F8332294F8323243EA0223C5
:10ADC0004AF6552293421BD194F83430EB2B03D032
:10ADD0001833DBB2012B15D803220B4904F16A00AA
:10ADE000FFF7FAFD78B10522084904F18600FFF764
:10ADF000F3FD002814BF0220002010BD042010BD68
:10AE0000032010BD022010BDD26C0300D66C0300DD
:10AE10002DE9FF4100230B600F461546FFF704FEA6
:10AE2000061EC0F227819B4B53F82640002C00F0F1
:10AE300023813C60237805F0FE0583B16078FFF73D
:10AE400081FDC1070BD4002D00F0188100F0040330
:10AE500003F0FF00002B00F019810A2016E1002307
:10AE6000F0B223706070FFF76FFDC20700F1088138
:10AE70000DB14307F1D400212046FFF791FF0228CE
:10AE80001FD104F5FD75002115F8040C10B12846FA
:10AE9000FFF78CFD4DF821000131042905F1100563
:10AEA000F2D100255DF8256036B131462046FFF726
:10AEB00077FF012801D80CE003200135042DF1D1E2
:10AEC000E0E0042800F0E180012801D90D20DDE058
:10AED000002694F8402094F83F3043EA0223B3F56B
:10AEE000007FF3D194F84B5094F84A3053EA05258B
:10AEF00004D104F15800FFF759FD054694F8447059
:10AF0000E5617B1E012BA770E0D894F841108BB24D
:10AF10006381002BDAD04B1E0B42D7D194F84680C8
:10AF200094F8453043EA082818F00F0FA4F8088079
:10AF3000CCD194F8480094F8473053EA002003D16C
:10AF400004F15400FFF732FD94F8433094F84220A6
:10AF500052EA0323BAD005FB07FE03EB1812724432
:10AF60009042B3D3801AB0FBF1F14B484F1E874299
:10AF7000ACD84FF6F570814206D840F6F577B94265
:10AF80008CBF0227012700E00327023133443244FB
:10AF9000032FA16126626362E26210D194F85F2000
:10AFA00094F85E3053EA022390D1B8F1000F8DD1AE
:10AFB00004F16000FFF7FAFCA062890010E0B8F12C
:10AFC000000F83D0022F4FEA410018BF401873448E
:10AFD00018BF01F00101A3620CBF014601EB500153
:10AFE00001F2FF11B5EB512FFFF470AF4FF0FF33BB
:10AFF00063612361032F4FF0800323712FD194F8F5
:10B00000652094F8643043EA0223012B27D1711C98
:10B010002046FFF7A7FE10BB94F8332294F8323293
:10B02000207143EA02234AF65522934217D104F1D4
:10B030003400FFF7BBFC194B984210D104F50670A1
:10B04000FFF7B4FC164B984209D104F50770FFF7DF
:10B05000ADFC606104F50870FFF7A8FC2061114A9F
:10B060002770138801339BB21380E3800E4BE3609B
:10B0700000200BE00B2009E00C2007E0284605E04B
:10B08000032003E004287FF421AF012004B0BDE8D1
:10B09000F08100BFB43E0020F4FFFF0F5252614127
:10B0A00072724161B03C0020B23C002001292DE9C0
:10B0B000F04706460C4615466ED9836999426BD215
:10B0C0000378022B3BD0032B4BD0012B64D101EB37
:10B0D000510A416A01EB5A21FFF744FE0746002856
:10B0E0005BD106F134090AF10108CAF3080A14F029
:10B0F00001041FBF19F80A3003F00F0343EA0513D8
:10B10000DBB208BFEBB209F80A30716A0123F370B1
:10B1100001EB58213046FFF725FE0746E8BBC8F390
:10B12000080814B1C5F3071506E019F80810C5F3AF
:10B13000032521F00F010D4309F8085029E0416A69
:10B1400001EB1421FFF70EFE074630BB640006F149
:10B15000340304F4FF741A191D55C5F307255570FF
:10B1600017E0416A01EBD411FFF7FCFD0746A0B9D7
:10B17000A40006F1340304F4FE741C442046FFF7D7
:10B1800015FC25F0704500F0704129432046FFF77B
:10B1900015FC0123F37000E002273846BDE8F08774
:10B1A0000129F8B505460C4652D9836999424FD218
:10B1B0000378022B29D0032B38D0012B48D101EB87
:10B1C0005106416A01EB5621FFF7CCFD10B14FF05B
:10B1D000FF30F8BD771C696AC6F308062E4401EB00
:10B1E0005721284696F83460FFF7BCFD0028EED1C1
:10B1F000C7F308073D44E30795F8340046EA00200A
:10B200004CBF0009C0F30B00F8BD416A01EB1421EB
:10B21000FFF7A8FD0028DAD16400343504F4FF7488
:10B220002B1958782B5D43EA0020F8BD416A01EBE9
:10B23000D411FFF797FD0028C9D1A40005F134000F
:10B2400004F4FE742044FFF7B1FB20F07040F8BD19
:10B250000120F8BDB1F5001FF8B505460C4601D335
:10B260000220F8BDCA06FBD182680668296162B96E
:10B270003378022B01D9B36A33B93389B3EB541F46
:10B28000EED9B36AAB6116E01A4677897F02BC42F9
:10B2900011460CD32868FFF783FF431C024618D0E1
:10B2A0000128DDD9B3699842DAD2E41BEFE73046D2
:10B2B000FFF7A0FBA861AB696A61002BD0D003EB5C
:10B2C00054233436C4F308043444AB61EC610020E9
:10B2D000F8BD0120F8BD2DE9F041804605680F4614
:10B2E00031B92E69A6B1AB699E4228BF012610E094
:10B2F0002846FFF755FF012861D9421C03D14FF0C2
:10B30000FF30BDE8F081AB69984259D33E4600E07A
:10B3100001266B6913B90020BDE8F081BE4217D148
:10B32000AB69D8F80000741C9C4228BF0224214657
:10B33000FFF736FF012842D0431CE0D038B12B691B
:10B34000012B05D9AA69934238BF1E4600E0A4B973
:10B350003446AB6901349C4202D3012EDBD902246E
:10B360002146D8F80000FFF71BFF30B1012826D096
:10B370000130C4D0B442ECD1CDE74FF0FF322146CA
:10B380002846FFF793FEC0B947B9AA696B692C61DB
:10B39000023A93420AD8013B6B6107E022463946E4
:10B3A0002846FFF783FE0028EFD006E02B7943F014
:10B3B00001032B712046BDE8F08101289FD00120B8
:10B3C000BDE8F081F8B50D46012D0746114601D8BC
:10B3D0000220F8BD0468A3699D42F9D22AB14FF05A
:10B3E000FF322046FFF762FE08BB29463868FFF7A8
:10B3F000D7FE064608B90020F8BD0128E8D0431C56
:10B4000014D0002229462046FFF750FE78B9A269E1
:10B410006369911E8B4205D201336361237943F046
:10B420000103237196423546DFD3E4E70120F8BDDE
:10B430002DE9F843076906682037B7F5001F24BFD8
:10B4400000238361836904468946002B45D0C7F3F6
:10B450000808B8F1000F39D141690133836131B96E
:10B460003389B3EB571F31D80023A36135E07389CB
:10B47000013B13EA572329D13046FFF791FE0128FB
:10B48000054602D80220BDE8F883421C02D1012003
:10B49000BDE8F883B369984212D3B9F1000FE3D045
:10B4A00061692046FFF717FF0546C8B10128E9D0BA
:10B4B000431CECD001463046FFF729FC0028E6D1BA
:10B4C000656129463046FFF795FAA0613436464457
:10B4D0002761E6610020BDE8F8830420BDE8F88319
:10B4E0000720BDE8F883F8B50F460021044606683A
:10B4F000FFF7B0FEA8B90546A1693046FFF732FC58
:10B5000078B9E3691B78E52B00D01BB90135BD4242
:10B5100001D1F8BD054601212046FFF789FF00282B
:10B52000EAD0042808BF0720F8BD00002DE9F84F35
:10B530004FF0FF08474E046807460D46C1460420F9
:10B54000B969002978D02046FFF70CFC002874D197
:10B55000F8690278002A78D0C37AE52A03F03F031D
:10B56000BB7160D02E2A5ED023F02001A1F1080C1F
:10B57000DCF1000141EB0C01A94254D10F2B46D163
:10B58000510605D53969437BF96202F0BF0202E03A
:10B59000914548D1434690F80D80984542D1C17EEF
:10B5A000837E43EA01231BB2002B3CD10178D4F8FF
:10B5B0000CE021F0400101394FF00D0C0CFB01FCB7
:10B5C0004FF001094FF6FF7A995D00EB010B415CEA
:10B5D0009BF801B041EA0B21B9F1000F08D0BCF192
:10B5E000FE0F20D82EF81C1089460CF1010C01E04A
:10B5F000514518D101330D2BE6D103785B0620D5D8
:10B60000BCF1FE0F0FD800232EF81C3019E0B9F161
:10B61000000F03D1FFF7F9F9804518D04FF0FF3341
:10B62000FB6214E098464FF0FF0900213846FFF70F
:10B63000FFFE002884D000E048B10023BB61BDE8D4
:10B64000F88F531E5FFA83F9EFE70420F5E7002037
:10B65000BDE8F88F326D0300C16A4B1C2DE9F04143
:10B6600004460568066903D1E5274FF001080FE09D
:10B67000FFF7F0FDA8B9F7E7E3691F7085F80380CD
:10B6800023699E420DD901462046FFF7D1FE28B915
:10B69000A1692846FFF766FB0028EDD0042808BF03
:10B6A0000220BDE8F08100002DE9F04F002185B0B7
:10B6B0000446D0F80090FFF7CDFD002840F09C80B4
:10B6C0004FF0FF33FF26E362B0460093A16948467E
:10B6D000FFF748FB002840F08F80E5692F78002FA6
:10B6E0007FD0EA7AE52F02F03F03A3716DD01207F5
:10B6F00002D50F2B69D101E00F2B53D194F82B30D9
:10B70000580666D4790605D523696E7BE36207F097
:10B71000BF0701E0B8455AD16B7BB34257D1EE7EEB
:10B72000AA7E42EA062636B2002E5ED195F8008047
:10B73000D9F80CB008F03F0808F1FF324FF00D08BF
:10B7400008FB02F801212E4AB25CA81815F802A0E5
:10B7500040784AEA002AB1B1B8F1FE0F45D8504608
:10B76000039301F005FB08F1010202903BF8180079
:10B77000019201F0FDFA0299039B814235D1019AB1
:10B780005146904603E04FF6FF7292452DD10136A7
:10B790000D2ED8D12A78520629D541B33BF818206E
:10B7A0002AB322E0B8F1000F04D12846FFF72DF9A3
:10B7B000864218D094F82B30DB0706D40B2204F114
:10B7C00020012846FFF708F9B0B1009BE3624FF073
:10B7D000FF0800212046FFF72BFE00283FF476AF3C
:10B7E0000AE0042008E0404606E01E46EFE7013F7D
:10B7F0005FFA87F81E46ECE705B0BDE8F08F00BFA2
:10B80000326D03002DE9F04F90F82B4014F0A004A6
:10B8100089B0054640F0DF800668F26832F81430DF
:10B820000BB10134FAE705F120070C22394605A8CF
:10B83000FFF73CF99DF81F30DB0764D5402385F8FE
:10B840002B304FF001080B2205A93846D6F80C9092
:10B85000FFF72CF9B8F1050F01D8434616E0A9F11E
:10B860000201434631F8022F82B1102002F0010E8E
:10B870000EEB430313F4803F1CBF83F4883383F043
:10B88000210301384FEA5202F0D1EBE7072203F01F
:10B890000F0000F13001392988BF00F13701013A6A
:10B8A00003A810441B094170F1D108A911447E205E
:10B8B00001F8140C9A4204D0F95C202901D001331C
:10B8C000F8E73B44072A9BBF08A98918202111F8F3
:10B8D000141C03F8011BA3EB070198BF01320729D1
:10B8E000F0D92846FFF7E0FE30B908F10108B8F1B9
:10B8F000640FA8D1072089E0042840F087809DF8D4
:10B900001F3085F82B309DF81F309B0745BF0C3446
:10B910000D230124B4FBF3F448BF0134214628462B
:10B92000FFF7E1FD002871D1013C56D02969284676
:10B93000A1EB4411FFF78EFC002867D13846FFF7D2
:10B9400064F88046A9693046FFF70CFA864600285D
:10B950005CD1EB69D6F80CC018734FF00F02E1B25E
:10B96000DA729876D8764A1E0D20424383F80D800D
:10B97000019270464FF6FF7948451FBF019A3CF887
:10B98000120001320192234A1EF802A00EF1010EAC
:10B9900003EB0A0B03F80A004FEA102A002808BF3D
:10B9A0004846BEF10D0F8BF801A0E5D14FF6FF7EA2
:10B9B000704503D0019A3CF812200AB941F04001C9
:10B9C00019700123F37000212846FFF731FDE8B913
:10B9D000013CB7D101E0062018E0A9693046FFF725
:10B9E000C1F9044688B920222146E869FEF7EEFF36
:10B9F0000B223946E869FFF759F895F82B30EA69C8
:10BA000003F0180313730123F370204609B0BDE857
:10BA1000F08F00BF326D03002DE9F04F87B003684F
:10BA2000019307460B782F2B894601F10101F9D0CC
:10BA30005C2BF7D00021B96099F800301F2B61D83A
:10BA4000802387F82B303846FFF704FC3DE1002BBC
:10BA500040F0AC802E2900F0A98032F8021D2E297A
:10BA600001D0013DF9D120210B227818FEF7AEFF5D
:10BA70004FF000084FF0080A46463BF813005A1CE6
:10BA8000002840F0978097F82030E52B04BF05236D
:10BA900087F82030BAF1080F04BFB600F6B206F0FE
:10BAA0000C030C2B00F0FE8006F00303032B00F0C8
:10BAB000F980A50709D4F00744BF44F01004E4B2AC
:10BAC000710744BF44F00804E4B287F82B403846BD
:10BAD000FFF7EAFD97F82B30002840F0E9805A077D
